:1000000033C00000AEC400004AC0000048C0000079
:1000100046C0000044C0000042C00000B9C000005B
:100020003EC000003CC000003AC0000038C00000E4
:1000300036C0000034C0000032C0000030C00000F4
:100040002EC000002CC00000EFC5000022C600003A
:1000500026C0000024C0000022C0000020C0000014
:100060001EC000001CC0000011241FBECFEFD8E04E
:10007000DEBFCDBF11E0A0E0B1E0E4E1FEE002C0F0
:1000800005900D92AA33B107D9F722E0AAE3B1E0B7
:1000900001C01D92AF39B207E1F79FD0B9C6B0CF0A
:1000A00088E48093B8000895ECEBF0E0108294EAC5
:1000B000908390819923ECF79091B900987F9830C4
:1000C000A1F48093BB0084E88093BC00ECEBF0E0EB
:1000D00080818823ECF79091B900987F983139F0AE
:1000E00081E0903429F480E0089581E0089580E073
:1000F00008958093BB0084E88093BC00ECEBF0E0B3
:1001000080818823ECF79091B900987F81E0983244
:1001100009F480E0089584E98093BC00089518C62E
:10012000089582E08093B00094E09093B1008093B2
:1001300070008AEF8093B30008950F931F938FB7D9
:10014000F89400913A0110913B0120913C013091CB
:100150003D018FBF602F712F822F932F1F910F9121
:100160000895E4E6F0E080818F7B8083E0E7F0E0B3
:1001700080818260808308958FB7F89410923A014D
:1001800010923B0110923C0110923D018FBF0895E7
:100190001F920F920FB60F9211248F939F93AF93DC
:1001A000BF9380913A0190913B01A0913C01B091A5
:1001B0003D010196A11DB11D80933A0190933B0131
:1001C000A0933C01B0933D01BF91AF919F918F915E
:1001D0000F900FBE0F901F901895EAE7F0E0808116
:1001E0008F77808378949DDF2FEF8BE792E9215002
:1001F00080409040E1F700C0000082E08093B000B2
:1002000085E08093B1008DE78093B300E4E6F0E0F1
:1002100080818064808380E190E067D580E091E018
:1002200097D5EFEFF3ED20E3E150F0402040E1F708
:1002300000C0000035DFB8D084E091E070DF8FEFC0
:1002400093EDE0E381509040E040E1F700C0000012
:100250004EE062E082E000D38BE091E060DFFFEFF0
:1002600023ED80E3F15020408040E1F700C0000022
:1002700005E411E0C6E4D1E00F2EF7E4AF2EF1E083
:10028000BF2EF02D412C512C3201312C68942224A8
:1002900027F802C07301620101D1882309F46EC0FE
:1002A00080918B0190918C01892B09F472C066C0FA
:1002B000F801808188230CF071C016C0F80180819C
:1002C0008F71806C432D60E070E03ED281E04AD2B5
:1002D00088E191E03DD5FFEF29EF80E0F15020402B
:1002E0008040E1F700C000008FE191E031D59FEF41
:1002F000E9EFF0E09150E040F040E1F700C000008D
:100300008881882359F0932CE92DF0E0E95BFE4FBA
:10031000808104D5939488819816B0F3F50190807C
:1003200094FE05C08BE291E013D5892005C081E3DE
:1003300091E00ED590948920882D8F7009F4AACF72
:10034000CD28CE28CF2861F417DF0BDFE4E6F0E0FC
:1003500080818F7B8083E0E7F0E080818260808312
:10036000ECDE0F2EF0E2CF2EFEE4DF2EE12CF12C9E
:10037000F02DC60ED71EE81EF91E8ECF83B7817FE3
:1003800083BF83B7816083BF889583B78E7F83BF28
:1003900083CFF801808185FD8BCFA6CFF8018081C6
:1003A00086FF8CCF822D8ECF80E87EDE80E8A1DEB6
:1003B00080E89FDE82E09DDE81E09BDE81E099DEC9
:1003C00081E097DE81E095DE81E093DE81E091DEE1
:1003D00081E08FDE81E08DDE81E08BDE81E089DEF1
:1003E00081E087DE81E085DE81E083DE81E081DE01
:1003F00081E07FDE81E07DDE8FEF7BDE80E079DEF5
:100400008AEA77DE8AEA75DE8AEA73DE8AEA71DED4
:1004100082CEE8980895E89A08958EBD0DB407FE3F
:10042000FDCF8EB508951F93CF93DF93182FC92F5B
:10043000F0DF2A988C2FF1DFD82F80E0C82F812F92
:10044000ECDFC82B2A9AE7DF8C2F9D2FDF91CF910D
:100450001F91089580919201909193018F709093D4
:100460009301809392018091920190919301886011
:1004700090939301809392018091920190919301C6
:10048000D2CF84B18C6284B92A9A249880E58CBD3D
:100490008DB581608DBD52985A9A089580919401CE
:1004A000873009F051C0809197018823A1F0909185
:1004B0009501981728F480919501873408F444C079
:1004C00084E08093940181E090E090938C0180938C
:1004D0008B0181E00895209195018091460130E0E3
:1004E00090E005962817390724F480919501873408
:1004F00058F184E08093940180914601833430F078
:1005000081E090E090938C0180938B018091450174
:1005100086FF0BC080919801982F9F719F3129F021
:100520009091450189278F7179F480918B01909189
:100530008C01892B09F055C0E0913E01F0913F01FB
:10054000309709F04AC04DC080919401843009F081
:1005500042C010924601109295018FEF9FEF909349
:100560008C0180938B01209196012223D9F0822760
:10057000282F22952827022E269526952025022E03
:10058000269520252770082E892F269507942795D4
:10059000902D8227069427959025822790938C0191
:1005A00080938B0187E08093940181E080938E019A
:1005B00083EA94E938DF8091920190919301886DEC
:1005C0009093930180939201809192019091930175
:1005D0002ADF80E0089580E0089580E0099581E0B9
:1005E00008958FEF9FEFDC018093400190934101CC
:1005F000A0934201B093430181E00895CF92DF922E
:10060000EF92FF920F931F93CF93C82F082F10E004
:10061000C801966C08DFCF772C2F30E02F5F3F4F5B
:10062000442737FD4095542F6BEF72E485E090E04E
:10063000B0D369017A01C801880F892F881F990BEF
:100640008C01000F111F000F111F000F111F081B3D
:10065000190B0F5F1F4F9801442737FD4095542F0A
:10066000C701B60196D3DA01C901689412F8B695AC
:10067000A795979587951694D1F7BC01CD016D5735
:100680007C4F8F4F9F4F24E833E040E050E081D310
:1006900020938D01CF911F910F91FF90EF90DF90EC
:1006A000CF900895811103C01092970108958F5F34
:1006B00080939701089586FD05C0807E90919801F2
:1006C0009F71890F80934501E0913E01F0913F01B8
:1006D000309711F081E009958FEF9FEF90938C0197
:1006E00080938B0180918B0190918C0120919601D8
:1006F0008227282F22952827022E26952695202509
:10070000022E269520252770082E892F26950794DE
:100710002795902D822706942795902582279093E0
:100720008C0180938B0188E08093940180919201E9
:1007300090919301886390939301809392018091AB
:100740009201909193016FCECF93C82F40934601B1
:1007500027E431E050E0822F932F51D38C2FABDF71
:10076000CF91089544E030E05CE016C08823A1F00A
:1007700093B7917F833021F0823021F4252F03C07D
:10078000242F01C0232F922B93BF93B7916093BF67
:10079000889593B79E7F93BF90919401943031F7E1
:1007A0000895E89AE9E6F0E080818D7F80830895DE
:1007B000CF93DF93D62FC42F809398014093960157
:1007C00060939901EEDF80E06DDF23DE25E032E803
:1007D0003093930120939201809192019091930123
:1007E00022DE20E1D29FC0011124876C90681BDEBD
:1007F00080E496EA18DE86E001DF82EA94E913DEFF
:100800008CEA92EC10DECC2341F083E89AEC0BDE0C
:100810008C2F90E09E6C07DE06C08BE89AEC03DE1E
:100820008DE29EEC00DE83E894ECFDDD80E598E946
:10083000FADD87E79CECF7DD80E090EEF4DD80E008
:1008400098ECF1DD89E490ECEEDD84E08093940196
:10085000E2DDDF91CF9108951F93CF93DF93C82FEF
:10086000D62F142F8093980140939601609399019D
:1008700008DE97DF82E89AECD6DD80E09EEFD3DDDC
:1008800085E08093940183B7817F83BF8091940139
:10089000853059F493B7916093BF889593B79E7F45
:1008A00093BF909194019530A9F3412F6D2F8C2F18
:1008B0007FDF80919801DF91CF911F910895CF92B2
:1008C000DF92EF92FF92CF936B017C018FEFC816FE
:1008D000D104E104F10479F070F0C0E0CF5FF69448
:1008E000E794D794C7948FEFC816D104E104F104BC
:1008F00009F0A0F701C0C0E08091920190919301AE
:1009000081FF0EC080919201909193018D7F909311
:10091000930180939201809192019091930183DDE4
:10092000C114D104E104F104B1F03C2F20E0D7015F
:10093000C601906E822B932B76DD8091920190916F
:100940009301826090939301809392018091920130
:100950009091930168DDCF91FF90EF90DF90CF9061
:1009600008951F920F920FB60F9211241F932F9389
:100970003F934F935F936F937F938F939F93AF9327
:10098000BF93CF93DF93EF93FF9343DD2A9880E0EB
:1009900044DDD82F80E0C82F40DDC82BDD232CF4A8
:1009A00080919401873009F40FC12A9A34DDD093E5
:1009B0009101C093900120919001309191013323D6
:1009C0000CF0E1C080919401873009F078C08091EB
:1009D0009501811104C0809196018111FFC0809121
:1009E0009501E82FF0E0EC5BFE4F10838F5F809362
:1009F000950120918B0130918C012127122F1295A6
:100A00001227012E169516951025012E16951025E4
:100A10001770022E232F169507941795302D212736
:100A2000069417953025212730938C0120938B0154
:100A3000E0918E01E33018F58091950190E00297E6
:100A400060918D0170E092D1892B09F4D2C017C05A
:100A5000F0E0EA5CFE4F80818F7006C0F0E0EA5C57
:100A6000FE4F808182958F7080938E01833038F4A1
:100A700090E0880F991F0196806A9469D4DC809178
:100A80009701882359F090919501981728F4809147
:100A90009501873408F477C0DDDC75C0209195019D
:100AA0008091460130E090E00596281739072CF434
:100AB00080919501873408F466C0CCDC64C08091D5
:100AC000940188230CF02FC0E0914601809194019D
:100AD000982F9F5F90939401ED5F8E0FE82FF0E0C9
:100AE000EC5BFE4F808120918B0130918C01282797
:100AF000922F92959227092E969596959025092EDC
:100B0000969590259770022E232F9695079497958A
:100B1000302D2927069497953025292730938C016D
:100B200020938B012DC080919401982F9F5F90930B
:100B30009401833009F12CF4882399F08130F9F481
:100B400015C08B3019F08C30D1F402C08DE218C082
:100B500080919601209146019EEF921B9093940103
:100B60000FC080918B0190918C010AC080918B0104
:100B700090918C01892F04C06DDC8AEA01C08AEA59
:100B800090E0986B50DC809190019091910196FFDC
:100B900003C086E08093940180919001909191012F
:100BA00094FF07C060E070E0CB0189DE81E08093B4
:100BB0008F01809190019091910195FF21C04ADCB5
:100BC00084E0809394011CC08CB581608CBD80E072
:100BD00024DC182F8CB58E7F8CBDE7CE90919501CB
:100BE000E92FF0E0EC5BFE4F80839F5F90939501CF
:100BF000F6CE809190019091910190FD29CF2ECF5A
:100C0000FF91EF91DF91CF91BF91AF919F918F9124
:100C10007F916F915F914F913F912F911F910F9015
:100C20000FBE0F901F9018951F920F920FB60F9244
:100C300011242F933F934F935F938F939F93EF9341
:100C4000FF934091C0005091C600487180919C0173
:100C500090E001968F77992720919B0130E028172B
:100C6000390739F080939C01FC01E156FE4F508317
:100C700001C042E040939A01FF91EF919F918F91C3
:100C80005F914F913F912F910F900FBE0F901F904A
:100C900018951F920F920FB60F9211248F939F9366
:100CA000EF93FF9390919E0180919D01981779F0A9
:100CB00080919D0190E001968F77992780939D0107
:100CC000FC01E15EFD4F80818093C60005C0E1EC30
:100CD000F0E080818F7D8083FF91EF919F918F91D4
:100CE0000F900FBE0F901F90189510929E011092BA
:100CF0009D0110929C0110929B01992324F422E003
:100D00002093C0009F779093C5008093C40088E92A
:100D10008093C10086E08093C200089560919E0197
:100D200070E06F5F7F4F6F777727AB0120919D0158
:100D300030E024173507D1F3FB01E15EFD4F8083DE
:100D400060939E01E1ECF0E08081806280830895F1
:100D5000CF93DF93EC018881882329F02196DEDF91
:100D600089918111FCCFDF91CF91089597FB072ED8
:100D700016F4009406D077FD08D02DD007FC05D0DE
:100D80003EF4909581959F4F0895709561957F4FA2
:100D90000895A1E21A2EAA1BBB1BFD010DC0AA1FBC
:100DA000BB1FEE1FFF1FA217B307E407F50720F0D4
:100DB000A21BB30BE40BF50B661F771F881F991F4F
:100DC0001A9469F760957095809590959B01AC0198
:100DD000BD01CF010895AA1BBB1B51E107C0AA1F8B
:100DE000BB1FA617B70710F0A61BB70B881F991FCC
:100DF0005A95A9F780959095BC01CD010895FB0106
:100E0000DC0102C001900D9241505040D8F7089586
:040E1000F894FFCF84
:100E14006B616B00504341206F6B00696E697469AC
:100E2400616C697A6564210041434B2D4F4B000A84
:100E34000D202D44415441212D200053544152543E
:0A0E44000053544F500034025600D2
:00000001FF
