:1000000033C0000029C400004AC0000048C00000FE
:1000100046C0000044C0000042C0000082C0000092
:100020003EC000003CC000003AC0000038C00000E4
:1000300036C0000034C0000032C0000030C00000F4
:100040002EC000002CC000006AC500009DC5000045
:1000500026C0000024C0000022C0000020C0000014
:100060001EC000001CC0000011241FBECFEFD8E04E
:10007000DEBFCDBF11E0A0E0B1E0EAE0FDE002C0EC
:1000800005900D92A233B107D9F722E0A2E3B1E0C7
:1000900001C01D92A739B207E1F768D034C6B0CFCE
:1000A00088E48093B8000895ECEBF0E0108294EAC5
:1000B000908390819923ECF79091B900987F9830C4
:1000C000A1F48093BB0084E88093BC00ECEBF0E0EB
:1000D00080818823ECF79091B900987F983139F0AE
:1000E00081E0903429F480E0089581E0089580E073
:1000F00008958093BB0084E88093BC00ECEBF0E0B3
:1001000080818823ECF79091B900987F81E0983244
:1001100009F480E0089584E98093BC00089593C5B4
:1001200008951F920F920FB60F9211248F939F93F1
:10013000AF93BF938091320190913301A09134012C
:10014000B09135010196A11DB11D809332019093AC
:100150003301A0933401B0933501BF91AF919F91CA
:100160008F910F900FBE0F901F901895EAE7F0E067
:1001700080818F77808378942FEF8BE792E92150ED
:1001800080409040E1F700C0000080E190E028D579
:1001900080E091E058D5EFEFF3ED20E3E150F0403F
:1001A0002040E1F700C000007BDF79D084E091E0DF
:1001B000B6DF8FEF93EDE0E381509040E040E1F750
:1001C00000C000004EE062E082E0C1D28BE091E02E
:1001D000A6DFFFEF23ED80E3F15020408040E1F700
:1001E00000C00000CEE3D1E00DE311E06894EE24FE
:1001F000E7F8CFD0882309F441C080918301909122
:100200008401892B59F13AC0F12CEF2DF0E0E15C2B
:10021000FE4F8081FED4F3948881F816B0F3F80184
:10022000808185FFE6CF808188239CF5E2CFF801AD
:1002300080818F71806C40E060E070E000D281E0EE
:100240000CD28CE191E0FFD4FFEF29EF80E0F15078
:1002500020408040E1F700C00000CBCF83E291E076
:10026000F2D49FEFE9EFF0E09150E040F040E1F789
:1002700000C0000088818111C7CFD1CF83B7817FB3
:1002800083BF83B7816083BF889583B78E7F83BF29
:10029000B0CFF801808186FFCACF8E2DCCCF80E809
:1002A00003DF80E826DF80E824DF82E022DF81E0D0
:1002B00020DF81E01EDF81E01CDF81E01ADF81E0CA
:1002C00018DF81E016DF81E014DF81E012DF81E0DA
:1002D00010DF81E00EDF81E00CDF81E00ADF81E0EA
:1002E00008DF81E006DF81E004DF81E002DF8FEFDD
:1002F00000DF80E0FEDE8AEAFCDE8AEAFADE8AEAD5
:10030000F8DE8AEAF6DE07CFE8980895E89A0895BD
:100310008EBD0DB407FEFDCF8EB508951F93CF930C
:10032000DF93182FC92FF0DF2A988C2FF1DFD82FF9
:1003300080E0C82F812FECDFC82B2A9AE7DF8C2FB3
:100340009D2FDF91CF911F91089580918A01909107
:100350008B018F7090938B0180938A0180918A0129
:1003600090918B01886090938B0180938A0180919A
:100370008A0190918B01D2CF84B18C6284B92A9A80
:10038000249880E58CBD8DB581608DBD52985A9AB8
:10039000089580918C01873009F051C080918F01C0
:1003A0008823A1F090918D01981728F480918D01F8
:1003B000873408F444C084E080938C0181E090E0AD
:1003C000909384018093830181E0089520918D01B1
:1003D00080913E0130E090E005962817390724F41B
:1003E00080918D01873458F184E080938C01809155
:1003F0003E01833430F081E090E09093840180935B
:10040000830180913D0186FF0BC080919001982F60
:100410009F719F3129F090913D0189278F7179F467
:100420008091830190918401892B09F055C0E0915E
:100430003601F0913701309709F04AC04DC08091E4
:100440008C01843009F042C010923E0110928D015F
:100450008FEF9FEF909384018093830120918E0111
:100460002223D9F08227282F22952827022E26958D
:1004700026952025022E269520252770082E892FC7
:10048000269507942795902D8227069427959025E9
:100490008227909384018093830187E080938C016D
:1004A00081E08093860183EA94E938DF80918A01B4
:1004B00090918B01886D90938B0180938A0180913C
:1004C0008A0190918B012ADF80E0089580E00895F1
:1004D00080E0099581E008958FEF9FEFDC01809324
:1004E000380190933901A0933A01B0933B0181E028
:1004F0000895CF92DF92EF92FF920F931F93CF93C5
:10050000C82F082F10E0C801966C08DFCF772C2F7A
:1005100030E02F5F3F4F442737FD4095542F6BEF5E
:1005200072E485E090E0B0D369017A01C801880FD8
:10053000892F881F990B8C01000F111F000F111FAD
:10054000000F111F081B190B0F5F1F4F9801442745
:1005500037FD4095542FC701B60196D3DA01C90182
:10056000689412F8B695A795979587951694D1F744
:10057000BC01CD016D577C4F8F4F9F4F24E833E076
:1005800040E050E081D320938501CF911F910F91DE
:10059000FF90EF90DF90CF900895811103C01092EB
:1005A0008F0108958F5F80938F01089586FD05C0A8
:1005B000807E909190019F71890F80933D01E09121
:1005C0003601F0913701309711F081E009958FEFF6
:1005D0009FEF909384018093830180918301909198
:1005E000840120918E018227282F22952827022E10
:1005F000269526952025022E269520252770082E43
:10060000892F269507942795902D82270694279564
:1006100090258227909384018093830188E08093C2
:100620008C0180918A0190918B01886390938B015A
:1006300080938A0180918A0190918B016FCECF9334
:10064000C82F40933E012FE331E050E0822F932FDB
:1006500051D38C2FABDFCF91089544E030E05CE0C4
:1006600016C08823A1F093B7917F833021F08230A8
:1006700021F4252F03C0242F01C0232F922B93BFD9
:1006800093B7916093BF889593B79E7F93BF9091E6
:100690008C01943031F70895E89AE9E6F0E0808122
:1006A0008D7F80830895CF93DF93D62FC42F8093BF
:1006B000900140938E0160939101EEDF80E06DDF49
:1006C00023DE25E032E830938B0120938A0180916C
:1006D0008A0190918B0122DE20E1D29FC00111247A
:1006E000876C90681BDE80E496EA18DE86E001DF06
:1006F00082EA94E913DE8CEA92EC10DECC2341F01E
:1007000083E89AEC0BDE8C2F90E09E6C07DE06C02F
:100710008BE89AEC03DE8DE29EEC00DE83E894EC3D
:10072000FDDD80E598E9FADD87E79CECF7DD80E008
:1007300090EEF4DD80E098ECF1DD89E490ECEEDD04
:1007400084E080938C01E2DDDF91CF9108951F93C7
:10075000CF93DF93C82FD62F142F8093900140930F
:100760008E016093910108DE97DF82E89AECD6DD76
:1007700080E09EEFD3DD85E080938C0183B7817F9D
:1007800083BF80918C01853059F493B7916093BFFA
:10079000889593B79E7F93BF90918C019530A9F374
:1007A000412F6D2F8C2F7FDF80919001DF91CF91B2
:1007B0001F910895CF92DF92EF92FF92CF936B013A
:1007C0007C018FEFC816D104E104F10479F070F0D8
:1007D000C0E0CF5FF694E794D794C7948FEFC81624
:1007E000D104E104F10409F0A0F701C0C0E0809158
:1007F0008A0190918B0181FF0EC080918A019091B6
:100800008B018D7F90938B0180938A0180918A0167
:1008100090918B0183DDC114D104E104F104B1F0A6
:100820003C2F20E0D701C601906E822B932B76DD02
:1008300080918A0190918B01826090938B018093CB
:100840008A0180918A0190918B0168DDCF91FF90A0
:10085000EF90DF90CF9008951F920F920FB60F92F6
:1008600011241F932F933F934F935F936F937F9325
:100870008F939F93AF93BF93CF93DF93EF93FF93A8
:1008800043DD2A9880E044DDD82F80E0C82F40DD8A
:10089000C82BDD232CF480918C01873009F40FC123
:1008A0002A9A34DDD0938901C09388012091880170
:1008B0003091890133230CF0E1C080918C018730A5
:1008C00009F078C080918D01811104C080918E0162
:1008D0008111FFC080918D01E82FF0E0E45CFE4FB4
:1008E00010838F5F80938D0120918301309184016B
:1008F0002127122F12951227012E169516951025D5
:10090000012E169510251770022E232F1695079489
:100910001795302D212706941795302521273093E0
:10092000840120938301E0918601E33018F58091E2
:100930008D0190E002976091850170E092D1892B42
:1009400009F4D2C017C0F0E0E15DFE4F80818F70E6
:1009500006C0F0E0E15DFE4F808182958F7080934C
:100960008601833038F490E0880F991F0196806AE1
:100970009469D4DC80918F01882359F090918D0186
:10098000981728F480918D01873408F477C0DDDC56
:1009900075C020918D0180913E0130E090E0059678
:1009A000281739072CF480918D01873408F466C02C
:1009B000CCDC64C080918C0188230CF02FC0E091C6
:1009C0003E0180918C01982F9F5F90938C01ED5F89
:1009D0008E0FE82FF0E0E45CFE4F808120918301D0
:1009E000309184012827922F92959227092E96956F
:1009F00096959025092E969590259770022E232F77
:100A0000969507949795302D29270694979530252C
:100A1000292730938401209383012DC080918C017C
:100A2000982F9F5F90938C01833009F12CF48823D9
:100A300099F08130F9F415C08B3019F08C30D1F475
:100A400002C08DE218C080918E0120913E019EEF80
:100A5000921B90938C010FC080918301909184012F
:100A60000AC08091830190918401892F04C06DDCBC
:100A70008AEA01C08AEA90E0986B50DC8091880194
:100A80009091890196FF03C086E080938C0180914C
:100A900088019091890194FF07C060E070E0CB016C
:100AA00089DE81E08093870180918801909189019E
:100AB00095FF21C04ADC84E080938C011CC08CB57A
:100AC00081608CBD80E024DC182F8CB58E7F8CBDBE
:100AD000E7CE90918D01E92FF0E0E45CFE4F80833A
:100AE0009F5F90938D01F6CE80918801909189014E
:100AF00090FD29CF2ECFFF91EF91DF91CF91BF9144
:100B0000AF919F918F917F916F915F914F913F91A5
:100B10002F911F910F900FBE0F901F9018951F924D
:100B20000F920FB60F9211242F933F934F935F9321
:100B30008F939F93EF93FF934091C0005091C60015
:100B400048718091940190E001968F7799272091C8
:100B5000930130E02817390739F080939401FC01A4
:100B6000E956FE4F508301C042E040939201FF914D
:100B7000EF919F918F915F914F913F912F910F90A6
:100B80000FBE0F901F9018951F920F920FB60F92E5
:100B900011248F939F93EF93FF93909196018091EF
:100BA0009501981779F08091950190E001968F77E3
:100BB000992780939501FC01E95EFD4F8081809328
:100BC000C60005C0E1ECF0E080818F7D8083FF915D
:100BD000EF919F918F910F900FBE0F901F901895DE
:100BE0001092960110929501109294011092930127
:100BF000992324F422E02093C0009F779093C500AE
:100C00008093C40088E98093C10086E08093C2008D
:100C100008956091960170E06F5F7F4F6F7777273F
:100C2000AB012091950130E024173507D1F3FB018A
:100C3000E95EFD4F808360939601E1ECF0E08081F6
:100C4000806280830895CF93DF93EC0188818823AD
:100C500029F02196DEDF89918111FCCFDF91CF91C0
:100C6000089597FB072E16F4009406D077FD08D060
:100C70002DD007FC05D03EF4909581959F4F0895A7
:100C8000709561957F4F0895A1E21A2EAA1BBB1B98
:100C9000FD010DC0AA1FBB1FEE1FFF1FA217B30748
:100CA000E407F50720F0A21BB30BE40BF50B661F5E
:100CB000771F881F991F1A9469F760957095809522
:100CC00090959B01AC01BD01CF010895AA1BBB1BF0
:100CD00051E107C0AA1FBB1FA617B70710F0A61B3C
:100CE000B70B881F991F5A95A9F780959095BC015D
:100CF000CD010895FB01DC0102C001900D9241502D
:0A0D00005040D8F70895F894FFCF93
:100D0A006B616B00504341206F6B006765696E69C8
:100D1A007469616C697365657274210041434B2D76
:100D2A004F4B000A0D202D44415441212D200034FF
:020D3A0002565F
:00000001FF
