:1000000033C00000ACC200004AC0000048C000007D
:1000100046C0000044C0000042C000008EC0000086
:100020003EC000003CC000003AC0000038C00000E4
:1000300036C0000034C0000032C0000030C00000F4
:100040002EC000002CC00000F3C3000026C4000036
:1000500026C0000024C0000022C0000020C0000014
:100060001EC000001CC0000011241FBECFEFD8E04E
:10007000DEBFCDBF11E0A0E0B1E0EAE0FAE002C0EF
:1000800005900D92AA32B107D9F722E0AAE2B1E0B9
:1000900001C01D92A938B207E1F774D0B4C4B0CF43
:1000A00088E48093B8000895ECEBF0E0108294EAC5
:1000B000908390819923ECF79091B900987F9830C4
:1000C000A1F48093BB0084E88093BC00ECEBF0E0EB
:1000D00080818823ECF79091B900987F983139F0AE
:1000E00081E0903429F480E0089581E0089580E073
:1000F00008958093BB0084E88093BC00ECEBF0E0B3
:1001000080818823ECF79091B900987F81E0983244
:1001100009F480E0089584E98093BC0008951CC42C
:10012000089582E08093B00094E09093B1008093B2
:1001300070008AEF8093B30008951F920F920FB65C
:100140000F9211248F939F93AF93BF9380912A01B5
:1001500090912B01A0912C01B0912D010196A11D30
:10016000B11D80932A0190932B01A0932C01B09391
:100170002D01BF91AF919F918F910F900FBE0F9066
:100180001F9018957894CDDF2FEF8BE792E92150DF
:1001900080409040E1F700C0000080E190E0A9D3EA
:1001A00080E091E0D9D32FEF83ED90E321508040A0
:1001B0009040E1F700C0000073DF1DD084E091E0C3
:1001C000AEDF2FEF83ED90E3215080409040E1F7C8
:1001D00000C000004EE062E082E039D18BE091E0A7
:1001E0009EDF2FEF83ED90E3215080409040E1F7B8
:1001F00000C00000FFCF80E857DF80E87ADF80E8AA
:1002000078DF82E076DF81E074DF81E072DF81E019
:1002100070DF81E06EDF81E06CDF81E06ADF81E02A
:1002200068DF81E066DF81E064DF81E062DF81E03A
:1002300060DF81E05EDF81E05CDF81E05ADF81E04A
:1002400058DF81E056DF8FEF54DF80E052DF8AEA2B
:1002500050DF8AEA4EDF8AEA4CDF8AEA4ADF5BCF68
:10026000E8980895E89A08958EBD0DB407FEFDCF75
:100270008EB508951F93CF93DF93182FC92FF0DF0A
:100280002A988C2FF1DFD82F80E0C82F812FECDF48
:10029000C82B2A9AE7DF8C2F9D2FDF91CF911F91DA
:1002A000089580917C0190917D018F7090937D01E4
:1002B00080937C0180917C0190917D018860909376
:1002C0007D0180937C0180917C0190917D01D2CF52
:1002D00084B18C6284B92A9A249880E58CBD8DB54E
:1002E00081608DBD52980895CF92DF92EF92FF9278
:1002F0000F931F93CF93C82F082F10E0C801966C5F
:10030000B9DFCF772C2F30E02F5F3F4F442737FDE9
:100310004095542F6BEF72E485E090E03ED3690185
:100320007A01C801880F892F881F990B8C01000F53
:10033000111F000F111F000F111F081B190B0F5F5A
:100340001F4F9801442737FD4095542FC701B60130
:1003500024D3DA01C901689412F8B695A795979548
:1003600087951694D1F7BC01CD016D577C4F8F4F07
:100370009F4F24E833E040E050E00FD32093770113
:10038000CF911F910F91FF90EF90DF90CF90089544
:10039000811103C01092810108958F5F80938101C4
:1003A0000895E89A0895CF93DF93D62FC42F8093B2
:1003B00082014093800160938301F3DF80E0E8DFF6
:1003C0004FDF25E032E830937D0120937C0180915E
:1003D0007C0190917D014EDF20E1D29FC00111246C
:1003E000876C906847DF80E496EA44DF86E07CDF34
:1003F00082EA94E93FDF8CEA92EC3CDFCC2341F0C7
:1004000083E89AEC37DF8C2F90E09E6C33DF06C0D8
:100410008BE89AEC2FDF8DE29EEC2CDF83E894ECE6
:1004200029DF80E598E926DF87E79CEC23DF80E081
:1004300090EE20DF80E098EC1DDF89E490EC1ADF7D
:1004400084E080937E010EDFDF91CF9108951F93AA
:10045000CF93DF93C82FD62F142F80938201409320
:1004600080016093830134DF9CDF82E89AEC02DF35
:1004700080E09EEFFFDE85E080937E0183B7817F81
:1004800083BF80917E01853059F493B7916093BF0B
:10049000889593B79E7F93BF90917E019530A9F385
:1004A0008CE191E059D2412F6D2F8C2F7CDF809110
:1004B0008201DF91CF911F910895CF92DF92EF9249
:1004C000FF92CF936B017C018FEFC816D104E1043A
:1004D000F10479F070F0C0E0CF5FF694E794D79420
:1004E000C7948FEFC816D104E104F10409F0A0F716
:1004F00001C0C0E080917C0190917D0181FF0EC020
:1005000080917C0190917D018D7F90937D018093FE
:100510007C0180917C0190917D01ACDEC114D104FD
:10052000E104F104B1F03C2F20E0D701C601906E48
:10053000822B932B9FDE80917C0190917D018260C4
:1005400090937D0180937C0180917C0190917D014D
:1005500091DECF91FF90EF90DF90CF9008951F92A2
:100560000F920FB60F9211241F932F933F934F9327
:100570005F936F937F938F939F93AF93BF93CF932B
:10058000DF93EF93FF9382E291E0E6D182E291E084
:10059000E3D166DE2A9880E067DED82F80E0C82F9E
:1005A00063DEC82BDD232CF480917E01873009F4B3
:1005B0000FC12A9A57DED0937B01C0937A01209114
:1005C0007A0130917B0133230CF0E1C080917E01F0
:1005D000873009F078C080917F01811104C080913B
:1005E00080018111FFC080917F01E82FF0E0E25D82
:1005F000FE4F10838F5F80937F01209175013091B2
:1006000076012127122F12951227012E1695169585
:100610001025012E169510251770022E232F1695E2
:1006200007941795302D21270694179530252127FB
:100630003093760120937501E0917801E33018F54D
:1006400080917F0190E002976091770170E092D1F4
:10065000892B09F4D2C017C0F0E0EA5DFE4F80811B
:100660008F7006C0F0E0EA5DFE4F808182958F704A
:1006700080937801833038F490E0880F991F0196B9
:10068000806A9469F7DD80918101882359F0909107
:100690007F01981728F480917F01873408F477C090
:1006A00000DE75C020917F018091300130E090E044
:1006B0000596281739072CF480917F01873408F4B8
:1006C00066C0EFDD64C080917E0188230CF02FC0EE
:1006D000E091300180917E01982F9F5F90937E0181
:1006E000ED5F8E0FE82FF0E0E25DFE4F80812091FC
:1006F0007501309176012827922F92959227092E25
:10070000969596959025092E969590259770022E90
:10071000232F969507949795302D29270694979522
:100720003025292730937601209375012DC08091C3
:100730007E01982F9F5F90937E01833009F12CF406
:10074000882399F08130F9F415C08B3019F08C3082
:10075000D1F402C08DE218C0809180012091300157
:100760009EEF921B90937E010FC080917501909136
:1007700076010AC08091750190917601892F04C09D
:1007800090DD8AEA01C08AEA90E0986B73DD80917F
:100790007A0190917B0196FF03C086E080937E01F1
:1007A00080917A0190917B0194FF07C060E070E036
:1007B000CB0183DE81E08093790180917A01909171
:1007C0007B0195FF21C06DDD84E080937E011CC01C
:1007D0008CB581608CBD80E047DD182F8CB58E7F95
:1007E0008CBDE7CE90917F01E92FF0E0E25DFE4FF6
:1007F00080839F5F90937F01F6CE80917A019091E4
:100800007B0190FD29CF2ECFFF91EF91DF91CF910A
:10081000BF91AF919F918F917F916F915F914F9118
:100820003F912F911F910F900FBE0F901F90189521
:100830001F920F920FB60F9211242F933F934F9355
:100840005F938F939F93EF93FF934091C0005091DC
:10085000C60048718091860190E001968F779927B4
:100860002091850130E02817390739F080938601FF
:10087000FC01E757FE4F508301C042E040938401E2
:10088000FF91EF919F918F915F914F913F912F91A8
:100890000F900FBE0F901F9018951F920F920FB6DA
:1008A0000F9211248F939F93EF93FF939091880160
:1008B00080918701981779F08091870190E00196E7
:1008C0008F77992780938701FC01E75FFD4F808137
:1008D0008093C60005C0E1ECF0E080818F7D8083CD
:1008E000FF91EF919F918F910F900FBE0F901F90EE
:1008F000189510928801109287011092860110922B
:100900008501992324F422E02093C0009F779093DF
:10091000C5008093C40088E98093C10086E080937D
:10092000C20008956091880170E06F5F7F4F6F771C
:100930007727AB012091870130E024173507D1F3E9
:10094000FB01E75FFD4F808360938801E1ECF0E0FD
:100950008081806280830895CF93DF93EC0188814A
:10096000882329F02196DEDF89918111FCCFDF9168
:10097000CF91089597FB072E16F4009406D077FDCB
:1009800008D02DD007FC05D03EF4909581959F4F5F
:100990000895709561957F4F0895A1E21A2EAA1BC4
:1009A000BB1BFD010DC0AA1FBB1FEE1FFF1FA2171F
:1009B000B307E407F50720F0A21BB30BE40BF50B1C
:1009C000661F771F881F991F1A9469F760957095A5
:1009D000809590959B01AC01BD01CF010895AA1BA4
:1009E000BB1B51E107C0AA1FBB1FA617B70710F01A
:1009F000A61BB70B881F991F5A95A9F7809590954C
:0A0A0000BC01CD010895F894FFCF6A
:100A0A006B616B00504341206F6B006765696E69CB
:100A1A007469616C69736565727421004845524551
:0A0A2A003200494E54003402560019
:00000001FF
