S01100004F4E5456414E4745522E737265635F
S11300009BC100000C945509B3C10000B1C10000AC
S1130010AFC10000ADC10000ABC10000DDC50000F0
S1130020A7C10000A5C10000A3C10000A1C1000038
S11300309FC100009DC1000028C2000099C10000BA
S113004097C1000095C100000C942A0B0C945F0B1F
S11300508FC100008DC100008BC1000089C1000068
S113006087C1000085C10000DC050000F401000028
S113007000000000C8000000B0040000F40100000B
S113008000000000E8030000DC050000F4010000AB
S113009000000000C8000000B0040000F4010000EB
S11300A000000000DC050000E80300002800000058
S11300B0EE02000028000000E80300002800000011
S11300C0EE02000028000000E80300002800000001
S11300D0EE02000028000000E803000028000000F1
S11300E0EE02000028000000E803000028000000E1
S11300F0EE02000028000000E803000028000000D1
S1130100EE02000028000000E803000028000000C0
S1130110EE02000028000000E803000028000000B0
S1130120EE02000028000000E803000028000000A0
S1130130EE02000028000000E80300002800000090
S1130140EE02000028000000E80300002800000080
S1130150EE02000028000000E80300002800000070
S1130160EE02000028000000E80300002800000060
S1130170EE02000028000000E80300002800000050
S1130180EE02000028000000E80300002800000040
S1130190EE02000028000000000000000000000043
S11301A0DC050000F401000000000000F401000080
S11301B0B0040000F401000000000000DC050000B1
S11301C0DC050000F401000000000000F401000060
S11301D0B0040000F401000000000000DC05000091
S11301E0DC050000F401000000000000F401000040
S11301F0B0040000F401000000000000DC05000071
S1130200DC050000F401000000000000F40100001F
S1130210B0040000F401000000000000DC05000050
S1130220FFFFFFFFC800000000000000C80000003E
S1130230FFFFFFFFC800000000000000C80000002E
S1130240FFFFFFFFC800000000000000C80000001E
S1130250FFFFFFFFC800000000000000C80000000E
S113026000FF00FF32000000000000003200000028
S113027000FF00FF32000000000000003200000018
S113028000FF00FF32000000000000003200000008
S1130290FF00FF00320000000000000032000000F8
S11302A0FF00FF00320000000000000032000000E8
S11302B0FF00FF00320000000000000032000000D8
S11302C000FF00FF320000000000000032000000C8
S11302D000FF00FF320000000000000032000000B8
S11302E000FF00FF320000000000000032000000A8
S11302F0FF00FF0032000000000000003200000098
S1130300FF00FF0032000000000000003200000087
S1130310FF00FF0032000000000000003200000077
S11303203DF50000B8F5FF0000FFFF0002010007E3
S113033008090F0E0D0C0B0A11241FBECFEFD8E0D5
S1130340DEBFCDBF11E0A0E0B1E0E0E4F8E102C01F
S113035005900D92A435B107D9F722E0A4E5B1E0E8
S113036001C01D92AF3CB207E1F7B4D00C941E0C4F
S113037047CE88E48093B8000895ECEBF0E0108257
S113038094EA908390819923ECF79091B900987F37
S11303909830A1F48093BB0084E88093BC00ECEB1C
S11303A0F0E080818823ECF79091B900987F983130
S11303B039F081E0903429F480E0089581E00895D3
S11303C080E008958093BB0084E88093BC00ECEB4C
S11303D0F0E080818823ECF79091B900987F81E068
S11303E0983209F480E0089584EC8093BC00ECEB2F
S11303F0F0E080818823ECF78091BB00089584E9C4
S11304008093BC0008950C94BE0B089582E084BDD3
S113041093E095BD80936E008AEF87BD08950F9396
S11304201F938FB7F89400915401109155012091B6
S11304305601309157018FBF602F712F822F932F58
S11304401F910F910895E4E6F0E080818F7D808311
S1130450EEE6F0E08081826080830895EEE6F0E0CD
S113046080818D7F8083E4E6F0E0808180628083F8
S113047008958FB7F8941092540110925501109278
S11304805601109257018FBF08951F920F920FB615
S11304900F9211248F939F93AF93BF938091540134
S11304A090915501A0915601B09157010196A11D5B
S11304B0B11D8093540190935501A0935601B093BC
S11304C05701BF91AF919F918F910F900FBE0F90E5
S11304D01F901895EAE7F0E080818F778083789405
S11304E095DF2FEF8BE792E9215080409040E1F7B0
S11304F000C000000E94B80A82E08093B00085E04A
S11305008093B1008DE78093B300E4E6F0E080814E
S11305108064808380E190E00E948B0B8EE091E008
S11305200E94BE0BEFEFF3ED20E3E150F0402040DA
S1130530E1F700C000001DDF99D38FEF93EDE0E3F6
S113054081509040E040E1F700C0000080E0D4D347
S113055082E191E058DFFFEF23ED80E3F15020408A
S11305608040E1F700C000004EE062E082E018D66F
S113057089E191E048DF9FEFE3EDF0E39150E04043
S1130580F040E1F700C0000005E711E0C6E7D1E064
S11305900F2EF7E7EF2EF1E0FF2EF02D0F2EF9E6E8
S11305A0AF2EF1E0BF2EF02D0F2EF4E6CF2ED12C7E
S11305B0F02D0F2EF0E78F2E912CF02D712C662448
S11305C063946894222421F80F2EF3E03F2EF02D3B
S11305D06894552457F806D4882309F4C7C0809139
S11305E0BB019091BC01892B09F4BBC0BFC0F801C9
S11305F0808188230CF0C5C017C0F80180818F71F9
S1130600806C472D60E070E043D5862D4FD586E29F
S113061091E00E94BE0BFFEF29EF80E0F1502040F3
S11306208040E1F700C000008DE291E00E94BE0B23
S11306309FEFE9EFF0E09150E040F040E1F700C0B7
S113064000008881882361F0472CE42DF0E0E9580C
S1130650FE4F80810E94A40B439488814816A8F31E
S1130660F7014080842D0E94A40B8FE39CE901973D
S1130670F1F700C0000044FE0AC089E391E00E9443
S1130680BE0B80916D01482A40926D010AC08FE330
S113069091E00E94BE0B409480916D0148224092EB
S11306A06D0180916D010E94A40B80916D018F708A
S11306B009F44EC084E491E00E94BE0B809169016C
S11306C090916A01A0916B01B0916C01892B8A2BE6
S11306D08B2BF9F480916D0183FD0CC082FD06C063
S11306E081FD06C080FF0BC0832D05C0862D03C08D
S11306F0822D01C0872D8093680180935D01B9DE4E
S1130700A2DEF60180818F7B8083F4018081826088
S1130710808385DE20910001309101014091020126
S113072050910301DC01CB01820F931FA41FB51F5D
S11307308093690190936A01A0936B01B0936C015B
S11307406EDE862F0E94A40BF5018081FDD743CF76
S11307501092690110926A0110926B0110926C015F
S11307603ACFF801808185FD42CF5ECF83B7817F88
S113077083BF83B7816083BF889583B78E7F83BF30
S11307802ACFF801808186FF38CF852D3ACFEF92AA
S11307900F931F938091630190916401A09165016F
S11307A0B0916601892B8A2B8B2B81F038DE009166
S11307B06301109164012091650130916601601715
S11307C071078207930708F4FDC0D4D680916801AD
S11307D0811131C0E0916701F0E0EE0FFF1FEE0FD1
S11307E0FF1FEE0FFF1FE859FF4F6591749180E0E2
S11307F090E0E12C00E010E098014AE0C6D60FDE5C
S1130800E0916701F0E0EE0FFF1FEE0FFF1FEE0F08
S1130810FF1FE459FF4F25913491DC01CB01820F76
S1130820931FA11DB11D8093630190936401A09354
S11308306501B093660180916801813089F5E0918A
S11308406701F0E0EE0FFF1FEE0FFF1FEE0FFF1F1B
S1130850E855FF4F6591749180E090E0E12C00E051
S113086010E098014AE091D6DADDE0916701F0E00A
S1130870EE0FFF1FEE0FFF1FEE0FFF1FE455FF4F9C
S113088025913491DC01CB01820F931FA11DB11D71
S11308908093630190936401A0936501B093660112
S11308A080916801823089F5E0916701F0E0EE0FF4
S11308B0FF1FEE0FFF1FEE0FFF1FE056FE4F659167
S11308C0749180E090E0E12C00E010E098014AE0AF
S11308D05CD6A5DDE0916701F0E0EE0FFF1FEE0F9F
S11308E0FF1FEE0FFF1FEC55FE4F25913491DC01E5
S11308F0CB01820F931FA11DB11D809363019093BF
S11309006401A0936501B09366018091680183300E
S113091089F5E0916701F0E0EE0FFF1FEE0FFF1F76
S1130920EE0FFF1FE052FE4F6591749180E090E05E
S1130930E12C00E010E098014AE027D670DDE09158
S11309406701F0E0EE0FFF1FEE0FFF1FEE0FFF1F1A
S1130950EC51FE4F25913491DC01CB01820F931FA2
S1130960A11DB11D8093630190936401A09365015F
S1130970B09366018091680190916701E82FF0E0DF
S1130980E45BFE4F20819217D0F030916D01232F4C
S11309902F7040E08F5F843009F4842FE82FF0E05B
S11309A0E85BFE4F9081211103C08093680104C06D
S11309B0932381F3809368011092670103C09F5FC2
S11309C0909367011F910F91EF9008950F931F93D8
S11309D0CF93DF9380915E0190915F01A0916001BC
S11309E0B0916101892B8A2B8B2B09F448C017DD48
S11309F000915E0110915F012091600130916101CD
S1130A00601771078207930708F039C03BC08091D3
S1130A106201FE0198E0899FE00DF11D1124E05E62
S1130A20FD4F64918C2F8D5F56D12196C430D10532
S1130A3071F7F5DC40916201E42FF0E0EE0FFF1F47
S1130A40EE0FFF1FEE0FFF1FEC5DFD4F259134915C
S1130A50DC01CB01820F931FA11DB11D80935E01A8
S1130A6090935F01A0936001B09361014F3119F439
S1130A701092620107C04F5F4093620103C0C0E05F
S1130A80D0E0C5CFDF91CF911F910F9108950F93BF
S1130A901F93CF93DF938091580190915901A091B6
S1130AA05A01B0915B01892B8A2B8B2B79F0B7DC2F
S1130AB0009158011091590120915A0130915B0124
S1130AC0601771078207930708F481C020915C01C5
S1130AD0222319F02B3021F512C0A1DCDC01CB015B
S1130AE088519C4FAF4FBF4F809358019093590149
S1130AF0A0935A01B0935B01CFEFD0E025C08FDC07
S1130B00DC01CB010196A11DB11D80935801909386
S1130B105901A0935A01B0935B01CFEFD0E014C008
S1130B2037EE3203E0011124C650DF4F78DCDC01DC
S1130B30CB01C296A11DB11D809358019093590118
S1130B40A0935A01B0935B0100E010E080915D0135
S1130B5090E09C01220F331F820F931F800F911F7F
S1130B60FC01E05EFC4F4491FC01E45DFC4F849188
S1130B704C9F90014D9F300D1124632FACD00F5F1B
S1130B801F4F0430110511F780915C018B30E1F4A3
S1130B9010925C0130916D01232F2F7080915D01C3
S1130BA040E08F5F843009F4842FE82FF0E0E85BA5
S1130BB0FE4F9081211103C080935D0108C09323EF
S1130BC081F380935D0103C08F5F80935C01DF91AB
S1130BD0CF911F910F9108951F920F920FB60F920C
S1130BE011240F931F932F933F934F935F936F930E
S1130BF07F938F939F93AF93BF93EF93FF930FDCF8
S1130C000091690110916A0120916B0130916C018E
S1130C10061717072807390798F420DCABD4E0E758
S1130C20F0E080818D7F8083E4E6F0E08081806461
S1130C30808310926D0180E05FD081E07CD003C09E
S1130C40A6DDC4DE24DFFF91EF91BF91AF919F91A8
S1130C508F917F916F915F914F913F912F911F9150
S1130C600F910F900FBE0F901F90189580E885DBB1
S1130C7080E8A8DB80E8A6DB82E0A4DB81E0A2DBDD
S1130C8081E0A0DB81E09EDB81E09CDB81E09ADBFC
S1130C9081E098DB81E096DB81E094DB81E092DB0C
S1130CA081E090DB81E08EDB81E08CDB81E08ADB1C
S1130CB081E088DB81E086DB81E084DB8FEF82DB0F
S1130CC080E080DB8AEA7EDB8AEA7CDB8AEA7ADB04
S1130CD08AEA78DB94CBCF93DF93D82FC62F80E8B2
S1130CE04CDB8D2F8E5F80686DDB8C2F6BDB87DB9D
S1130CF081E0DF91CF910895CF93813031F058F0A6
S1130D00823029F0833041F404C0C5E505C0CAEA45
S1130D1003C0CFEF01C0C0E080E82FDB84E952DBE1
S1130D208C2F50DB8C2F4EDB8C2F4CDB8C2F4ADB33
S1130D3066DBCF910895CF93C82F81E81EDB80E84E
S1130D4041DB52DBCC2311F0806101C08F7E3ADBA2
S1130D50C82F55DB8C2FCF910895E8980895E89A11
S1130D6008958EBD0DB407FEFDCF8EB508951F9373
S1130D70CF93DF93182FC92FF0DF2A988C2FF1DF40
S1130D80D82F80E0C82F812FECDFC82B2A9AE7DF09
S1130D908C2F9D2FDF91CF911F9108958091C201D7
S1130DA09091C3018F709093C3018093C20180918D
S1130DB0C2019091C30188609093C3018093C201E2
S1130DC08091C2019091C301D2CF84B18C6284B965
S1130DD02A9A249880E58CBD8DB581608DBD52988A
S1130DE05A9A08958091C401873009F051C08091C6
S1130DF0C7018823A1F09091C501981728F4809128
S1130E00C501873408F444C084E08093C40181E0C0
S1130E1090E09093BC018093BB0181E00895209100
S1130E20C5018091760130E090E0059628173907D6
S1130E3024F48091C501873458F184E08093C4017F
S1130E4080917601833430F081E090E09093BC018E
S1130E508093BB018091750186FF0BC08091C8010E
S1130E60982F9F719F3129F09091750189278F7177
S1130E7079F48091BB019091BC01892B09F055C094
S1130E80E0916E01F0916F01309709F04AC04DC0B6
S1130E908091C401843009F042C01092760110920E
S1130EA0C5018FEF9FEF9093BC018093BB0120910C
S1130EB0C6012223D9F08227282F22952827022E23
S1130EC0269526952025022E269520252770082E66
S1130ED0892F269507942795902D82270694279588
S1130EE0902582279093BC018093BB0187E0809377
S1130EF0C40181E08093BE0183EA94E938DF8091E4
S1130F00C2019091C301886D9093C3018093C20183
S1130F108091C2019091C3012ADF80E0089580E0AE
S1130F20089580E0099581E008958FEF9FEFDC013B
S1130F308093700190937101A0937201B093730137
S1130F4081E00895CF92DF92EF92FF920F931F9367
S1130F50CF93C82F082F10E0C801966C08DFCF7715
S1130F602C2F30E02F5F3F4F442737FD4095542FFF
S1130F706BEF72E485E090E022D469017A01C80144
S1130F80880F892F881F990B8C01000F111F000FE8
S1130F90111F000F111F081B190B0F5F1F4F980122
S1130FA0442737FD4095542FC701B60108D4DA0110
S1130FB0C901689412F8B695A795979587951694E4
S1130FC0D1F7BC01CD016D577C4F8F4F9F4F24E863
S1130FD033E040E050E0F3D32093BD01CF911F9163
S1130FE00F91FF90EF90DF90CF900895811103C08F
S1130FF01092C70108958F5F8093C701089586FDFD
S113100005C0807E9091C8019F71890F80937501FE
S1131010E0916E01F0916F01309711F081E0099534
S11310208FEF9FEF9093BC018093BB018091BB0134
S11310309091BC012091C6018227282F2295282750
S1131040022E269526952025022E269520252770EA
S1131050082E892F269507942795902D822706948C
S11310602795902582279093BC018093BB0188E04B
S11310708093C4018091C2019091C30188639093CD
S1131080C3018093C2018091C2019091C3016FCECC
S1131090CF93C82F4093760127E731E050E0822FA9
S11310A0932FC3D38C2FABDFCF91089544E030E06E
S11310B05CE016C08823A1F093B7917F833021F0C0
S11310C0823021F4252F03C0242F01C0232F922B1B
S11310D093BF93B7916093BF889593B79E7F93BF57
S11310E09091C401943031F70895E89AE9E6F0E06C
S11310F080818D7F80830895CF93DF93D62FC42F73
S11311008093C8014093C6016093C901EEDF80E07B
S11311106DDF23DE25E032E83093C3012093C20162
S11311208091C2019091C30122DE20E1D29FC001CF
S11311301124876C90681BDE80E496EA18DE86E052
S113114001DF82EA94E913DE8CEA92EC10DECC2310
S113115041F083E89AEC0BDE8C2F90E09E6C07DE66
S113116006C08BE89AEC03DE8DE29EEC00DE83E899
S113117094ECFDDD80E598E9FADD87E79CECF7DD8A
S113118080E090EEF4DD80E098ECF1DD89E490EC11
S1131190EEDD84E08093C401E2DDDF91CF91089518
S11311A01F93CF93DF93C82FD62F142F8093C8019A
S11311B04093C6016093C90108DE97DF82E89AEC88
S11311C0D6DD80E09EEFD3DD85E08093C40183B754
S11311D0817F83BF8091C401853059F493B79160B6
S11311E093BF889593B79E7F93BF9091C401953028
S11311F0A9F3412F6D2F8C2F7FDF8091C801DF91E0
S1131200CF911F910895CF92DF92EF92FF92CF93E7
S11312106B017C018FEFC816D104E104F10479F06D
S113122070F0C0E0CF5FF694E794D794C7948FEF43
S1131230C816D104E104F10409F0A0F701C0C0E02C
S11312408091C2019091C30181FF0EC08091C201BF
S11312509091C3018D7F9093C3018093C2018091CB
S1131260C2019091C30183DDC114D104E104F104EE
S1131270B1F03C2F20E0D701C601906E822B932B56
S113128076DD8091C2019091C30182609093C30185
S11312908093C2018091C2019091C30168DDCF9116
S11312A0FF90EF90DF90CF9008951F920F920FB6AA
S11312B00F9211241F932F933F934F935F936F9338
S11312C07F938F939F93AF93BF93CF93DF93EF93CA
S11312D0FF9343DD2A9880E044DDD82F80E0C82FB7
S11312E040DDC82BDD232CF48091C401873009F440
S11312F00FC12A9A34DDD093C101C093C00120915B
S1131300C0013091C10133230CF0E1C08091C401CC
S1131310873009F078C08091C501811104C08091A3
S1131320C6018111FFC08091C501E82FF0E0EC589F
S1131330FE4F10838F5F8093C5012091BB013091D4
S1131340BC012127122F12951227012E16951695EE
S11313501025012E169510251770022E232F169591
S113136007941795302D21270694179530252127AA
S11313703093BC012093BB01E091BE01E33018F52A
S11313808091C50190E002976091BD0170E004D2A4
S1131390892B09F4D2C017C0F0E0E05BFE4F8081D6
S11313A08F7006C0F0E0E05BFE4F808182958F7005
S11313B08093BE01833038F490E0880F991F019622
S11313C0806A9469D4DC8091C701882359F0909194
S11313D0C501981728F48091C501873408F477C0B3
S11313E0DDDC75C02091C5018091760130E090E08C
S11313F00596281739072CF48091C501873408F421
S113140066C0CCDC64C08091C40188230CF02FC07A
S1131410E09176018091C401982F9F5F9093C4015D
S1131420ED5F8E0FE82FF0E0EC58FE4F80812091A5
S1131430BB013091BC012827922F92959227092E47
S1131440969596959025092E969590259770022E3F
S1131450232F969507949795302D292706949795D1
S1131460302529273093BC012093BB012DC08091E6
S1131470C401982F9F5F9093C401833009F12CF429
S1131480882399F08130F9F415C08B3019F08C3031
S1131490D1F402C08DE218C08091C601209176017A
S11314A09EEF921B9093C4010FC08091BB01909159
S11314B0BC010AC08091BB019091BC01892F04C07A
S11314C06DDC8AEA01C08AEA90E0986B50DC809176
S11314D0C0019091C10196FF03C086E08093C401CE
S11314E08091C0019091C10194FF07C060E070E059
S11314F0CB0189DE81E08093BF018091C00190918E
S1131500C10195FF21C04ADC84E08093C4011CC062
S11315108CB581608CBD80E024DC182F8CB58E7F67
S11315208CBDE7CE9091C501E92FF0E0EC58FE4F59
S113153080839F5F9093C501F6CE8091C001909106
S1131540C10190FD29CF2ECFFF91EF91DF91CF9173
S1131550BF91AF919F918F917F916F915F914F91C7
S11315603F912F911F910F900FBE0F901F901895D0
S1131570219A08958FE391E001D1E1E8F0E08081C0
S113158080831092800029980895CF92DF92EF9281
S1131590FF92CF93DF936B017C0161157105810587
S11315A0910511F0411102C0E5DF4DC0D42F4B303D
S11315B008F0DAE060E072E18AE790E0A7019601C2
S11315C0FED0CC24CA94DC2C7601C20ED31EE41EB9
S11315D0F51EC114D10481E0E806F10458F0CD2CC5
S11315E0DE2CEF2CFF2481E0C81AD108E108F108B1
S11315F0C4E001C0C1E0ED2FF0E0ED5FFE4F2081BB
S113160030E040E050E0C701B601D9D0D092870065
S1131610C09286008091840090918500A0E0B0E0A3
S1131620C816D906EA06FB0620F4D0928500C092BB
S11316308400C061C09381003093890020938800A6
S113164080E880938000DF91CF91FF90EF90DF904E
S1131650CF9008951F920F920FB60F9211242F93DB
S11316603F934F935F938F939F93EF93FF93409197
S1131670C0005091C60048718091CC0190E0019661
S11316808F7799272091CB0130E02817390739F05B
S11316908093CC01FC01E153FE4F508301C042E032
S11316A04093CA01FF91EF919F918F915F914F9168
S11316B03F912F910F900FBE0F901F9018951F927E
S11316C00F920FB60F9211248F939F93EF93FF9372
S11316D09091CE018091CD01981779F08091CD0140
S11316E090E001968F7799278093CD01FC01E15B0F
S11316F0FD4F80818093C60005C0E1ECF0E080815D
S11317008F7D8083FF91EF919F918F910F900FBEFA
S11317100F901F9018951092CE011092CD01109247
S1131720CC011092CB01992324F422E02093C00031
S11317309F779093C5008093C40088E98093C1008B
S113174086E08093C20008956091CE0170E06F5FDF
S11317507F4F6F777727AB012091CD0130E02417BD
S11317603507D1F3FB01E15BFD4F80836093CE012C
S1131770E1ECF0E08081806280830895CF93DF9371
S1131780EC018881882329F02196DEDF899181117B
S1131790FCCFDF91CF91089597FB072E16F40094A8
S11317A006D077FD08D02DD007FC05D03EF49095E7
S11317B081959F4F0895709561957F4F0895A1E29B
S11317C01A2EAA1BBB1BFD010DC0AA1FBB1FEE1FB7
S11317D0FF1FA217B307E407F50720F0A21BB30B02
S11317E0E40BF50B661F771F881F991F1A9469F77E
S11317F060957095809590959B01AC01BD01CF01DA
S11318000895AA1BBB1B51E107C0AA1FBB1FA61743
S1131810B70710F0A61BB70B881F991F5A95A9F795
S113182080959095BC01CD010895FB01DC0102C0B7
S113183001900D9241505040D8F70895F894FFCF8D
S1131840204E0000C864433228211D160B026B6130
S11318506B00504341206F6B00696E697469616C61
S1131860697A6564210041434B2D4F4B000A0D20DA
S11318702D44415441212D200053544152540053CE
S1131880544F50005945530008040201081F08082A
S107189034025600C4
S9030000FC
