S01100004F4E5456414E4745522E737265635F
S113000042C00000E6C2000059C0000057C0000012
S113001055C0000053C0000051C0000091C0000052
S11300204DC000004BC0000049C0000047C00000A4
S113003045C0000043C0000041C000003FC00000B4
S11300403DC000003BC0000027C400005AC40000AB
S113005035C0000033C0000031C000002FC00000D4
S11300602DC000002BC00000FFFFFFFFFF00FFFFBB
S1130070FFFFFF00FFFFFFFFFF00FFFFFFFFFF0089
S1130080FFFFFFFFFF0011241FBECFEFD8E0DEBF4C
S1130090CDBF11E0A0E0B1E0E2E7FAE002C00590D4
S11300A00D92A232B107D9F722E0A2E2B1E001C079
S11300B01D92A138B207E1F768D0D9C4A1CF88E472
S11300C08093B8000895ECEBF0E0108294EA9083FA
S11300D090819923ECF79091B900987F9830A1F41E
S11300E08093BB0084E88093BC00ECEBF0E080815B
S11300F08823ECF79091B900987F983139F081E02A
S1130100903429F480E0089581E0089580E0089512
S11301108093BB0084E88093BC00ECEBF0E080812A
S11301208823ECF79091B900987F81E0983209F424
S113013080E0089584E98093BC00089541C4089543
S11301401F920F920FB60F9211248F939F93AF9328
S1130150BF938091220190912301A0912401B09139
S113016025010196A11DB11D8093220190932301C5
S1130170A0932401B0932501BF91AF919F918F91DA
S11301800F900FBE0F901F901895EAE7F0E0808162
S11301908F77808378942FEF8BE792E9215080400A
S11301A09040E1F700C0000080E190E0D6D380E009
S11301B091E006D42FEF83ED90E3215080409040EE
S11301C0E1F700C000007BDF4DD084E091E0B6DFB2
S11301D02FEF83ED90E3215080409040E1F700C081
S11301E000004EE062E082E06FD18BE091E0A6DF98
S11301F02FEF83ED90E3215080409040E1F700C061
S1130200000000E010E0C12CD12C19C0F701EC0F64
S1130210FD1FE859FF4F8491B9D38CE191E0D0D30D
S11302208FE39CE90197F1F700C000002196C430E8
S1130230D10561F70F5F1F4F0530110549F0E60145
S11302407801EE0CFF1CE00EF11EEE0CFF1CDECF5D
S11302509FEF21EE84E0915020408040E1F700C000
S11302600000FFCF80E82FDF80E852DF80E850DF16
S113027082E04EDF81E04CDF81E04ADF81E048DF4D
S113028081E046DF81E044DF81E042DF81E040DF5E
S113029081E03EDF81E03CDF81E03ADF81E038DF6E
S11302A081E036DF81E034DF81E032DF81E030DF7E
S11302B081E02EDF8FEF2CDF80E02ADF8AEA28DF5F
S11302C08AEA26DF8AEA24DF8AEA22DF33CFE89843
S11302D00895E89A08958EBD0DB407FEFDCF8EB53E
S11302E008951F93CF93DF93182FC92FF0DF2A9817
S11302F08C2FF1DFD82F80E0C82F812FECDFC82BA3
S11303002A9AE7DF8C2F9D2FDF91CF911F910895BB
S113031080917401909175018F7090937501809311
S113032074018091740190917501886090937501B6
S1130330809374018091740190917501D2CF84B13E
S11303408C6284B92A9A249880E58CBD8DB581602D
S11303508DBD52985A9A0895CF92DF92EF92FF92F0
S11303600F931F93CF93C82F082F10E0C801966CEA
S1130370B8DFCF772C2F30E02F5F3F4F442737FD76
S11303804095542F6BEF72E485E090E03AD3690115
S11303907A01C801880F892F881F990B8C01000FDF
S11303A0111F000F111F000F111F081B190B0F5FE6
S11303B01F4F9801442737FD4095542FC701B601BC
S11303C020D3DA01C901689412F8B695A7959795D8
S11303D087951694D1F7BC01CD016D577C4F8F4F93
S11303E09F4F24E833E040E050E00BD320936F01AB
S11303F0CF911F910F91FF90EF90DF90CF900895D0
S1130400811103C01092790108958F5F809379015F
S11304100895E89AE9E6F0E080818D7F808308956D
S1130420CF93DF93D62FC42F80937A014093780122
S113043060937B01EEDF80E0E3DF49DF25E032E813
S1130440309375012093740180917401909175012A
S113045048DF20E1D29FC0011124876C906841DFFE
S113046080E496EA3EDF86E077DF82EA94E939DFCA
S11304708CEA92EC36DFCC2341F083E89AEC31DF4E
S11304808C2F90E09E6C2DDF06C08BE89AEC29DF60
S11304908DE29EEC26DF83E894EC23DF80E598E987
S11304A020DF87E79CEC1DDF80E090EE1ADF80E020
S11304B098EC17DF89E490EC14DF84E080937601F4
S11304C008DFDF91CF9108951F93CF93DF93C82F57
S11304D0D62F142F80937A014093780160937B0187
S11304E02EDF97DF82E89AECFCDE80E09EEFF9DEF7
S11304F085E08093760183B7817F83BF8091760105
S1130500853059F493B7916093BF889593B79E7FD4
S113051093BF909176019530A9F3412F6D2F8C2FC5
S11305207FDF80917A01DF91CF911F910895CF925F
S1130530DF92EF92FF92CF936B017C018FEFC8168D
S1130540D104E104F10479F070F0C0E0CF5FF694D7
S1130550E794D794C7948FEFC816D104E104F1044B
S113056009F0A0F701C0C0E0809174019091750179
S113057081FF0EC080917401909175018D7F9093DD
S11305807501809374018091740190917501A9DEC5
S1130590C114D104E104F104B1F03C2F20E0D701EF
S11305A0C601906E822B932B9CDE809174019091F6
S11305B07501826090937501809374018091740138
S11305C0909175018EDECF91FF90EF90DF90CF90E8
S11305D008951F920F920FB60F9211241F932F9319
S11305E03F934F935F936F937F938F939F93AF93B7
S11305F0BF93CF93DF93EF93FF9369DE2A9880E054
S11306006ADED82F80E0C82F66DEC82BDD232CF4E9
S113061080917601873009F40FC12A9A5ADED0936B
S11306207301C093720120917201309173013323DD
S11306300CF0E1C080917601873009F078C0809198
S11306407701811104C0809178018111FFC08091EC
S11306507701E82FF0E0EA5DFE4F10838F5F80930F
S1130660770120916D0130916E012127122F12958F
S11306701227012E169516951025012E1695102574
S11306801770022E232F169507941795302D2127C6
S1130690069417953025212730936E0120936D0120
S11306A0E0917001E33018F58091770190E00297B2
S11306B060916F0170E092D1892B09F4D2C017C008
S11306C0F0E0E25EFE4F80818F7006C0F0E0E25EF3
S11306D0FE4F808182958F7080937001833038F44F
S11306E090E0880F991F0196806A9469FADD8091E1
S11306F07901882359F090917701981728F4809113
S11307007701873408F477C003DE75C02091770140
S11307108091280130E090E00596281739072CF4E1
S113072080917701873408F466C0F2DD64C080915B
S1130730760188230CF02FC0E09128018091760186
S1130740982F9F5F90937601ED5F8E0FE82FF0E076
S1130750EA5DFE4F808120916D0130916E01282762
S1130760922F92959227092E969596959025092E6B
S1130770969590259770022E232F9695079497951A
S1130780302D2927069497953025292730936E011B
S113079020936D012DC080917601982F9F5F9093D7
S11307A07601833009F12CF4882399F08130F9F42F
S11307B015C08B3019F08C30D1F402C08DE218C012
S11307C080917801209128019EEF921B90937601ED
S11307D00FC080916D0190916E010AC080916D01EE
S11307E090916E01892F04C093DD8AEA01C08AEAE0
S11307F090E0986B76DD809172019091730196FF81
S113080003C086E080937601809172019091730118
S113081094FF07C060E070E0CB0189DE81E0809343
S11308207101809172019091730195FF21C070DD77
S113083084E0809376011CC08CB581608CBD80E01F
S11308404ADD182F8CB58E7F8CBDE7CE9091770151
S1130850E92FF0E0EA5DFE4F80839F5F909377017C
S1130860F6CE809172019091730190FD29CF2ECF25
S1130870FF91EF91DF91CF91BF91AF919F918F91B4
S11308807F916F915F914F913F912F911F910F90A5
S11308900FBE0F901F9018951F920F920FB60F92D4
S11308A011242F933F934F935F938F939F93EF93D1
S11308B0FF934091C0005091C600487180917E0121
S11308C090E001968F77992720917D0130E02817D9
S11308D0390739F080937E01FC01EF57FE4F5083B6
S11308E001C042E040937C01FF91EF919F918F9171
S11308F05F914F913F912F910F900FBE0F901F90DA
S113090018951F920F920FB60F9211248F939F93F5
S1130910EF93FF939091800180917F01981779F074
S113092080917F0190E001968F77992780937F01D2
S1130930FC01EF5FFD4F80818093C60005C0E1ECB0
S1130940F0E080818F7D8083FF91EF919F918F9163
S11309500F900FBE0F901F90189510928001109267
S11309607F0110927E0110927D01992324F422E0EC
S11309702093C0009F779093C5008093C40088E9BA
S11309808093C10086E08093C20008956091800145
S113099070E06F5F7F4F6F777727AB0120917F0106
S11309A030E024173507D1F3FB01EF5FFD4F80835F
S11309B060938001E1ECF0E080818062808308959F
S11309C0CF93DF93EC018881882329F02196DEDF21
S11309D089918111FCCFDF91CF91089597FB072E68
S11309E016F4009406D077FD08D02DD007FC05D06E
S11309F03EF4909581959F4F0895709561957F4F32
S1130A000895A1E21A2EAA1BBB1BFD010DC0AA1F4B
S1130A10BB1FEE1FFF1FA217B307E407F50720F063
S1130A20A21BB30BE40BF50B661F771F881F991FDE
S1130A301A9469F760957095809590959B01AC0127
S1130A40BD01CF010895AA1BBB1B51E107C0AA1F1A
S1130A50BB1FA617B70710F0A61BB70B881F991F5B
S1130A605A95A9F780959095BC01CD010895F89405
S1050A70FFCFB2
S1130A726B616B00504341206F6B006765696E695F
S1130A827469616C69736565727421002D003402A6
S1050A92560008
S9030000FC
