S01100004F4E5456414E4745522E737265635F
S1130000C3C200000C94C80ADBC20000D9C20000BD
S1130010D7C20000D5C20000D3C200003BC7000015
S1130020CFC20000CDC20000CBC20000C9C2000094
S1130030C7C20000C5C200004DC30000C1C2000019
S1130040BFC20000BDC200000C94A40C0C94D90CD7
S1130050B7C20000B5C20000B3C20000B1C20000C4
S1130060AFC20000ADC200000C0B0A0F0E0D070852
S113007009020100DC050000F4010000000000009A
S1130080C8000000B0040000F401000000000000FB
S1130090E8030000DC050000F4010000000000009B
S11300A0C8000000B0040000F401000000000000DB
S11300B0DC050000E803000028000000EE02000058
S11300C028000000E803000028000000EE02000001
S11300D028000000E803000028000000EE020000F1
S11300E028000000E803000028000000EE020000E1
S11300F028000000E803000028000000EE020000D1
S113010028000000E803000028000000EE020000C0
S113011028000000E803000028000000EE020000B0
S113012028000000E803000028000000EE020000A0
S113013028000000E803000028000000EE02000090
S113014028000000E803000028000000EE02000080
S113015028000000E803000028000000EE02000070
S113016028000000E803000028000000EE02000060
S113017028000000E803000028000000EE02000050
S113018028000000E803000028000000EE02000040
S113019028000000E803000028000000EE02000030
S11301A02800000000000000E8030000E80300004D
S11301B028000000EE02000028000000E803000010
S11301C028000000EE02000028000000E803000000
S11301D028000000EE02000028000000E8030000F0
S11301E028000000EE02000028000000E8030000E0
S11301F028000000EE02000028000000E8030000D0
S113020028000000EE02000028000000E8030000BF
S113021028000000EE02000028000000E8030000AF
S113022028000000EE02000028000000E80300009F
S113023028000000EE02000028000000E80300008F
S113024028000000EE02000028000000E80300007F
S113025028000000EE02000028000000E80300006F
S113026028000000EE02000028000000E80300005F
S113027028000000EE02000028000000E80300004F
S113028028000000EE02000028000000E80300003F
S113029028000000EE02000028000000000000001A
S11302A0E8030000E803000028000000EE0200005C
S11302B028000000E803000028000000EE0200000F
S11302C028000000E803000028000000EE020000FF
S11302D028000000E803000028000000EE020000EF
S11302E028000000E803000028000000EE020000DF
S11302F028000000E803000028000000EE020000CF
S113030028000000E803000028000000EE020000BE
S113031028000000E803000028000000EE020000AE
S113032028000000E803000028000000EE0200009E
S113033028000000E803000028000000EE0200008E
S113034028000000E803000028000000EE0200007E
S113035028000000E803000028000000EE0200006E
S113036028000000E803000028000000EE0200005E
S113037028000000E803000028000000EE0200004E
S113038028000000E803000028000000EE0200003E
S11303902800000000000000E80300000000000046
S11303A00000000000000000000000000000000049
S11303B000000000D00700002C0100000000000035
S11303C02C010000D00700002C01000000000000F8
S11303D02C010000D00700002C01000000000000E8
S11303E02C010000D00700002C01000000000000D8
S11303F02C010000D00700002C01000000000000C8
S11304002C010000D00700002C01000000000000B7
S11304102C010000D00700002C01000000000000A7
S11304202C010000D00700002C0100000000000097
S11304302C010000BF0400002C010000A5050000F1
S11304402C0100001C0700002C010000A505000081
S11304502C010000BF0400002C010000A5050000D1
S11304602C0100001C0700002C010000A505000061
S11304702C01000000000000E8030000FFFFFFFF64
S1130480C800000000000000C8000000FFFFFFFFDC
S1130490C800000000000000C8000000FFFFFFFFCC
S11304A0C800000000000000C8000000FFFFFFFFBC
S11304B0C800000000000000C800000000FF00FFAA
S11304C032000000000000003200000000FF00FFC6
S11304D032000000000000003200000000FF00FFB6
S11304E0320000000000000032000000FF00FF00A6
S11304F0320000000000000032000000FF00FF0096
S1130500320000000000000032000000FF00FF0085
S113051032000000000000003200000000FF00FF75
S113052032000000000000003200000000FF00FF65
S113053032000000000000003200000000FF00FF55
S1130540320000000000000032000000FF00FF0045
S1130550320000000000000032000000FF00FF0035
S1130560320000000000000032000000FF00FF0025
S11305703200000000000000320000003DF50000E1
S1130580B8F5FF0000FFFF0011241FBECFEFD8E035
S1130590DEBFCDBF11E0A0E0B1E0E2EBFAE102C0C2
S11305A005900D92AA31B107D9F722E0AAE1B1E092
S11305B001C01D92A639B207E1F7D1D00C94570DB2
S11305C01FCD88E48093B8000895ECEBF0E010822E
S11305D094EA908390819923ECF79091B900987FE5
S11305E09830A1F48093BB0084E88093BC00ECEBCA
S11305F0F0E080818823ECF79091B900987F9831DE
S113060039F081E0903429F480E0089581E0089580
S113061080E008958093BB0084E88093BC00ECEBF9
S1130620F0E080818823ECF79091B900987F81E015
S1130630983209F480E0089584EC8093BC00ECEBDC
S1130640F0E080818823ECF78091BB00089584E971
S11306508093BC00089582E084BD93E095BD8093AF
S11306606E008AEF87BD08950F931F938FB7F89498
S113067000911A0110911B0120911C0130911D0160
S11306808FBF602F712F822F932F1F910F91089589
S1130690E4E6F0E080818F7D8083EEE6F0E0808107
S11306A0826080830895EEE6F0E080818D7F808310
S11306B0E4E6F0E080818062808308958FB7F89447
S11306C010921A0110921B0110921C0110921D012C
S11306D08FBF08951F920F920FB60F9211248F931C
S11306E09F93AF93BF9380911A0190911B01A091A6
S11306F01C01B0911D010196A11DB11D80931A0129
S113070090931B01A0931C01B0931D01BF91AF9165
S11307109F918F910F900FBE0F901F90189582E0BC
S11307208093B00085E08093B1008DE78093B3009F
S11307300895E4E6F0E080818F7B8083E0E7F0E0D9
S11307408081826080830895E0E7F0E080818D7F7E
S11307508083E4E6F0E08081806480830895CF9311
S1130760DF9300D0CDB7DEB7EAE7F0E080818F7782
S113077080837894209A289A2FEF89E698E1215073
S113078080409040E1F700C00000289864DFEFEF5C
S1130790F3ED20E3E150F0402040E1F700C0000019
S11307A00E942B0C0E942D0CBADFCEDFE4E6F0E0B1
S11307B080818260808305DFE0D313E08FEF23D450
S11307C08FEF91EEE4E081509040E040E1F700C00B
S11307D0000080E018D4FFEF21EE84E0F1502040C7
S11307E08040E1F700C00000115041F74EE062E0A4
S11307F082E049D681E0809334016FEFF3D39FEF19
S1130800E7E8F3E19150E040F040E1F700C0000078
S11308106FEF88E0E7D32FEF87E893E12150804022
S11308209040E1F700C000006FEF8BE0DBD3EFEF07
S1130830F7E823E1E150F0402040E1F700C0000078
S11308406FEF8EE0CFD38FEF9FE0E7E281509040CF
S1130850E040E1F700C0000080E0D5D381E0E3D3BD
S11308600F2EFCE3EF2EF1E0FF2EF02D0F2EFFE311
S11308708F2EF1E09F2EF02D412C512C49825A826B
S11308802224239427D48823E9F380918201909130
S11308908301892B09F4D8C0F5CFF701808185FF46
S11308A00EC0808188230CF0D5C009C0F701808177
S11308B08F71806C40E0B20163D5822D6FD5F40155
S11308C03080332D307134FE06C08091330183298A
S11308D08093330107C0832D809590913301892340
S11308E08093330120913301822F8F7009F486C0E5
S11308F080912F0190913001A0913101B09132018A
S1130900892B8A2B8B2BC1F51092340123FD0CC04B
S113091022FD06C021FD06C020FF0BC083E005C0F8
S1130920822D03C082E001C080E080932E01809379
S11309302301C4DEADDE98DE0091000110910101B7
S11309402091020130910301DC01CB01800F911F42
S1130950A21FB31F80932F0190933001A093310104
S1130960B0933201E4E6F0E080818F77808329DE62
S113097080E059D3DEDE86CF311172C00F2EFEE047
S1130980AF2EF1E0BF2EF02D6201F50121915F0140
S11309902321A1F009811A813601660C771C6C0CA5
S11309A07D1CF301E00FF11FE859FF4F849160E0D3
S11309B019D30F5F1F4F0330110599F7FFEFCF1ABB
S11309C0DF0A24E0C216D10401F75CCF4DDE0091AA
S11309D00001109101012091020130910301DC0119
S11309E0CB01800F911FA21FB31F80932F019093FF
S11309F03001A0933101B093320144CF10922F0102
S1130A001092300110923101109232013BCF80914B
S1130A103401813071F483B7817F8C6083BF83B7E5
S1130A20816083BF85B7806685BF8F7D85BF8895CC
S1130A3007C083B7817F83BF83B7816083BF8895F5
S1130A4083B78E7F83BF1ECFEEE3F1E080818939C7
S1130A50F1F623CFF701808186FF28CF80E82ACFE3
S1130A60832D8F7009F40ECFB1CF0F931F93809114
S1130A70290190912A01A0912B01B0912C01892B7D
S1130A808A2B8B2B81F0F0DD0091290110912A0132
S1130A9020912B0130912C01601771078207930775
S1130AA008F4EFC0DAD680912E0181112EC0E091B6
S1130AB02D01F0E0EE0FFF1FEE0FFF1FEE0FFF1FE3
S1130AC0EC58FF4F6591749180E090E041E0D2D6FC
S1130AD0CBDDE0912D01F0E0EE0FFF1FEE0FFF1FC5
S1130AE0EE0FFF1FE858FF4F25913491DC01CB0135
S1130AF0820F931FA11DB11D8093290190932A0198
S1130B00A0932B01B0932C018FC0813071F5E0913B
S1130B102D01F0E0EE0FFF1FEE0FFF1FEE0FFF1F82
S1130B20EC54FF4F6591749180E090E041E0A2D6CF
S1130B309BDDE0912D01F0E0EE0FFF1FEE0FFF1F94
S1130B40EE0FFF1FE854FF4F25913491DC01CB01D8
S1130B50820F931FA11DB11D8093290190932A0137
S1130B60A0932B01B0932C015FC0823071F5E0910A
S1130B702D01F0E0EE0FFF1FEE0FFF1FEE0FFF1F22
S1130B80EC54FC4F6591749180E090E041E072D6A2
S1130B906BDDE0912D01F0E0EE0FFF1FEE0FFF1F64
S1130BA0EE0FFF1FE854FC4F25913491DC01CB017B
S1130BB0820F931FA11DB11D8093290190932A01D7
S1130BC0A0932B01B0932C012FC0833069F5E091E1
S1130BD02D01F0E0EE0FFF1FEE0FFF1FEE0FFF1FC2
S1130BE0EC5CFB4F6591749180E090E041E042D66B
S1130BF03BDDE0912D01F0E0EE0FFF1FEE0FFF1F34
S1130C00EE0FFF1FE85CFB4F25913491DC01CB0113
S1130C10820F931FA11DB11D8093290190932A0176
S1130C20A0932B01B0932C0150912D0140912E01E2
S1130C30252F30E0E42FF0E0EE5EFE4F808190E05F
S1130C40019728173907D4F020913301922F9F7010
S1130C5030E04F5F443009F4432FE42FF0E0E25FCB
S1130C60FE4F8081911103C040932E0104C0822362
S1130C7081F340932E0110922D0103C05F5F5093C6
S1130C802D011F910F9108950F931F93CF93DF931D
S1130C908091240190912501A0912601B091270112
S1130CA0892B8A2B8B2B09F448C0DEDC00912401AC
S1130CB010912501209126013091270160177107B9
S1130CC08207930708F039C03BC080912801FE01D8
S1130CD098E0899FE00DF11D1124E458FB4F6491C5
S1130CE08C2F8D5F7FD12196C430D10571F7BCDC88
S1130CF040912801E42FF0E0EE0FFF1FEE0FFF1FDD
S1130D00EE0FFF1FE058FB4F25913491DC01CB011E
S1130D10820F931FA11DB11D80932401909325017F
S1130D20A0932601B09327014F3119F410922801A2
S1130D3007C04F5F4093280103C0C0E0D0E0C5CF97
S1130D40DF91CF911F910F9108950F931F93CF932C
S1130D50DF9380911E0190911F01A0912001B09119
S1130D602101892B8A2B8B2B79F07EDC00911E01CB
S1130D7010911F012091200130912101601771070A
S1130D808207930708F481C020912201222319F0DD
S1130D902B3021F512C068DCDC01CB0188519C4F5B
S1130DA0AF4FBF4F80931E0190931F01A09320016A
S1130DB0B0932101CFEFD0E025C056DCDC01CB019C
S1130DC00196A11DB11D80931E0190931F01A09354
S1130DD02001B0932101CFEFD0E014C037EE3203ED
S1130DE0E0011124C650DF4F3FDCDC01CB014E96FD
S1130DF0A11DB11D80931E0190931F01A09320019A
S1130E00B093210100E010E08091230190E09C0167
S1130E10220F331F820F931F800F911FFC01E45890
S1130E20FA4F4491FC01E859FF4F84914C9F900183
S1130E304D9F300D1124632FD5D00F5F1F4F03300A
S1130E40110511F7809122018B30E1F410922201F7
S1130E5030913301232F2F708091230140E08F5F65
S1130E60843009F4842FE82FF0E0E25FFE4F908194
S1130E70211103C08093230108C0932381F380933D
S1130E80230103C08F5F80932201DF91CF911F91D3
S1130E900F9108951F920F920FB60F9211240F9382
S1130EA01F932F933F934F935F936F937F938F93EE
S1130EB09F93AF93BF93EF93FF93D6DB00912F01E2
S1130EC01091300120913101309132016017710786
S1130ED08207930720F4012B022B032BC1F51092F8
S1130EE02D011092290110922A0110922B011092C7
S1130EF02C011092280110922401109225011092C5
S1130F002601109227011092220110921E011092C4
S1130F101F011092200110922101109233011092AE
S1130F202F0110923001109231011092320180E0B1
S1130F306AD081E078D0E4E6F0E080818068808344
S1130F40B2DB8BD401DC81E08093340103C08DDDFE
S1130F509BDEFBDEFF91EF91BF91AF919F918F914B
S1130F607F916F915F914F913F912F911F910F91BD
S1130F700F900FBE0F901F90189580E826DB80E835
S1130F8049DB80E847DB82E045DB81E043DB81E04D
S1130F9041DB81E03FDB81E03DDB81E03BDB81E065
S1130FA039DB81E037DB81E035DB81E033DB81E075
S1130FB031DB81E02FDB81E02DDB81E02BDB81E085
S1130FC029DB81E027DB81E025DB8FEF23DB80E079
S1130FD021DB8AEA1FDB8AEA1DDB8AEA1BDB8AEA59
S1130FE019DB35CBCF93DF93D82FC62F80E8EDDA0A
S1130FF08D2F8E5F80680EDB8C2F0CDB28DB81E06D
S1131000DF91CF910895CF93DF93D82F80E8DDDA75
S113101082E800DBC0E18D2FFDDAC150E1F717DB78
S1131020DF91CF910895CF93C82F81E8CEDA80E87D
S1131030F1DA02DBCC2311F0806101C08F7EEADAA1
S1131040C82F05DB8C2FCF910895E8980895E89A6E
S113105008958EBD0DB407FEFDCF8EB508951F9380
S1131060CF93DF93182FC92FF0DF2A988C2FF1DF4D
S1131070D82F80E0C82F812FECDFC82B2A9AE7DF16
S11310808C2F9D2FDF91CF911F910895809189011D
S113109090918A018F7090938A0180938901809145
S11310A0890190918A01886090938A0180938901D3
S11310B08091890190918A01D2CF84B18C6284B9E4
S11310C02A9A249880E58CBD8DB581608DBD529897
S11310D05A9A089580918B01873009F051C080910C
S11310E08E018823A1F090918C01981728F48091A7
S11310F08C01873408F444C084E080938B0181E040
S113110090E0909383018093820181E0089520917F
S11311108C0180913D0130E090E005962817390755
S113112024F480918C01873458F184E080938B01FE
S113113080913D01833430F081E090E0909383010D
S11311408093820180913C0186FF0BC080918F01C6
S1131150982F9F719F3129F090913C0189278F71BD
S113116079F48091820190918301892B09F055C013
S1131170E0913501F0913601309709F04AC04DC035
S113118080918B01843009F042C010923D0110928D
S11311908C018FEF9FEF90938301809382012091C4
S11311A08D012223D9F08227282F22952827022E69
S11311B0269526952025022E269520252770082E73
S11311C0892F269507942795902D82270694279595
S11311D090258227909383018093820187E08093F6
S11311E08B0181E08093850183EA94E938DF809163
S11311F0890190918A01886D90938A018093890175
S11312008091890190918A012ADF80E0089580E02D
S1131210089580E0099581E008958FEF9FEFDC0148
S11312208093370190933801A0933901B0933A0128
S113123081E00895CF92DF92EF92FF920F931F9374
S1131240CF93C82F082F10E0C801966C08DFCF7722
S11312502C2F30E02F5F3F4F442737FD4095542F0C
S11312606BEF72E485E090E0E3D369017A01C80191
S1131270880F892F881F990B8C01000F111F000FF5
S1131280111F000F111F081B190B0F5F1F4F98012F
S1131290442737FD4095542FC701B601C9D3DA015D
S11312A0C901689412F8B695A795979587951694F1
S11312B0D1F7BC01CD016D577C4F8F4F9F4F24E870
S11312C033E040E050E0B4D320938401CF911F91E8
S11312D00F91FF90EF90DF90CF900895811103C09C
S11312E010928E0108958F5F80938E01089586FD7C
S11312F005C0807E90918F019F71890F80933C017E
S1131300E0913501F0913601309711F081E00995B3
S11313108FEF9FEF909383018093820180918201EC
S11313209091830120918D018227282F22952827CF
S1131330022E269526952025022E269520252770F7
S1131340082E892F269507942795902D8227069499
S1131350279590258227909383018093820188E0CA
S113136080938B018091890190918A018863909385
S11313708A01809389018091890190918A016FCEBD
S1131380CF93C82F40933D012EE331E050E0822FEC
S1131390932F84D38C2FABDFCF91089544E030E0BA
S11313A05CE016C08823A1F093B7917F833021F0CD
S11313B0823021F4252F03C0242F01C0232F922B28
S11313C093BF93B7916093BF889593B79E7F93BF64
S11313D090918B01943031F70895E89A0895CF9352
S11313E0DF93D62FC42F80938F0140938D01609398
S11313F09001F3DF80E072DF28DE25E032E83093ED
S11314008A01209389018091890190918A0127DEC4
S113141020E1D29FC0011124876C906820DE80E413
S113142096EA1DDE86E006DF82EA94E918DE8CEA9D
S113143092EC15DECC2341F083E89AEC10DE8C2F7D
S113144090E09E6C0CDE06C08BE89AEC08DE8DE220
S11314509EEC05DE83E894EC02DE80E598E9FFDD8E
S113146087E79CECFCDD80E090EEF9DD80E098EC11
S1131470F6DD89E490ECF3DD84E080938B01E7DD15
S1131480DF91CF9108951F93CF93DF93C82FD62F69
S1131490142F80938F0140938D01609390010DDE92
S11314A09CDF82E89AECDBDD80E09EEFD8DD85E00E
S11314B080938B0183B7817F83BF80918B018530BB
S11314C059F493B7916093BF889593B79E7F93BF68
S11314D090918B019530A9F3412F6D2F8C2F7FDFD5
S11314E080918F01DF91CF911F910895CF92DF9268
S11314F0EF92FF92CF936B017C018FEFC816D1045A
S1131500E104F10479F070F0C0E0CF5FF694E79461
S1131510D794C7948FEFC816D104E104F10409F0FD
S1131520A0F701C0C0E08091890190918A0181FFF8
S11315300EC08091890190918A018D7F90938A01D8
S1131540809389018091890190918A0188DDC11479
S1131550D104E104F104B1F03C2F20E0D701C6012D
S1131560906E822B932B7BDD8091890190918A016F
S1131570826090938A01809389018091890190917E
S11315808A016DDDCF91FF90EF90DF90CF900895A9
S11315901F920F920FB60F9211241F932F933F9314
S11315A04F935F936F937F938F939F93AF93BF9367
S11315B0CF93DF93EF93FF9348DD2A9880E049DDD2
S11315C0D82F80E0C82F45DDC82BDD232CF4809173
S11315D08B01873009F40FC12A9A39DDD093880131
S11315E0C0938701209187013091880133230CF047
S11315F0E1C080918B01873009F078C080918C0123
S1131600811104C080918D018111FFC080918C01F2
S1131610E82FF0E0E55CFE4F10838F5F80938C0130
S113162020918201309183012127122F12951227D4
S1131630012E169516951025012E16951025177056
S1131640022E232F169507941795302D21270694E3
S11316501795302521273093830120938201E0914F
S11316608501E33018F580918C0190E00297609138
S1131670840170E0CAD1892B09F4D2C017C0F0E00C
S1131680EA5EFE4F80818F7006C0F0E0EA5EFE4F96
S1131690808182958F7080938501833038F490E047
S11316A0880F991F0196806A9469D9DC80918E0114
S11316B0882359F090918C01981728F480918C011B
S11316C0873408F477C0E2DC75C020918C018091E6
S11316D03D0130E090E00596281739072CF48091FD
S11316E08C01873408F466C0D1DC64C080918B011E
S11316F088230CF02FC0E0913D0180918B01982F3D
S11317009F5F90938B01ED5F8E0FE82FF0E0E55C17
S1131710FE4F808120918201309183012827922FEE
S113172092959227092E969596959025092E969531
S113173090259770022E232F969507949795302D18
S113174029270694979530252927309383012093E0
S113175082012DC080918B01982F9F5F90938B0104
S1131760833009F12CF4882399F08130F9F415C001
S11317708B3019F08C30D1F402C08DE218C0809106
S11317808D0120913D019EEF921B90938B010FC020
S113179080918201909183010AC08091820190918D
S11317A08301892F04C072DC8AEA01C08AEA90E0CE
S11317B0986B55DC809187019091880196FF03C056
S11317C086E080938B01809187019091880194FF3A
S11317D007C060E070E0CB0189DE81E08093860180
S11317E0809187019091880195FF21C04FDC84E0AE
S11317F080938B011CC08CB581608CBD80E029DC9A
S1131800182F8CB58E7F8CBDE7CE90918C01E92F7B
S1131810F0E0E55CFE4F80839F5F90938C01F6CEF1
S1131820809187019091880190FD29CF2ECFFF915F
S1131830EF91DF91CF91BF91AF919F918F917F9164
S11318406F915F914F913F912F911F910F900FBE18
S11318500F901F901895219A0895E1E8F0E0808197
S1131860808310928000E4E6F0E0808188608083C9
S113187029980895CF92DF92EF92FF92CF93DF934E
S11318806B017C01E4E6F0E08081877F8083C114F2
S1131890D104E104F10411F0411102C0DEDF4DC0B6
S11318A0D42F4B3008F0DAE060E072E18AE790E090
S11318B0A7019601BDD0CC24CA94DC2C7601C20EBB
S11318C0D31EE41EF51EC114D10481E0E806F10420
S11318D058F0CD2CDE2CEF2CFF2481E0C81AD1085F
S11318E0E108F108C4E001C0C1E0ED2FF0E0ED5FD4
S11318F0FE4F208130E040E050E0C701B60198D0AF
S1131900D0928700C09286008091840090918500D7
S1131910A0E0B0E0C816D906EA06FB0620F4D0928F
S11319208500C0928400C061C09381003093890017
S11319302093880080E880938000DF91CF91FF900E
S1131940EF90DF90CF9008951F920F920FB60F92F1
S113195011242F933F934F935F938F939F93EF9310
S1131960FF934091C0005091C6004871809193014B
S113197090E001968F7799272091920130E0281703
S1131980390739F080939301FC01EA56FE4F5083E6
S113199001C042E040939101FF91EF919F918F919B
S11319A05F914F913F912F910F900FBE0F901F9019
S11319B018951F920F920FB60F9211248F939F9335
S11319C0EF93FF939091950180919401981779F08A
S11319D08091940190E001968F77992780939401E8
S11319E0FC01EA5EFD4F80818093C60005C0E1ECF6
S11319F0F0E080818F7D8083FF91EF919F918F91A3
S1131A000F900FBE0F901F90189597FB072E16F49A
S1131A10009406D077FD08D02DD007FC05D03EF405
S1131A20909581959F4F0895709561957F4F089586
S1131A30A1E21A2EAA1BBB1BFD010DC0AA1FBB1FCE
S1131A40EE1FFF1FA217B307E407F50720F0A21B40
S1131A50B30BE40BF50B661F771F881F991F1A94AD
S1131A6069F760957095809590959B01AC01BD01D7
S1131A70CF010895AA1BBB1B51E107C0AA1FBB1FBE
S1131A80A617B70710F0A61BB70B881F991F5A9506
S1131A90A9F780959095BC01CD010895FB01DC0167
S1131AA002C001900D9241505040D8F70895F89427
S1051AB0FFCF62
S1131AB2401F0000C864433228211D160B0208048B
S10D1AC20201086010093402560006
S9030000FC
