:1000000033C00000ADC300004AC0000048C000007B
:1000100046C0000044C0000042C0000082C0000092
:100020003EC000003CC000003AC0000038C00000E4
:1000300036C0000034C0000032C0000030C00000F4
:100040002EC000002CC00000F1C4000024C5000038
:1000500026C0000024C0000022C0000020C0000014
:100060001EC000001CC0000011241FBECFEFD8E04E
:10007000DEBFCDBF11E0A0E0B1E0E6E0FCE002C0F1
:1000800005900D92AC33B107D9F722E0ACE3B1E0B3
:1000900001C01D92A13AB207E1F768D0B2C5B0CF56
:1000A00088E48093B8000895ECEBF0E0108294EAC5
:1000B000908390819923ECF79091B900987F9830C4
:1000C000A1F48093BB0084E88093BC00ECEBF0E0EB
:1000D00080818823ECF79091B900987F983139F0AE
:1000E00081E0903429F480E0089581E0089580E073
:1000F00008958093BB0084E88093BC00ECEBF0E0B3
:1001000080818823ECF79091B900987F81E0983244
:1001100009F480E0089584E98093BC0008951AC52D
:1001200008951F920F920FB60F9211248F939F93F1
:10013000AF93BF9380913C0190913D01A0913E010E
:10014000B0913F010196A11DB11D80933C01909398
:100150003D01A0933E01B0933F01BF91AF919F91AC
:100160008F910F900FBE0F901F901895EAE7F0E067
:1001700080818F77808378942FEF8BE792E92150ED
:1001800080409040E1F700C0000080E190E0AFD4F3
:1001900080E091E0DFD42FEF83ED90E321508040A9
:1001A0009040E1F700C000007BDF73D084E091E075
:1001B000B6DF2FEF83ED90E3215080409040E1F7D0
:1001C00000C000004EE062E082E045D28BE091E0AA
:1001D000A6DF2FEF83ED90E3215080409040E1F7C0
:1001E00000C00000C8E4D1E000E08CE191E0B2D4AE
:1001F000CAD0882389F180918D0190918E01892B3D
:10020000C9F02AC0102FE12FF0E0E75BFE4F80819C
:1002100087D41F5F88811817B0F382E291E09AD4E7
:100220002FEF89EF90E0215080409040E1F700C02F
:100230000000DBCF87E291E08DD4888171D42FEF6D
:1002400089EF90E0215080409040E1F700C000002D
:1002500088818111D7CFE1CF8DE291E07BD42FEF60
:1002600081EE94E0215080409040E1F700C0000012
:1002700083B7817F83BF83B7816083BF83B781608A
:1002800083BF889583B78E7F83BF83E391E062D479
:10029000ACCF80E809DF80E82CDF80E82ADF82E04D
:1002A00028DF81E026DF81E024DF81E022DF81E0BA
:1002B00020DF81E01EDF81E01CDF81E01ADF81E0CA
:1002C00018DF81E016DF81E014DF81E012DF81E0DA
:1002D00010DF81E00EDF81E00CDF81E00ADF81E0EA
:1002E00008DF8FEF06DF80E004DF8AEA02DF8AEAB8
:1002F00000DF8AEAFEDE8AEAFCDE0DCFE898089588
:10030000E89A08958EBD0DB407FEFDCF8EB5089511
:100310001F93CF93DF93182FC92FF0DF2A988C2FCC
:10032000F1DFD82F80E0C82F812FECDFC82B2A9A6D
:10033000E7DF8C2F9D2FDF91CF911F910895809142
:100340009401909195018F70909395018093940101
:10035000809194019091950188609093950180938C
:1003600094018091940190919501D2CF84B18C62D7
:1003700084B92A9A249880E58CBD8DB581608DBDA5
:1003800052985A9A089580919601873009F051C089
:10039000809199018823A1F090919701981728F4F2
:1003A00080919701873408F444C084E080939601DB
:1003B00081E090E090938E0180938D0181E008951B
:1003C000209197018091480130E090E00596281730
:1003D000390724F480919701873458F184E08093A1
:1003E000960180914801833430F081E090E0909351
:1003F0008E0180938D018091470186FF0BC0809113
:100400009A01982F9F719F3129F090914701892778
:100410008F7179F480918D0190918E01892B09F073
:1004200055C0E0914001F0914101309709F04AC078
:100430004DC080919601843009F042C0109248016D
:10044000109297018FEF9FEF90938E0180938D0113
:10045000209198012223D9F08227282F229528273E
:10046000022E269526952025022E269520252770DA
:10047000082E892F269507942795902D822706947C
:1004800027959025822790938E0180938D0187E098
:100490008093960181E08093900183EA94E938DFAC
:1004A0008091940190919501886D9093950180932E
:1004B000940180919401909195012ADF80E0089544
:1004C00080E0089580E0099581E008958FEF9FEF27
:1004D000DC018093420190934301A0934401B093C7
:1004E000450181E00895CF92DF92EF92FF920F9342
:1004F0001F93CF93C82F082F10E0C801966C08DF18
:10050000CF772C2F30E02F5F3F4F442737FD4095AA
:10051000542F6BEF72E485E090E03DD369017A01DE
:10052000C801880F892F881F990B8C01000F111F9C
:10053000000F111F000F111F081B190B0F5F1F4F1A
:100540009801442737FD4095542FC701B60123D3A6
:10055000DA01C901689412F8B695A7959795879521
:100560001694D1F7BC01CD016D577C4F8F4F9F4F33
:1005700024E833E040E050E00ED320938F01CF9188
:100580001F910F91FF90EF90DF90CF900895811110
:1005900003C01092990108958F5F80939901089587
:1005A000E89AE9E6F0E080818D7F80830895CF931B
:1005B000DF93D62FC42F80939A01409398016093C4
:1005C0009B01EEDF80E0E3DF99DE25E032E8309347
:1005D000950120939401809194019091950198DE6A
:1005E00020E1D29FC0011124876C906891DE80E4E5
:1005F00096EA8EDE86E077DF82EA94E989DE8CEA8D
:1006000092EC86DECC2341F083E89AEC81DE8C2FDD
:1006100090E09E6C7DDE06C08BE89AEC79DE8DE280
:100620009EEC76DE83E894EC73DE80E598E970DE7C
:1006300087E79CEC6DDE80E090EE6ADE80E098EC6F
:1006400067DE89E490EC64DE84E08093960158DEF6
:10065000DF91CF9108951F93CF93DF93C82FD62FAB
:10066000142F80939A014093980160939B017EDE42
:1006700097DF82E89AEC4CDE80E09EEF49DE85E071
:100680008093960183B7817F83BF809196018530E7
:1006900059F493B7916093BF889593B79E7F93BFAA
:1006A000909196019530A9F3412F6D2F8C2F7FDF0C
:1006B00080919A01DF91CF911F910895CF92DF929F
:1006C000EF92FF92CF936B017C018FEFC816D1049C
:1006D000E104F10479F070F0C0E0CF5FF694E794A4
:1006E000D794C7948FEFC816D104E104F10409F040
:1006F000A0F701C0C0E0809194019091950181FF25
:100700000EC080919401909195018D7F90939501F9
:10071000809394018091940190919501F9DDC11429
:10072000D104E104F104B1F03C2F20E0D701C6016F
:10073000906E822B932BECDD80919401909195012A
:10074000826090939501809394018091940190919F
:100750009501DEDDCF91FF90EF90DF90CF9008956F
:100760001F920F920FB60F9211241F932F933F9356
:100770004F935F936F937F938F939F93AF93BF93A9
:10078000CF93DF93EF93FF93B9DD2A9880E0BADD32
:10079000D82F80E0C82FB6DDC82BDD232CF4809144
:1007A0009601873009F412C12A9AAADDD0939301E9
:1007B000C0939201209192013091930133230CF068
:1007C000E1C080919601873009F078C0809197014F
:1007D000811104C080919801811102C1809197011B
:1007E000E82FF0E0EA5BFE4F10838F5F8093970164
:1007F00020918D0130918E012127122F1295122701
:10080000012E169516951025012E16951025177098
:10081000022E232F169507941795302D2127069425
:1008200017953025212730938E0120938D01E0917B
:100830009001E33018F58091970190E00297609164
:100840008F0170E095D1892B09F4D5C017C0F0E075
:10085000E85CFE4F80818F7006C0F0E0E85CFE4FE0
:10086000808182958F7080939001833038F490E07E
:10087000880F991F0196806A94694ADD80919901D9
:10088000882359F090919701981728F48091970147
:10089000873408F477C053DD75C0209197018091AB
:1008A000480130E090E00596281739072CF4809134
:1008B0009701873408F466C042DD64C080919601D8
:1008C00088230CF02FC0E091480180919601982F69
:1008D0009F5F90939601ED5F8E0FE82FF0E0EA5B4B
:1008E000FE4F808120918D0130918E012827922F1B
:1008F00092959227092E969596959025092E969574
:1009000090259770022E232F969507949795302D5A
:100910002927069497953025292730938E01209317
:100920008D012DC080919601982F9F5F9093960125
:10093000833009F12CF4882399F08130F9F415C043
:100940008B3019F08C30D1F402C08DE218C0809148
:100950009801209148019EEF921B909396010FC041
:1009600080918D0190918E010AC080918D019091AE
:100970008E01892F04C0E3DC8AEA01C08AEA90E094
:10098000986BC6DC809192019091930196FF03C011
:1009900086E080939601809192019091930194FF5B
:1009A00007C060E070E0CB0189DE81E080939101B7
:1009B000809192019091930195FF04C0C0DC84E086
:1009C0008093960183B78E7F83BF1CC08CB58160F6
:1009D0008CBD80E097DC182F8CB58E7F8CBDE4CE6B
:1009E00090919701E92FF0E0EA5BFE4F80839F5FD3
:1009F00090939701F3CE809192019091930190FD95
:100A000026CF2BCFFF91EF91DF91CF91BF91AF9187
:100A10009F918F917F916F915F914F913F912F9116
:100A20001F910F900FBE0F901F9018951F920F925D
:100A30000FB60F9211242F933F934F935F938F9391
:100A40009F93EF93FF934091C0005091C60048716F
:100A500080919E0190E001968F77992720919D01CA
:100A600030E02817390739F080939E01FC01EF55DB
:100A7000FE4F508301C042E040939C01FF91EF91F3
:100A80009F918F915F914F913F912F910F900FBE4A
:100A90000F901F9018951F920F920FB60F9211246E
:100AA0008F939F93EF93FF939091A00180919F016B
:100AB000981779F080919F0190E001968F779927A0
:100AC00080939F01FC01EF5DFD4F80818093C60004
:100AD00005C0E1ECF0E080818F7D8083FF91EF9194
:100AE0009F918F910F900FBE0F901F9018951092AD
:100AF000A00110929F0110929E0110929D019923D6
:100B000024F422E02093C0009F779093C500809347
:100B1000C40088E98093C10086E08093C2000895F4
:100B20006091A00170E06F5F7F4F6F777727AB0117
:100B300020919F0130E024173507D1F3FB01EF5DD1
:100B4000FD4F80836093A001E1ECF0E08081806242
:100B500080830895CF93DF93EC018881882329F067
:100B60002196DEDF89918111FCCFDF91CF9108952D
:100B700097FB072E16F4009406D077FD08D02DD0F1
:100B800007FC05D03EF4909581959F4F0895709590
:100B900061957F4F0895A1E21A2EAA1BBB1BFD0190
:100BA0000DC0AA1FBB1FEE1FFF1FA217B307E4074C
:100BB000F50720F0A21BB30BE40BF50B661F771FA4
:100BC000881F991F1A9469F7609570958095909584
:100BD0009B01AC01BD01CF010895AA1BBB1B51E1D4
:100BE00007C0AA1FBB1FA617B70710F0A61BB70B9D
:100BF000881F991F5A95A9F780959095BC01CD0142
:060C00000895F894FFCFF7
:100C06006B616B00504341206F6B006765696E69CD
:100C16007469616C69736565727421005748494C43
:100C2600450053544F5000444154412100736C65B4
:0C0C360065700057414B45003402560029
:00000001FF
