S01100004F4E5456414E4745522E737265635F
S113000033C0000041C000003FC000003DC00000FC
S11300103BC0000039C0000037C0000081C00000B0
S113002033C0000031C000002FC000002DC000000C
S11300302BC0000029C0000027C0000025C000001C
S113004023C0000021C000001FC000001DC000002C
S11300501BC0000019C0000017C0000015C000003C
S113006013C0000011C0000011241FBECFEFD8E060
S1130070DEBFCDBF21E0A0E0B1E001C01D92A430FD
S1130080B207E1F772D0E4C0BBCF88E48093B80034
S11300900895ECEBF0E0108294EA90839081992328
S11300A0ECF79091B900987F9830A1F48093BB004D
S11300B084E88093BC00ECEBF0E080818823ECF7CB
S11300C09091B900987F983139F081E0903429F407
S11300D080E0089581E0089580E008958093BB0056
S11300E084E88093BC00ECEBF0E080818823ECF79B
S11300F09091B900987F81E0983209F480E00895E6
S113010084E98093BC00089582E08093B00094E079
S11301109093B100809370008AEF8093B3000895A8
S11301201F920F920FB60F9211248F939F93AF9348
S1130130BF938091000190910101A0910201B091BF
S113014003010196A11DB11D80930001909301014B
S1130150A0930201B0930301BF91AF919F918F913E
S11301600F900FBE0F901F9018957894CDDF8DDF00
S113017029D0D0E010E024C08FE99FE00197F1F787
S113018000C000006C2F8D2F52D0CF5FCF3FA1F75E
S11301909FEF21EE84E0915020408040E1F700C0C1
S11301A000008FE99FE00197F1F700C000006C2F79
S11301B08D2F3DD0C150A9F7DF5FD03108F0D12F8A
S11301C0C12FDACF80E865DF80E888DF80E886DF4A
S11301D082E084DF81E082DF81E080DF81E07EDF16
S11301E081E07CDF81E07ADF81E078DF81E076DF27
S11301F081E074DF81E072DF81E070DF81E06EDF37
S113020081E06CDF81E06ADF81E068DF81E066DF46
S113021081E064DF8FEF62DF80E060DF8AEA5EDF27
S11302208AEA5CDF8AEA5ADF8AEA58DF69CFCF9329
S1130230DF93D82FC62F80E82CDF8D2F8E5F806848
S11302404DDF8C2F4BDF5CDF81E0DF91CF91089590
S1070250F894FFCF4C
S9030000FC
