:10000000C3C200000C947B0ADBC20000D9C200000E
:10001000D7C20000D5C20000D3C20000EAC600006B
:10002000CFC20000CDC20000CBC20000C9C2000098
:10003000C7C20000C5C2000050C30000C1C200001A
:10004000BFC20000BDC200000C944D0C0C94820C89
:10005000B7C20000B5C20000B3C20000B1C20000C8
:10006000AFC20000ADC200000C0B0A0F0E0D070856
:1000700009020100DC050000F4010000000000009E
:10008000C8000000B0040000F401000000000000FF
:10009000E8030000DC050000F4010000000000009F
:1000A000C8000000B0040000F401000000000000DF
:1000B000DC050000E803000028000000EE0200005C
:1000C00028000000E803000028000000EE02000005
:1000D00028000000E803000028000000EE020000F5
:1000E00028000000E803000028000000EE020000E5
:1000F00028000000E803000028000000EE020000D5
:1001000028000000E803000028000000EE020000C4
:1001100028000000E803000028000000EE020000B4
:1001200028000000E803000028000000EE020000A4
:1001300028000000E803000028000000EE02000094
:1001400028000000E803000028000000EE02000084
:1001500028000000E803000028000000EE02000074
:1001600028000000E803000028000000EE02000064
:1001700028000000E803000028000000EE02000054
:1001800028000000E803000028000000EE02000044
:1001900028000000E803000028000000EE02000034
:1001A0002800000000000000E8030000E803000051
:1001B00028000000EE02000028000000E803000014
:1001C00028000000EE02000028000000E803000004
:1001D00028000000EE02000028000000E8030000F4
:1001E00028000000EE02000028000000E8030000E4
:1001F00028000000EE02000028000000E8030000D4
:1002000028000000EE02000028000000E8030000C3
:1002100028000000EE02000028000000E8030000B3
:1002200028000000EE02000028000000E8030000A3
:1002300028000000EE02000028000000E803000093
:1002400028000000EE02000028000000E803000083
:1002500028000000EE02000028000000E803000073
:1002600028000000EE02000028000000E803000063
:1002700028000000EE02000028000000E803000053
:1002800028000000EE02000028000000E803000043
:1002900028000000EE02000028000000000000001E
:1002A000E8030000E803000028000000EE02000060
:1002B00028000000E803000028000000EE02000013
:1002C00028000000E803000028000000EE02000003
:1002D00028000000E803000028000000EE020000F3
:1002E00028000000E803000028000000EE020000E3
:1002F00028000000E803000028000000EE020000D3
:1003000028000000E803000028000000EE020000C2
:1003100028000000E803000028000000EE020000B2
:1003200028000000E803000028000000EE020000A2
:1003300028000000E803000028000000EE02000092
:1003400028000000E803000028000000EE02000082
:1003500028000000E803000028000000EE02000072
:1003600028000000E803000028000000EE02000062
:1003700028000000E803000028000000EE02000052
:1003800028000000E803000028000000EE02000042
:100390002800000000000000E8030000000000004A
:1003A000000000000000000000000000000000004D
:1003B00000000000D00700002C0100000000000039
:1003C0002C010000D00700002C01000000000000FC
:1003D0002C010000D00700002C01000000000000EC
:1003E0002C010000D00700002C01000000000000DC
:1003F0002C010000D00700002C01000000000000CC
:100400002C010000D00700002C01000000000000BB
:100410002C010000D00700002C01000000000000AB
:100420002C010000D00700002C010000000000009B
:100430002C010000BF0400002C010000A5050000F5
:100440002C0100001C0700002C010000A505000085
:100450002C010000BF0400002C010000A5050000D5
:100460002C0100001C0700002C010000A505000065
:100470002C01000000000000E8030000FFFFFFFF68
:10048000C800000000000000C8000000FFFFFFFFE0
:10049000C800000000000000C8000000FFFFFFFFD0
:1004A000C800000000000000C8000000FFFFFFFFC0
:1004B000C800000000000000C800000000FF00FFAE
:1004C00032000000000000003200000000FF00FFCA
:1004D00032000000000000003200000000FF00FFBA
:1004E000320000000000000032000000FF00FF00AA
:1004F000320000000000000032000000FF00FF009A
:10050000320000000000000032000000FF00FF0089
:1005100032000000000000003200000000FF00FF79
:1005200032000000000000003200000000FF00FF69
:1005300032000000000000003200000000FF00FF59
:10054000320000000000000032000000FF00FF0049
:10055000320000000000000032000000FF00FF0039
:10056000320000000000000032000000FF00FF0029
:100570003200000000000000320000003DF50000E5
:10058000B8F5FF0000FFFF0011241FBECFEFD8E039
:10059000DEBFCDBF11E0A0E0B1E0E6E8FAE102C0C5
:1005A00005900D92A035B107D9F722E0A0E5B1E0A2
:1005B00001C01D92AB3CB207E1F7B4D00C94410DE1
:1005C0001FCD88E48093B8000895ECEBF0E0108232
:1005D00094EA908390819923ECF79091B900987FE9
:1005E0009830A1F48093BB0084E88093BC00ECEBCE
:1005F000F0E080818823ECF79091B900987F9831E2
:1006000039F081E0903429F480E0089581E0089584
:1006100080E008958093BB0084E88093BC00ECEBFD
:10062000F0E080818823ECF79091B900987F81E019
:10063000983209F480E0089584EC8093BC00ECEBE0
:10064000F0E080818823ECF78091BB00089584E975
:100650008093BC0008950C94E10C089582E084BD61
:1006600093E095BD80936E008AEF87BD08950F9348
:100670001F938FB7F8940091500110915101209170
:100680005201309153018FBF602F712F822F932F12
:100690001F910F910895E4E6F0E080818F7D8083C3
:1006A000EEE6F0E08081826080830895EEE6F0E07F
:1006B00080818D7F8083E4E6F0E0808180628083AA
:1006C00008958FB7F8941092500110925101109232
:1006D0005201109253018FBF08951F920F920FB6CF
:1006E0000F9211248F939F93AF93BF9380915001EA
:1006F00090915101A0915201B09153010196A11D19
:10070000B11D8093500190935101A0935201B09379
:100710005301BF91AF919F918F910F900FBE0F909A
:100720001F901895EAE7F0E080818F7780837894B6
:1007300095DF2FEF8BE792E9215080409040E1F761
:1007400000C000000E94DE0B82E08093B00085E0D4
:100750008093B1008DE78093B30080E190E00E9428
:10076000AE0C8EE091E00E94E10CEFEFF3ED20E3A0
:10077000E150F0402040E1F700C0000022DFABD3A1
:100780008FEFEFD38FEF93EDE0E381509040E040A7
:10079000E1F700C0000080E0E4D381E0F2D382E121
:1007A00091E059DFFFEF23ED80E3F15020408040DE
:1007B000E1F700C000004EE062E082E017D689E178
:1007C00091E049DF9FEFE3EDF0E39150E040F0402E
:1007D000E1F700C000000F2EF5E44F2EF1E05F2E90
:1007E000F02D812C912C682C792C0F2EF0E7AF2E58
:1007F000B12CF02D1DD4882309F4C0C08091B7011D
:100800009091B801892B09F4B3C0B8C0E1E7F1E0D9
:10081000808188230CF0BDC00EC0E1E7F1E080814B
:100820008F71806C40E0B40159D581E065D586E2D6
:1008300091E00E94E10C8DE291E00E94E10CE3E77F
:10084000F1E02080822D0E94C70CC22DC07124FED1
:100850000AC082E391E00E94E10C80916901822943
:10086000809369010BC088E391E00E94E10C822D26
:100870008095909169018923809369018091690134
:100880000E94C70C3FB6F89420916901822F8F70A7
:1008900009F465C08091650190916601A09167019E
:1008A000B0916801892B8A2B8B2BF9F423FD0CC0A6
:1008B00022FD06C021FD06C020FF0BC083E005C05D
:1008C00081E003C082E001C080E0809364018093F6
:1008D0005901F7DEE0DEF50180818260808380E0EF
:1008E00050D3CC2309F45CC022C0C11120C07201D6
:1008F0008401F70121917F01222199F0C62DD72D86
:100900006801CC0CDD1CC00ED11EF601EC0FFD1FE2
:10091000E859FF4F849160E013D32196C330D1058D
:10092000A1F70F5F1F4F0430110519F739C09FDE83
:100930000091000110910101209102013091030109
:10094000DC01CB01800F911FA21FB31F80936501B3
:1009500090936601A0936701B093680121C0109243
:10096000650110926601109267011092680118C02B
:10097000E1E7F1E0808185FD49CF5DCF83B7817FDD
:1009800083BF83B7816083BF889583B78E7F83BF22
:1009900031CFE1E7F1E0808186FF3FCF80E842CFB1
:1009A0003FBE28CFEF920F931F9380915F019091EC
:1009B0006001A0916101B0916201892B8A2B8B2B80
:1009C00081F055DE00915F0110916001209161017D
:1009D00030916201601771078207930708F4FFC026
:1009E000EFD680916401811132C0E0916301F0E0A3
:1009F000EE0FFF1FEE0FFF1FEE0FFF1FEC58FF4F14
:100A00006591749180E090E0E12C00E010E09801A5
:100A10004AE0DED62CDEE0916301F0E0EE0FFF1F2E
:100A2000EE0FFF1FEE0FFF1FE858FF4F2591349187
:100A3000DC01CB01820F931FA11DB11D80935F01CB
:100A400090936001A0936101B09362019BC08130DB
:100A500091F5E0916301F0E0EE0FFF1FEE0FFF1F35
:100A6000EE0FFF1FEC54FF4F6591749180E090E012
:100A7000E12C00E010E098014AE0AAD6F8DDE09110
:100A80006301F0E0EE0FFF1FEE0FFF1FEE0FFF1FE1
:100A9000E854FF4F25913491DC01CB01820F931F65
:100AA000A11DB11D80935F0190936001A09361012E
:100AB000B093620167C0823091F5E0916301F0E08C
:100AC000EE0FFF1FEE0FFF1FEE0FFF1FEC54FC4F4A
:100AD0006591749180E090E0E12C00E010E09801D5
:100AE0004AE076D6C4DDE0916301F0E0EE0FFF1F2F
:100AF000EE0FFF1FEE0FFF1FE854FC4F25913491BE
:100B0000DC01CB01820F931FA11DB11D80935F01FA
:100B100090936001A0936101B093620133C0833070
:100B200089F5E0916301F0E0EE0FFF1FEE0FFF1F6C
:100B3000EE0FFF1FEC5CFB4F6591749180E090E03D
:100B4000E12C00E010E098014AE042D690DDE0910F
:100B50006301F0E0EE0FFF1FEE0FFF1FEE0FFF1F10
:100B6000E85CFB4F25913491DC01CB01820F931F90
:100B7000A11DB11D80935F0190936001A09361015D
:100B8000B09362015091630140916401252F30E0E0
:100B9000E42FF0E0E75BFE4F808190E0019728179B
:100BA0003907D4F020916901922F9F7030E04F5F98
:100BB000443009F4432FE42FF0E0EB5BFE4F8081DB
:100BC000911103C04093640104C0822381F34093D8
:100BD00064011092630103C05F5F509363011F9132
:100BE0000F91EF9008950F931F93CF93DF93809110
:100BF0005A0190915B01A0915C01B0915D01892B3C
:100C00008A2B8B2B09F448C032DD00915A011091D8
:100C10005B0120915C0130915D01601771078207D3
:100C2000930708F039C03BC080915E01FE0198E057
:100C3000899FE00DF11D1124E458FB4F64918C2F26
:100C40008D5F7ED12196C430D10571F710DD4091C2
:100C50005E01E42FF0E0EE0FFF1FEE0FFF1FEE0F1F
:100C6000FF1FE058FB4F25913491DC01CB01820F2F
:100C7000931FA11DB11D80935A0190935B01A09316
:100C80005C01B0935D014F3119F410925E0107C011
:100C90004F5F40935E0103C0C0E0D0E0C5CFDF915D
:100CA000CF911F910F9108950F931F93CF93DF93CF
:100CB0008091540190915501A0915601B091570136
:100CC000892B8A2B8B2B79F0D2DC00915401109167
:100CD0005501209156013091570160177107820725
:100CE000930708F481C020915801222319F02B307A
:100CF00021F512C0BCDCDC01CB0188519C4FAF4F09
:100D0000BF4F8093540190935501A0935601B09327
:100D10005701CFEFD0E025C0AADCDC01CB01019662
:100D2000A11DB11D8093540190935501A0935601CC
:100D3000B0935701CFEFD0E014C037EE3203E0019B
:100D40001124C650DF4F93DCDC01CB01C296A11DFC
:100D5000B11D8093540190935501A0935601B09317
:100D6000570100E010E08091590190E09C01220FB2
:100D7000331F820F931F800F911FFC01E458FA4F1D
:100D80004491FC01E859FF4F84914C9F90014D9F85
:100D9000300D1124632FD4D00F5F1F4F0330110586
:100DA00011F7809158018B30E1F410925801309185
:100DB0006901232F2F708091590140E08F5F8430AB
:100DC00009F4842FE82FF0E0EB5BFE4F90812111B6
:100DD00003C08093590108C0932381F38093590184
:100DE00003C08F5F80935801DF91CF911F910F91C6
:100DF00008951F920F920FB60F9211240F931F9315
:100E00002F933F934F935F936F937F938F939F9312
:100E1000AF93BF93EF93FF932ADC0091650110918C
:100E200066012091670130916801601771078207A0
:100E3000930720F4012B022B032BB9F58DE391E0EE
:100E4000C0D534DCBDD4E0E7F0E080818D7F8083C5
:100E50001092630110925F01109260011092610183
:100E60001092620110925E0110925A0110925B0181
:100E700010925C0110925D01109258011092540181
:100E8000109255011092560110925701109269016B
:100E9000109265011092660110926701109268012C
:100EA00080E05FD081E06DD003C07CDD9CDEFCDEA5
:100EB000FF91EF91BF91AF919F918F917F916F9132
:100EC0005F914F913F912F911F910F910F900FBE06
:100ED0000F901F90189580E878DB80E89BDB80E816
:100EE00099DB82E097DB81E095DB81E093DB81E0B9
:100EF00091DB81E08FDB81E08DDB81E08BDB81E0CA
:100F000089DB81E087DB81E085DB81E083DB81E0D9
:100F100081DB81E07FDB81E07DDB81E07BDB81E0E9
:100F200079DB81E077DB8FEF75DB80E073DB8AEACA
:100F300071DB8AEA6FDB8AEA6DDB8AEA6BDB87CBDF
:100F4000CF93DF93D82FC62F80E83FDB8D2F8E5FA6
:100F5000806860DB8C2F5EDB7ADB81E0DF91CF91F4
:100F60000895CF93DF93D82F80E82FDB82E852DB00
:100F7000C0E18D2F4FDBC150E1F769DBDF91CF91ED
:100F80000895CF93C82F81E820DB80E843DB54DB52
:100F9000CC2311F0806101C08F7E3CDBC82F57DB72
:100FA0008C2FCF910895E8980895E89A08958EBD02
:100FB0000DB407FEFDCF8EB508951F93CF93DF9339
:100FC000182FC92FF0DF2A988C2FF1DFD82F80E05F
:100FD000C82F812FECDFC82B2A9AE7DF8C2F9D2F9B
:100FE000DF91CF911F9108958091BE019091BF0133
:100FF0008F709093BF018093BE018091BE0190914C
:10100000BF0188609093BF018093BE018091BE01B3
:101010009091BF01D2CF84B18C6284B92A9A24986E
:1010200080E58CBD8DB581608DBD52985A9A08952A
:101030008091C001873009F051C08091C30188239D
:10104000A1F09091C101981728F48091C1018734D3
:1010500008F444C084E08093C00181E090E0909364
:10106000B8018093B70181E008952091C10180917A
:10107000720130E090E005962817390724F480913A
:10108000C101873458F184E08093C00180917201DE
:10109000833430F081E090E09093B8018093B70101
:1010A0008091710186FF0BC08091C401982F9F71C0
:1010B0009F3129F09091710189278F7179F4809186
:1010C000B7019091B801892B09F055C0E0916A01F0
:1010D000F0916B01309709F04AC04DC08091C0017A
:1010E000843009F042C0109272011092C1018FEF5A
:1010F0009FEF9093B8018093B7012091C201222302
:10110000D9F08227282F22952827022E269526956A
:101110002025022E269520252770082E892F26951A
:1011200007942795902D822706942795902582274E
:101130009093B8018093B70187E08093C00181E06C
:101140008093BA0183EA94E938DF8091BE019091DF
:10115000BF01886D9093BF018093BE018091BE0155
:101160009091BF012ADF80E0089580E0089580E03B
:10117000099581E008958FEF9FEFDC0180936C016A
:1011800090936D01A0936E01B0936F0181E008957B
:10119000CF92DF92EF92FF920F931F93CF93C82FBE
:1011A000082F10E0C801966C08DFCF772C2F30E0B5
:1011B0002F5F3F4F442737FD4095542F6BEF72E46C
:1011C00085E090E01FD469017A01C801880F892F5A
:1011D000881F990B8C01000F111F000F111F000FAA
:1011E000111F081B190B0F5F1F4F9801442737FD74
:1011F0004095542FC701B60105D4DA01C90168949E
:1012000012F8B695A795979587951694D1F7BC01D6
:10121000CD016D577C4F8F4F9F4F24E833E040E066
:1012200050E0F0D32093B901CF911F910F91FF901F
:10123000EF90DF90CF900895811103C01092C30109
:1012400008958F5F8093C301089586FD05C0807E59
:101250009091C4019F71890F80937101E0916A019F
:10126000F0916B01309711F081E009958FEF9FEFBE
:101270009093B8018093B7018091B7019091B80124
:101280002091C2018227282F22952827022E2695F9
:1012900026952025022E269520252770082E892F99
:1012A000269507942795902D8227069427959025BB
:1012B00082279093B8018093B70188E08093C001A2
:1012C0008091BE019091BF0188639093BF0180938C
:1012D000BE018091BE019091BF016FCECF93C82F08
:1012E0004093720123E731E050E0822F932FC0D367
:1012F0008C2FABDFCF91089544E030E05CE016C066
:101300008823A1F093B7917F833021F0823021F4BC
:10131000252F03C0242F01C0232F922B93BF93B7F7
:10132000916093BF889593B79E7F93BF9091C001C2
:10133000943031F70895E89AE9E6F0E080818D7FF6
:1013400080830895CF93DF93D62FC42F8093C40159
:101350004093C2016093C501EEDF80E06DDF23DEC4
:1013600025E032E83093BF012093BE018091BE0199
:101370009091BF0122DE20E1D29FC0011124876C31
:1013800090681BDE80E496EA18DE86E001DF82EAE0
:1013900094E913DE8CEA92EC10DECC2341F083E872
:1013A0009AEC0BDE8C2F90E09E6C07DE06C08BE87B
:1013B0009AEC03DE8DE29EEC00DE83E894ECFDDD2A
:1013C00080E598E9FADD87E79CECF7DD80E090EEB8
:1013D000F4DD80E098ECF1DD89E490ECEEDD84E072
:1013E0008093C001E2DDDF91CF9108951F93CF93E9
:1013F000DF93C82FD62F142F8093C4014093C201CE
:101400006093C50108DE97DF82E89AECD6DD80E0C4
:101410009EEFD3DD85E08093C00183B7817F83BFDA
:101420008091C001853059F493B7916093BF88953E
:1014300093B79E7F93BF9091C0019530A9F3412F40
:101440006D2F8C2F7FDF8091C401DF91CF911F9191
:101450000895CF92DF92EF92FF92CF936B017C01C0
:101460008FEFC816D104E104F10479F070F0C0E008
:10147000CF5FF694E794D794C7948FEFC816D10442
:10148000E104F10409F0A0F701C0C0E08091BE01C1
:101490009091BF0181FF0EC08091BE019091BF016C
:1014A0008D7F9093BF018093BE018091BE0190918A
:1014B000BF0183DDC114D104E104F104B1F03C2F7C
:1014C00020E0D701C601906E822B932B76DD8091B0
:1014D000BE019091BF0182609093BF018093BE01D5
:1014E0008091BE019091BF0168DDCF91FF90EF9098
:1014F000DF90CF9008951F920F920FB60F92112494
:101500001F932F933F934F935F936F937F938F938B
:101510009F93AF93BF93CF93DF93EF93FF9343DDFD
:101520002A9880E044DDD82F80E0C82F40DDC82B0A
:10153000DD232CF48091C001873009F40FC12A9A71
:1015400034DDD093BD01C093BC012091BC0130912A
:10155000BD0133230CF0E1C08091C001873009F058
:1015600078C08091C101811104C08091C2018111B4
:10157000FFC08091C101E82FF0E0E059FE4F1083D9
:101580008F5F8093C1012091B7013091B80121276D
:10159000122F12951227012E169516951025012E41
:1015A000169510251770022E232F16950794179560
:1015B000302D212706941795302521273093B80127
:1015C0002093B701E091BA01E33018F58091C10191
:1015D00090E002976091B90170E001D2892B09F483
:1015E000D2C017C0F0E0E35BFE4F80818F7006C071
:1015F000F0E0E35BFE4F808182958F708093BA01AB
:10160000833038F490E0880F991F0196806A9469BE
:10161000D4DC8091C301882359F09091C1019817BF
:1016200028F48091C101873408F477C0DDDC75C0EF
:101630002091C1018091720130E090E00596281759
:1016400039072CF48091C101873408F466C0CCDCE2
:1016500064C08091C00188230CF02FC0E09172011A
:101660008091C001982F9F5F9093C001ED5F8E0F16
:10167000E82FF0E0E059FE4F80812091B7013091D2
:10168000B8012827922F92959227092E9695969524
:101690009025092E969590259770022E232F9695CA
:1016A00007949795302D292706949795302529275B
:1016B0003093B8012093B7012DC08091C001982FBD
:1016C0009F5F9093C001833009F12CF4882399F037
:1016D0008130F9F415C08B3019F08C30D1F402C090
:1016E0008DE218C08091C201209172019EEF921B81
:1016F0009093C0010FC08091B7019091B8010AC0CA
:101700008091B7019091B801892F04C06DDC8AEAFD
:1017100001C08AEA90E0986B50DC8091BC01909106
:10172000BD0196FF03C086E08093C0018091BC019B
:101730009091BD0194FF07C060E070E0CB0189DEAD
:1017400081E08093BB018091BC019091BD0195FF28
:1017500021C04ADC84E08093C0011CC08CB581604C
:101760008CBD80E024DC182F8CB58E7F8CBDE7CE3D
:101770009091C101E92FF0E0E059FE4F80839F5F17
:101780009093C101F6CE8091BC019091BD0190FD76
:1017900029CF2ECFFF91EF91DF91CF91BF91AF91E4
:1017A0009F918F917F916F915F914F913F912F9179
:1017B0001F910F900FBE0F901F901895219A0895BA
:1017C000E1E8F0E0808180831092800029980895FC
:1017D000CF92DF92EF92FF92CF93DF936B017C0168
:1017E000611571058105910511F0411102C0E8DF15
:1017F0004DC0D42F4B3008F0DAE060E072E18AE7A8
:1018000090E0A7019601FED0CC24CA94DC2C76018E
:10181000C20ED31EE41EF51EC114D10481E0E806F9
:10182000F10458F0CD2CDE2CEF2CFF2481E0C81AF7
:10183000D108E108F108C4E001C0C1E0ED2FF0E0FB
:10184000ED5FFE4F208130E040E050E0C701B6017F
:10185000D9D0D0928700C092860080918400909168
:101860008500A0E0B0E0C816D906EA06FB0620F421
:10187000D0928500C0928400C061C09381003093F3
:1018800089002093880080E880938000DF91CF91C9
:10189000FF90EF90DF90CF9008951F920F920FB6B8
:1018A0000F9211242F933F934F935F938F939F93A6
:1018B000EF93FF934091C0005091C6004871809112
:1018C000C80190E001968F7799272091C70130E0F9
:1018D0002817390739F08093C801FC01E553FE4F02
:1018E000508301C042E04093C601FF91EF919F9168
:1018F0008F915F914F913F912F910F900FBE0F905D
:101900001F9018951F920F920FB60F9211248F936C
:101910009F93EF93FF939091CA018091C90198170B
:1019200079F08091C90190E001968F779927809393
:10193000C901FC01E55BFD4F80818093C60005C0B5
:10194000E1ECF0E080818F7D8083FF91EF919F91AA
:101950008F910F900FBE0F901F9018951092CA0193
:101960001092C9011092C8011092C701992324F462
:1019700022E02093C0009F779093C5008093C4001D
:1019800088E98093C10086E08093C2000895609149
:10199000CA0170E06F5F7F4F6F777727AB012091AF
:1019A000C90130E024173507D1F3FB01E55BFD4F9A
:1019B00080836093CA01E1ECF0E0808180628083E3
:1019C0000895CF93DF93EC018881882329F0219635
:1019D000DEDF89918111FCCFDF91CF91089597FBD4
:1019E000072E16F4009406D077FD08D02DD007FC02
:1019F00005D03EF4909581959F4F0895709561951F
:101A00007F4F0895A1E21A2EAA1BBB1BFD010DC03A
:101A1000AA1FBB1FEE1FFF1FA217B307E407F5079E
:101A200020F0A21BB30BE40BF50B661F771F881F7A
:101A3000991F1A9469F760957095809590959B0110
:101A4000AC01BD01CF010895AA1BBB1B51E107C02A
:101A5000AA1FBB1FA617B70710F0A61BB70B881F3E
:101A6000991F5A95A9F780959095BC01CD010895CD
:101A7000FB01DC0102C001900D9241505040D8F7AB
:061A80000895F894FFCF69
:101A8600204E0000C864433228211D160B026B61EC
:101A96006B00504341206F6B00696E697469616C1D
:101AA600697A6564210041434B2D4F4B00444154F4
:101AB600410053544152540053544F500053544F15
:101AC60050494E54000804020108601009340256B9
:00000001FF
