S01A00004953415F4F55444552454E5F5A454E4445522E7372656395
S113000034C00000ECC000006AC0000053C000000F
S113001051C000004FC000004DC00000BBC0000034
S113002049C0000047C0000045C0000043C00000B4
S113003041C000003FC000003DC000003BC00000C4
S113004039C0000037C0000080C50000B3C50000FF
S113005031C000002FC000002DC000002BC00000E4
S113006029C0000027C00000C60111241FBECFEF25
S1130070D8E0DEBFCDBF11E0A0E0B1E0EEE9FCE0E6
S113008002C005900D92A036B107D9F722E0A0E690
S1130090B1E001C01D92AA3BB207E1F710E0CAE645
S11300A0D0E003C02297FE01F4D5C836D107D1F7BA
S11300B0B9D0F3C5A5CFE9980895E99A089553985E
S11300C0E9E6F0E08081877F8083F7CF4B9906C013
S11300D081E08093000180936001EDCF08951F9229
S11300E00F920FB60F9211242F933F934F935F9368
S11300F06F937F938F939F93AF93BF93EF93FF93EC
S1130100E5DFFF91EF91BF91AF919F918F917F9127
S11301106F915F914F913F912F910F900FBE0F9070
S11301201F901895A6C5089582E08093B00093E0CF
S11301309093B100809370008AEF8093B300089588
S11301400F931F938FB7F89400916101109162018E
S113015020916301309164018FBF602F712F822F32
S1130160932F1F910F910895E4E6F0E080818F7B37
S11301708083E0E7F0E08081826080830895E0E797
S1130180F0E080818D7F8083E4E6F0E0808180640C
S1130190808308951F920F920FB60F9211248F93AC
S11301A09F93AF93BF938091610190916201A0915D
S11301B06301B09164010196A11DB11D8093610199
S11301C090936201A0936301B0936401BF91AF91D6
S11301D09F918F910F900FBE0F901F9018951F92B3
S11301E00F920FB60F9211242F933F934F935F9367
S11301F06F937F938F939F93AF93BF93EF93FF93EB
S1130200E5D0FF91EF91BF91AF919F918F917F9135
S11302106F915F914F913F912F910F900FBE0F906F
S11302201F901895EAE7F0E080818F7780837894B7
S11302307BDF2FEF89E698E1215080409040E1F781
S113024000C0000089E190E0E1D483E091E06ADF3E
S11302502FEF89E698E1215080409040E1F700C0FB
S113026000008CE091E05EDF2FEF89E698E12150F9
S113027080409040E1F700C000002EE043E066E5D6
S113028085E691E00CD287E091E04CDF2FEF89E620
S113029098E1215080409040E1F700C0000089E1DE
S11302A091E040DF2FEF89E698E1215080409040B3
S11302B0E1F700C0000003DF8AE291E033DF2FEFB3
S11302C089E698E1215080409040E1F700C00000A9
S11302D080916001882369F147DF80E391E022DFA8
S11302E08FE59AEE0197F1F700C000000F2EF2E3BC
S11302F0EF2EF02D02E022E041E051E062E085E6DD
S113030091E0D5D3882351F080E491E00BDF8FE5B1
S11303109AEE0197F1F700C0000009C087E491E06C
S113032001DF8FE59AEE0197F1F700C0000010920B
S113033060014B9B04C080910001813061F083B760
S1130340817F866083BF83B7816083BF889583B7CD
S11303508E7F83BFBDCF8EE491E0E4DE8FE59AEE1D
S11303600197F1F700C00000F89409DF1092000132
S1130370A4DE83B7817F846083BF83B7816083BF3A
S11303807894889583B78E7F83BFA2CF8DE591E063
S1130390909366018093650182E080936701809366
S11303A0680181E08093770110926A018FE1809364
S11303B06B0110926C01089584B18C6284B92A9AFD
S11303C0249880E58CBD52985A9A089580916D01C5
S11303D090916E01DC01ED91FC910190F081E02D92
S11303E0099508956EBD0DB407FEFDCF8EB5089531
S11303F0F8940895FDDF2A980895789408952A9A28
S1130400FCCF0F931F93CF93DF93EC01062F142F90
S1130410F1DF602FCE01E6DF612FCE01E3DF182F7D
S1130420CE01EDDF812FDF91CF911F910F910895C0
S11304300F931F93CF93DF93EC01062F142FDADF72
S1130440602F6068412FCE01DCDFCE01D8DFDF9161
S1130450CF911F910F910895CF93DF93EC01611118
S11304600AC004C06CE5CE01E3DF0AC045E56AE5D5
S1130470DFDF40E7F7CF4DE56AE5DADF4CE7F2CF9F
S1130480DF91CF9108951F93CF93DF93EC01162F43
S1130490B1DF40E0612FCE01B4DF182FCE01AFDF12
S11304A0812FDF91CF911F910895CF93DF93EC01BA
S11304B0662341F041E063E2BBDF63E2CE01E3DFA8
S11304C081FFFBCF64E2CE01DEDF282F30E03195DF
S11304D02195310935952795822F932FDF91CF915F
S11304E008951F93CF93DF93EC01162F809177012A
S11304F0861709F456C0623069F138F4662309F4AA
S11305003DC0613009F04DC02FC0633099F06430B4
S113051009F047C061E0CE01B6DF837E482F4C600E
S113052061E0CE0185DF8F81882381F161E0CE0116
S113053093DF2CC061E0CE01A6DF837E482F4061AB
S113054061E0CE0175DF8F81882301F160E0CE0187
S113055083DF1CC061E0CE0196DF837E482F4860B4
S113056061E0CE0165DF12C061E0CE018CDF837EE5
S1130570482F446061E0CE015BDF08C061E0CE013A
S113058082DF482F437E61E0CE0152DF8091770104
S1130590811105C067E2CE0176DF8823BCF7109392
S11305A07701DF91CF911F910895CF93DF93EC01F1
S11305B080917701833079F48091730181110DC0AA
S11305C060E0CE0172DF863A9F4F4CF461E0CE01C9
S11305D088DF81E005C080E003C080E001C080E0E6
S11305E0DF91CF910895CF93DF93EC0110927601C0
S11305F0109275011092740110927301109272019D
S1130600109271011092700110926F0168E23BDF49
S113061082FF08C06DE3CE0136DF482F44606DE3EE
S1130620CE0106DF40E465E2CE0102DF63E0CE01E5
S113063058DFDF91CF910895DF92EF92FF920F93ED
S11306401F93CF93DF938C017B0161E04ADFE114B8
S1130650F10481F0C801CEDE6EEBC801C3DEE70110
S1130660D12C6991C801BEDED39480E1D812F9CFB0
S1130670C801C5DE6DE3C80106DF8E7F91E0EF2877
S113068009F490E0482F492B6DE3C801D1DEDF91D6
S1130690CF911F910F91FF90EF90DF900895EF920B
S11306A0FF920F931F93CF93DF93CDB7DEB7AA9733
S11306B00FB6F894DEBF0FBECDBF8C01F42EFE0141
S11306C031968AE2DF011D928A95E9F781E08983F8
S11306D084E08A8392E09B8333E03D839E838F830F
S11306E08AE8888785E089878A8786E08B8783EC18
S11306F08C8787E08D8788E08F8789E0898B89E103
S11307008B8B92E49C8B85E28D8B80E48E8B89E2CB
S11307108F8B8CED888F8EE2898F88E88A8F8FE2A9
S11307208B8F8DE28C8F80E38D8F37E33F8F30E9A1
S113073038A338E339A39AA39CE39BA39FE89CA323
S11307409DE39DA392E19EA39FE69FA388A78FEFBD
S113075089A76F3109F453C06B3209F44CC0663574
S113076009F045C050C0888B2E8FC80125DE4AEAA7
S11307706FE2C8015DDE6FE2C80185DE8A3AB9F72F
S113078045E56FE2C80154DE6FE2C8017CDE8535C1
S1130790B9F769816F3FF1F080E090E0E12CFC0152
S11307A0EE0FFF1F21E030E02C0F3D1FE20FF31F7F
S11307B04181C8013DDEE3948E2D90E0FC01EE0FF3
S11307C0FF1FA1E0B0E0AC0FBD1FEA0FFB1F60816B
S11307D06F3F29F760E070E0C8012EDF61E0C801D7
S11307E080DE67E2C8014FDE8823DCF710C084EEA8
S11307F08E8780ECB8CF8CE68E8780E4B4CF8EE40D
S11308008E8780ECB0CF89ED8E8780E0ACCFE9E6AF
S1130810F0E0808183608083E89A10936E010093F6
S11308206D01F801F48281E0AA960FB6F894DEBF58
S11308300FBECDBFDF91CF911F910F91FF90EF902D
S11308400895FF920F931F93CF93DF93EC01809150
S11308507701833009F042C068E2CE0114DE82FFE2
S11308603DC061E0CE013DDECE01C4DD60E0CE01DD
S1130870B9DD60E0CE01B6DD809373018091730130
S1130880833418F48091730101C082E4809373016E
S113089060E0CE01A7DD809374018D8181112BC0AE
S11308A0809174019C81981731F1809174018F3F7C
S11308B0E9F421C0F12C0F2D10E060E0CE0192DDAF
S11308C0F801E858FE4F8083F39480917601F8167E
S11308D090F3CE0194DD63E0CE0103DE60E0CE014F
S11308E0E4DD9093700180936F011EC01092730138
S11308F0CE0185DD19C08091730183508093760108
S113090060E0CE016FDD8093750160E0CE016ADDA9
S1130910982F9078909371018074809372018091E4
S113092076018111C7CFD5CFDF91CF911F910F9160
S1130930FF900895BF92CF92DF92EF92FF920F93B0
S11309401F93CF93DF936C01C62FF42EB52E122F75
S113095061E0C7DD67E2C60196DD8823DCF740E08D
S113096065E2C60165DD1E3308F01DE3C60142DD04
S113097060E8C60137DD612F6D5FC60133DD6C2F82
S1130980C60130DDF6016481C6012CDDEE2031F0B4
S113099060E8C60127DD11110BC014C0002321F04B
S11309A060E4C6011FDDF7CF60E0C6011BDDF3CFB5
S11309B00F2DCF2DDB2D6991C60114DD8C2F801BEB
S11309C08117C8F3C6011BDD64E0C6018ADD4A9BBA
S11309D0FECF61E0C60185DDDF91CF911F910F91BC
S11309E0FF90EF90DF90CF90BF900895CF93DF9367
S11309F0EC01FEDC80917701833069F4809173010E
S1130A0081110EC008C0CE01F8DC80E00DC0CE011B
S1130A10EADD80E009C0809177018330C1F7F3CF2C
S1130A2061E0CE015EDD81E0DF91CF910895CF9347
S1130A30C62FDCDF882369F0809175018C1711F0D3
S1130A40CF3F49F49091710181E0911105C080E09C
S1130A5003C080E001C080E0CF910895CF92DF927F
S1130A60EF92FF920F931F93CF93DF93EC01162F16
S1130A706A01F22E6DE307DD482F44606DE3CE0179
S1130A80D7DC02C0CE01B2DFCE018FDD8823D1F3E3
S1130A90E12C2F2DA601612FCE014CDFDF91CF91E8
S1130AA01F910F91FF90EF90DF90CF9008953F92A8
S1130AB04F925F926F927F928F929F92AF92BF926A
S1130AC0CF92DF92EF92FF920F931F93CF93DF9316
S1130AD0EC01162F5A01922E302E812C4E2C512CC3
S1130AE0612C712C01E0292DA501612FCE01B6DF07
S1130AF027DB6B017C0105C0612FCE0198DF8111DA
S1130B0011C01EDBDC01CB018C199D09AE09BF09A4
S1130B1084159505A605B70578F38394381410F762
S1130B2080E001C081E0DF91CF911F910F91FF9090
S1130B30EF90DF90CF90BF90AF909F908F907F9079
S1130B406F905F904F903F9008951F920F920FB651
S1130B500F9211242F933F934F935F938F939F93FF
S1130B60EF93FF934091C0005091C600487180916B
S1130B70B70190E001968F7799272091B60130E074
S1130B802817390739F08093B701FC01E654FE4F6A
S1130B90508301C042E04093B501FF91EF919F91D2
S1130BA08F915F914F913F912F910F900FBE0F90B6
S1130BB01F9018951F920F920FB60F9211248F93C6
S1130BC09F93EF93FF939091B9018091B801981787
S1130BD079F08091B80190E001968F7799278093FE
S1130BE0B801FC01E65CFD4F80818093C60005C01E
S1130BF0E1ECF0E080818F7D8083FF91EF919F9104
S1130C008F910F900FBE0F901F9018951092B901FD
S1130C101092B8011092B7011092B601992324F4EE
S1130C2022E02093C0009F779093C5008093C40076
S1130C3088E98093C10086E08093C20008956091A2
S1130C40B90170E06F5F7F4F6F777727AB01209119
S1130C50B80130E024173507D1F3FB01E65CFD4F02
S1130C6080836093B901E1ECF0E08081806280834D
S1130C700895CF93DF93EC018881882329F021968E
S1130C80DEDF89918111FCCFDF91CF910895EE0FC2
S1110C90FF1F0590F491E02D0994F894FFCF16
S1130C9E01991855415254204F4B0D005246313292
S1130CAE20494E49542E2E2E00444F4F5242454C4D
S1130CBE4C20494E49542E2E2E00204F4B200D0011
S1130CCE53656E64205061636B6167652E2E2E0032
S1130CDE41434B204F4B004E4F2041434B000D5090
S1130CEE57525F444F574E0D000000000021040080
S9030000FC
