:1000000034C00000ECC000006AC0000053C0000013
:1000100051C000004FC000004DC00000BBC0000038
:1000200049C0000047C0000045C0000043C00000B8
:1000300041C000003FC000003DC000003BC00000C8
:1000400039C0000037C0000091C50000C4C50000E1
:1000500031C000002FC000002DC000002BC00000E8
:1000600029C0000027C00000C60111241FBECFEF29
:10007000D8E0DEBFCDBF11E0A0E0B1E0E0ECFCE0F5
:1000800002C005900D92A036B107D9F722E0A0E694
:10009000B1E001C01D92AA3BB207E1F710E0CAE649
:1000A000D0E003C02297FE0105D6C836D107D1F7AC
:1000B000B9D004C6A5CFE9980895E99A0895539850
:1000C000E9E6F0E08081877F8083F7CF4B9906C017
:1000D00081E08093000180936001EDCF08951F922D
:1000E0000F920FB60F9211242F933F934F935F936C
:1000F0006F937F938F939F93AF93BF93EF93FF93F0
:10010000E5DFFF91EF91BF91AF919F918F917F912B
:100110006F915F914F913F912F910F900FBE0F9074
:100120001F901895B7C5089582E08093B00093E0C2
:100130009093B100809370008AEF8093B30008958C
:100140000F931F938FB7F894009161011091620192
:1001500020916301309164018FBF602F712F822F36
:10016000932F1F910F910895E4E6F0E080818F7B3B
:100170008083E0E7F0E08081826080830895E0E79B
:10018000F0E080818D7F8083E4E6F0E08081806410
:10019000808308951F920F920FB60F9211248F93B0
:1001A0009F93AF93BF938091610190916201A09161
:1001B0006301B09164010196A11DB11D809361019D
:1001C00090936201A0936301B0936401BF91AF91DA
:1001D0009F918F910F900FBE0F901F9018951F92B7
:1001E0000F920FB60F9211242F933F934F935F936B
:1001F0006F937F938F939F93AF93BF93EF93FF93EF
:10020000E5D0FF91EF91BF91AF919F918F917F9139
:100210006F915F914F913F912F910F900FBE0F9073
:100220001F901895EAE7F0E080818F7780837894BB
:100230007BDF2FEF89E698E1215080409040E1F785
:1002400000C0000089E190E0F2D483E091E06ADF31
:100250002FEF89E698E1215080409040E1F700C0FF
:1002600000008CE091E05EDF2FEF89E698E12150FD
:1002700080409040E1F700C000002EE043E066E5DA
:1002800085E691E036D287E091E04CDF2FEF89E6FA
:1002900098E1215080409040E1F700C0000089E1E2
:1002A00091E040DF2FEF89E698E1215080409040B7
:1002B000E1F700C0000003DF8AE291E033DF2FEFB7
:1002C00089E698E1215080409040E1F700C00000AD
:1002D00080916001882369F147DF80E391E022DFAC
:1002E0008FE59AEE0197F1F700C000000F2EF8E2BB
:1002F000EF2EF02D05E022E041E051E062E085E6DE
:1003000091E0E6D3882351F080E491E00BDF8FE5A4
:100310009AEE0197F1F700C0000009C087E491E070
:1003200001DF8FE59AEE0197F1F700C0000010920F
:1003300060014B9B04C080910001813061F083B764
:10034000817F866083BF83B7816083BF889583B7D1
:100350008E7F83BFBDCF8EE491E0E4DE8FE59AEE21
:100360000197F1F700C00000F89409DF1092000136
:10037000A4DE83B7817F846083BF83B7816083BF3E
:100380007894889583B78E7F83BFA2CF8DE591E067
:10039000909366018093650182E08093670180936A
:1003A000680181E08093770110926A018FE1809368
:1003B0006B0110926C01089584B18C6284B92A9A01
:1003C000249880E58CBD52985A9A089580916D01C9
:1003D00090916E01DC01ED91FC910190F081E02D96
:1003E000099508952A9808952A9A08956EBD0DB426
:1003F00007FEFDCF8EB508950F931F93CF93DF9324
:10040000EC01062F142FEEDF602FCE01EFDF612FFE
:10041000CE01ECDF182FCE01E7DF812FDF91CF91E6
:100420001F910F9108950F931F93CF93DF93EC01CA
:10043000062F142FD7DF602F6068412FCE01DCDF3D
:10044000CE01D2DFDF91CF911F910F910895CF930D
:10045000DF93EC0161110AC004C06CE5CE01E3DF5B
:100460000AC045E56AE5DFDF40E7F7CF4DE56AE51D
:10047000DADF4CE7F2CFDF91CF9108951F93CF934E
:10048000DF93EC01162FAEDF612F6F7740E0CE01D6
:10049000B3DF182FCE01A8DF812FDF91CF911F91FD
:1004A0000895CF93DF93EC01662341F041E063E2CE
:1004B000BADF63E2CE01E2DF81FFFBCF64E2CE016F
:1004C000DDDF282F30E031952195310935952795CD
:1004D000822F932FDF91CF9108951F93CF93DF93B6
:1004E000EC01162F80917701861709F456C062300F
:1004F00069F138F4662309F43DC0613009F04DC05C
:100500002FC0633099F0643009F047C061E0CE013C
:10051000B5DF837E482F4C6061E0CE0184DF8F81A0
:10052000882381F161E0CE0192DF2CC061E0CE0131
:10053000A5DF837E482F406161E0CE0174DF8F81AB
:10054000882301F160E0CE0182DF1CC061E0CE01B2
:1005500095DF837E482F486061E0CE0164DF12C0E2
:1005600061E0CE018BDF837E482F446061E0CE01E5
:100570005ADF08C061E0CE0181DF482F437E61E091
:10058000CE0151DF80917701811105C067E2CE0174
:1005900075DF8823BCF710937701DF91CF911F910E
:1005A0000895CF93DF93EC0180917701833079F444
:1005B0008091730181110DC060E0CE0172DF863A37
:1005C0009F4F4CF461E0CE0188DF81E005C080E000
:1005D00003C080E001C080E0DF91CF910895CF9308
:1005E000DF93EC0110927601109275011092740164
:1005F00010927301109272011092710110927001A9
:1006000010926F0168E23ADF82FF08C06DE3CE010D
:1006100035DF482F44606DE3CE0105DF40E465E23D
:10062000CE0101DF63E0CE0158DFDF91CF91089565
:1006300020917701233051F42091730121110BC0D7
:1006400005C0CDDF80E0089580E008952091770116
:100650002330B9F7F9CF61E040DF81E00895CF930F
:10066000C62FE6DF882369F0809175018C1711F0A1
:10067000CF3F49F49091710181E0911105C080E074
:1006800003C080E001C080E0CF910895DF92EF9237
:10069000FF920F931F93CF93DF938C017B0161E057
:1006A0001CDFE114F10481F0C8019CDE6EEBC8018F
:1006B0009DDEE701D12C6991C80198DED39480E1D9
:1006C000D812F9CFC80190DE6DE3C801D7DE8E7F66
:1006D00091E0EF2809F490E0482F492B6DE3C80121
:1006E000A2DEDF91CF911F910F91FF90EF90DF90ED
:1006F0000895EF92FF920F931F93CF93DF93CDB79F
:10070000DEB7AA970FB6F894DEBF0FBECDBF8C013F
:10071000F42EFE0131968AE2DF011D928A95E9F7F7
:1007200081E0898384E08A8392E09B8333E03D8388
:100730009E838F838AE8888785E089878A8786E019
:100740008B8783EC8C8787E08D8788E08F8789E0B3
:10075000898B89E18B8B92E49C8B85E28D8B80E485
:100760008E8B89E28F8B8CED888F8EE2898F88E863
:100770008A8F8FE28B8F8DE28C8F80E38D8F37E3B2
:100780003F8F30E938A338E339A39AA39CE39BA3B6
:100790009FE89CA39DE39DA392E19EA39FE69FA358
:1007A00088A78FEF89A76F3109F453C06B3209F422
:1007B0004CC0663509F045C050C0888B2E8FC801EB
:1007C000FBDD4AEA6FE2C8012EDE6FE2C80156DEA9
:1007D0008A3AB9F745E56FE2C80125DE6FE2C80144
:1007E0004DDE8535B9F769816F3FF1F080E090E02B
:1007F000E12CFC01EE0FFF1F21E030E02C0F3D1F2C
:10080000E20FF31F4181C8010EDEE3948E2D90E0CC
:10081000FC01EE0FFF1FA1E0B0E0AC0FBD1FEA0F1F
:10082000FB1F60816F3F29F760E070E0C8012EDF99
:1008300061E0C80152DE67E2C80120DE8823DCF7F0
:1008400010C084EE8E8780ECB8CF8CE68E8780E473
:10085000B4CF8EE48E8780ECB0CF89ED8E8780E0B8
:10086000ACCFE9E6F0E0808183608083E89A109362
:100870006E0100936D01F801F48281E0AA960FB633
:10088000F894DEBF0FBECDBFDF91CF911F910F91C6
:10089000FF90EF900895FF920F931F93CF93DF93F4
:1008A000EC0180917701833009F042C068E2CE010B
:1008B000E5DD82FF3DC061E0CE010FDECE0192DDBD
:1008C00060E0CE0193DD60E0CE0190DD80937301A6
:1008D00080917301833418F48091730101C082E424
:1008E0008093730160E0CE0181DD809374018D817E
:1008F00081112BC0809174019C81981731F18091F6
:1009000074018F3FE9F421C0F12C0F2D10E060E05D
:10091000CE016CDDF801E858FE4F8083F39480919E
:100920007601F81690F3CE015FDD63E0CE01D5DDF0
:1009300060E0CE01B6DD9093700180936F011EC020
:1009400010927301CE0150DD19C080917301835064
:100950008093760160E0CE0149DD8093750160E00F
:10096000CE0144DD982F907890937101807480932C
:100970007201809176018111C7CFD5CFDF91CF91E0
:100980001F910F91FF900895BF92CF92DF92EF9247
:10099000FF920F931F93CF93DF936C01C62FF42E1A
:1009A000B52E122F61E099DD67E2C60167DD88236D
:1009B000DCF740E065E2C60136DD1E3308F01DE3DA
:1009C000C60110DD60E8C60111DD612F6D5FC60153
:1009D0000DDD6C2FC6010ADDF6016481C60106DD5E
:1009E000EE2031F060E8C60101DD11110BC014C02A
:1009F000002321F060E4C601F9DCF7CF60E0C60116
:100A0000F5DCF3CF0F2DCF2DDB2D6991C601EEDC88
:100A10008C2F801B8117C8F3C601E6DC64E0C60199
:100A20005CDD4A9BFECF61E0C60157DDDF91CF91CF
:100A30001F910F91FF90EF90DF90CF90BF9008959E
:100A40004F925F926F927F929F92AF92BF92CF929E
:100A5000DF92EF92FF920F931F93CF93DF93EC01FE
:100A6000162F5A01922E6DE309DD482F44606DE385
:100A7000CE01D9DC65DB2B013C0102C0CE01D8DD03
:100A8000CE018FDD81110EC05BDB6B017C01C418D0
:100A9000D508E608F70888EEC81683E0D806E10412
:100AA000F10460F3E12C292DA501612FCE016CDF4B
:100AB000DF91CF911F910F91FF90EF90DF90CF903A
:100AC000BF90AF909F907F906F905F904F900895F0
:100AD0003F924F925F926F927F928F929F92AF92CE
:100AE000BF92CF92DF92EF92FF920F931F93CF931B
:100AF000DF93EC01162F5A01922E302E812C4E2CB2
:100B0000512C612C712C01E0292DA501612FCE0102
:100B100097DF16DB6B017C0105C0612FCE019FDDE5
:100B2000811111C00DDBDC01CB018C199D09AE09CF
:100B3000BF0984159505A605B70578F38394381485
:100B400010F780E001C081E0DF91CF911F910F91FC
:100B5000FF90EF90DF90CF90BF90AF909F908F90DD
:100B60007F906F905F904F903F9008951F920F92EB
:100B70000FB60F9211242F933F934F935F938F9350
:100B80009F93EF93FF934091C0005091C60048712E
:100B90008091B70190E001968F7799272091B60157
:100BA00030E02817390739F08093B701FC01E6548B
:100BB000FE4F508301C042E04093B501FF91EF9199
:100BC0009F918F915F914F913F912F910F900FBE09
:100BD0000F901F9018951F920F920FB60F9211242D
:100BE0008F939F93EF93FF939091B9018091B801F8
:100BF000981779F08091B80190E001968F77992746
:100C00008093B801FC01E65CFD4F80818093C600B3
:100C100005C0E1ECF0E080818F7D8083FF91EF9152
:100C20009F918F910F900FBE0F901F90189510926B
:100C3000B9011092B8011092B7011092B601992330
:100C400024F422E02093C0009F779093C500809306
:100C5000C40088E98093C10086E08093C2000895B3
:100C60006091B90170E06F5F7F4F6F777727AB01BD
:100C70002091B80130E024173507D1F3FB01E65C81
:100C8000FD4F80836093B901E1ECF0E080818062E8
:100C900080830895CF93DF93EC018881882329F026
:100CA0002196DEDF89918111FCCFDF91CF910895EC
:100CB000EE0FFF1F0590F491E02D0994F894FFCFFB
:100CC00001991855415254204F4B0D005246313274
:100CD00020494E49542E2E2E00444F4F5242454C2F
:100CE0004C20494E49542E2E2E00204F4B200D00F3
:100CF00053656E64205061636B6167652E2E2E0014
:100D000041434B204F4B004E4F2041434B000D5071
:100D100057525F444F574E0D00000000004B040037
:00000001FF
