:10000000ECC20000C1C300000FC300000DC300001C
:100010000BC3000009C3000007C30000B4C6000002
:1000200003C3000001C30000FFC20000FDC20000C6
:10003000FBC20000F9C200006DC30000F5C2000061
:10004000F3C20000F1C200000C94B60B0C94EB0B51
:10005000EBC20000E9C20000E7C20000E5C20000F8
:10006000E3C20000E1C20000DC050000F401000072
:1000700000000000C8000000B0040000F40100000F
:1000800000000000E8030000DC050000F4010000AF
:1000900000000000C8000000B0040000F4010000EF
:1000A00000000000DC050000E8030000280000005C
:1000B000EE02000028000000E80300002800000015
:1000C000EE02000028000000E80300002800000005
:1000D000EE02000028000000E803000028000000F5
:1000E000EE02000028000000E803000028000000E5
:1000F000EE02000028000000E803000028000000D5
:10010000EE02000028000000E803000028000000C4
:10011000EE02000028000000E803000028000000B4
:10012000EE02000028000000E803000028000000A4
:10013000EE02000028000000E80300002800000094
:10014000EE02000028000000E80300002800000084
:10015000EE02000028000000E80300002800000074
:10016000EE02000028000000E80300002800000064
:10017000EE02000028000000E80300002800000054
:10018000EE02000028000000E80300002800000044
:10019000EE0200002800000000000000E80300005C
:1001A000E803000028000000EE0200002800000024
:1001B000E803000028000000EE0200002800000014
:1001C000E803000028000000EE0200002800000004
:1001D000E803000028000000EE02000028000000F4
:1001E000E803000028000000EE02000028000000E4
:1001F000E803000028000000EE02000028000000D4
:10020000E803000028000000EE02000028000000C3
:10021000E803000028000000EE02000028000000B3
:10022000E803000028000000EE02000028000000A3
:10023000E803000028000000EE0200002800000093
:10024000E803000028000000EE0200002800000083
:10025000E803000028000000EE0200002800000073
:10026000E803000028000000EE0200002800000063
:10027000E803000028000000EE0200002800000053
:10028000E803000028000000EE0200002800000043
:1002900000000000E8030000E80300002800000060
:1002A000EE02000028000000E80300002800000023
:1002B000EE02000028000000E80300002800000013
:1002C000EE02000028000000E80300002800000003
:1002D000EE02000028000000E803000028000000F3
:1002E000EE02000028000000E803000028000000E3
:1002F000EE02000028000000E803000028000000D3
:10030000EE02000028000000E803000028000000C2
:10031000EE02000028000000E803000028000000B2
:10032000EE02000028000000E803000028000000A2
:10033000EE02000028000000E80300002800000092
:10034000EE02000028000000E80300002800000082
:10035000EE02000028000000E80300002800000072
:10036000EE02000028000000E80300002800000062
:10037000EE02000028000000E80300002800000052
:10038000EE0200002800000000000000E80300006A
:10039000000000000000000000000000000000005D
:1003A0000000000000000000D00700002C01000049
:1003B000000000002C010000D00700002C0100000C
:1003C000000000002C010000D00700002C010000FC
:1003D000000000002C010000D00700002C010000EC
:1003E000000000002C010000D00700002C010000DC
:1003F000000000002C010000D00700002C010000CC
:10040000000000002C010000D00700002C010000BB
:10041000000000002C010000D00700002C010000AB
:10042000000000002C0100001C070000C8000000B4
:10043000A5050000C80000001C070000C80000005F
:10044000A5050000C80000001C070000C80000004F
:10045000A5050000C80000001C070000C80000003F
:10046000A5050000C800000000000000E80300002F
:100470001C070000C8000000A5050000C80000001F
:100480001C070000C8000000A5050000C80000000F
:100490001C070000C8000000A5050000C8000000FF
:1004A0001C070000C8000000A5050000C8000000EF
:1004B00000000000E8030000000000000000000051
:1004C000FFFFFFFFC800000000000000C8000000A0
:1004D000FFFFFFFFC800000000000000C800000090
:1004E000FFFFFFFFC800000000000000C800000080
:1004F000FFFFFFFFC800000000000000C800000070
:1005000000FF00FF32000000000000003200000089
:1005100000FF00FF32000000000000003200000079
:1005200000FF00FF32000000000000003200000069
:10053000FF00FF0032000000000000003200000059
:10054000FF00FF0032000000000000003200000049
:10055000FF00FF0032000000000000003200000039
:1005600000FF00FF32000000000000003200000029
:1005700000FF00FF32000000000000003200000019
:1005800000FF00FF32000000000000003200000009
:10059000FF00FF00320000000000000032000000F9
:1005A000FF00FF00320000000000000032000000E9
:1005B000FF00FF00320000000000000032000000D9
:1005C0003DF50000B8F5FF0000FFFF000C0B0A0F1F
:1005D0000E0D070809020100360711241FBECFEFD8
:1005E000D8E0DEBFCDBF11E0A0E0B1E0E4E0F9E18A
:1005F00002C005900D92AA33B107D9F722E0AAE311
:10060000B1E001C01D92AA3AB207E1F715E0CAEDC8
:10061000D5E004C02297FE010E947C0CC83DD107A2
:10062000C9F7D5D00C94800CEBCC88E48093B8004B
:100630000895ECEBF0E0108294EA90839081992386
:10064000ECF79091B900987F9830A1F48093BB00AB
:1006500084E88093BC00ECEBF0E080818823ECF729
:100660009091B900987F983139F081E0903429F465
:1006700080E0089581E0089580E008958093BB00B4
:1006800084E88093BC00ECEBF0E080818823ECF7F9
:100690009091B900987F81E0983209F480E0089544
:1006A00084EC8093BC00ECEBF0E080818823ECF7D5
:1006B0008091BB00089584E98093BC0008950C9458
:1006C0004A0C089582E084BD93E095BD80936E004E
:1006D0008AEF87BD08950F931F938FB7F894009109
:1006E0003A0110913B0120913C0130913D018FBFB7
:1006F000602F712F822F932F1F910F910895EEE697
:10070000F0E080818D7F8083E4E6F0E0808180628C
:10071000808308951F920F920FB60F9211248F932A
:100720009F93AF93BF9380913A0190913B01A09129
:100730003C01B0913D010196A11DB11D80933A018C
:1007400090933B01A0933C01B0933D01BF91AF91C9
:100750009F918F910F900FBE0F901F90189582E080
:100760008093B00085E08093B1008DE78093B30063
:100770000895E0E7F0E080818D7F8083E4E6F0E09B
:1007800080818064808308951F920F920FB60F922C
:1007900011242F933F934F935F936F937F938F9386
:1007A0009F93AF93BF93EF93FF93EBD3FF91EF91A1
:1007B000BF91AF919F918F917F916F915F914F9179
:1007C0003F912F910F900FBE0F901F901895CF93D0
:1007D000DF9300D01F92CDB7DEB7EAE7F0E080816B
:1007E0008F77808378946EDF2FEF83ED90E3215035
:1007F00080409040E1F700C000003FD740D7AFDF16
:10080000B8DF80E190E00E94170C2FEF83ED90E3BA
:10081000215080409040E1F700C000008AE091E064
:100820004EDF2FEF83ED90E3215080409040E1F7C1
:1008300000C00000FADE30D313E08FEF73D32FEF48
:1008400081EE94E0215080409040E1F700C000002C
:1008500080E068D32FEF81EE94E0215080409040FB
:10086000E1F700C00000115041F72EE042E066E5DC
:100870008EE391E0F0D483E191E021DF2FEF83ED6F
:1008800090E3215080409040E1F700C0000011E06B
:10089000198382E08A8383E08B832FEF83ED90E3DB
:1008A000215080409040E1F700C000006FEF81E0F0
:1008B00028D32FEF87E893E1215080409040E1F763
:1008C00000C000006FEF88E01CD32FEF87E893E1B2
:1008D000215080409040E1F700C000006FEF8BE0B6
:1008E00010D32FEF87E893E1215080409040E1F74B
:1008F00000C000006FEF8EE004D32FEF8FE097E28F
:10090000215080409040E1F700C0000080E00AD311
:1009100081E018D310935C018AE191E0D0DE2FEFE3
:1009200083ED90E3215080409040E1F700C000004B
:1009300001E023E0AE014F5F5F4F63E08EE391E0A3
:1009400054D687E291E0BBDE2FEF83ED90E3215098
:1009500080409040E1F700C00000EACF0F931F9362
:100960008091510190915201A0915301B091540195
:10097000892B8A2B8B2B81F0AEDE009151011091D7
:100980005201209153013091540160177107820781
:10099000930708F4EFC073D68091560181112EC0E1
:1009A000E0915501F0E0EE0FFF1FEE0FFF1FEE0F7D
:1009B000FF1FE859FF4F6591749180E090E041E09E
:1009C0006BD689DEE0915501F0E0EE0FFF1FEE0FD0
:1009D000FF1FEE0FFF1FE459FF4F25913491DC01FB
:1009E000CB01820F931FA11DB11D809351019093E4
:1009F0005201A0935301B09354018FC0813071F51F
:100A0000E0915501F0E0EE0FFF1FEE0FFF1FEE0F1C
:100A1000FF1FE855FF4F6591749180E090E041E041
:100A20003BD659DEE0915501F0E0EE0FFF1FEE0FCF
:100A3000FF1FEE0FFF1FE455FF4F25913491DC019E
:100A4000CB01820F931FA11DB11D80935101909383
:100A50005201A0935301B09354015FC0823071F5ED
:100A6000E0915501F0E0EE0FFF1FEE0FFF1FEE0FBC
:100A7000FF1FE855FC4F6591749180E090E041E0E4
:100A80000BD629DEE0915501F0E0EE0FFF1FEE0FCF
:100A9000FF1FEE0FFF1FE455FC4F25913491DC0141
:100AA000CB01820F931FA11DB11D80935101909323
:100AB0005201A0935301B09354012FC0833069F5C4
:100AC000E0915501F0E0EE0FFF1FEE0FFF1FEE0F5C
:100AD000FF1FE85DFB4F6591749180E090E041E07D
:100AE000DBD5F9DDE0915501F0E0EE0FFF1FEE0FD1
:100AF000FF1FEE0FFF1FE45DFB4F25913491DC01DA
:100B0000CB01820F931FA11DB11D809351019093C2
:100B10005201A0935301B09354015091550140915B
:100B20005601252F30E0E42FF0E0E55DFE4F808197
:100B300090E0019728173907D4F020915B01922F9C
:100B40009F7030E04F5F443009F4432FE42FF0E012
:100B5000E15DFE4F8081911103C04093560104C0B6
:100B6000822381F3409356011092550103C05F5FC9
:100B7000509355011F910F9108950F931F93CF9399
:100B8000DF9380914C0190914D01A0914E01B09165
:100B90004F01892B8A2B8B2B09F448C09CDD0091D7
:100BA0004C0110914D0120914E0130914F01601781
:100BB00071078207930708F039C03BC0809150014C
:100BC000FE0198E0899FE00DF11D1124E054FB4FD8
:100BD00064918C2F8D5F95D12196C430D10571F72A
:100BE0007ADD40915001E42FF0E0EE0FFF1FEE0F91
:100BF000FF1FEE0FFF1FEC53FB4F25913491DC01DB
:100C0000CB01820F931FA11DB11D80934C019093C6
:100C10004D01A0934E01B0934F014F3119F4109242
:100C2000500107C04F5F4093500103C0C0E0D0E0C7
:100C3000C5CFDF91CF911F910F9108950F931F930F
:100C4000CF93DF938091460190914701A091480195
:100C5000B0914901892B8A2B8B2B79F03CDD0091D7
:100C600046011091470120914801309149016017D8
:100C700071078207930708F481C020914A0122235B
:100C800019F02B3021F512C026DDDC01CB0186578F
:100C90009D4FAF4FBF4F8093460190934701A09364
:100CA0004801B0934901CFEFD0E025C014DDDC014D
:100CB000CB010196A11DB11D809346019093470180
:100CC000A0934801B0934901CFEFD0E014C037EEB4
:100CD0003203E0011124C650DF4FFDDCDC01CB0103
:100CE0004E96A11DB11D8093460190934701A0939C
:100CF0004801B093490100E010E080914B0190E081
:100D00009C01220F331F820F931F800F911FFC0144
:100D1000E054FA4F4491FC01E453FA4F84914C9F04
:100D200090014D9F300D1124632FEBD00F5F1F4FAB
:100D30000330110511F780914A018B30E1F41092D4
:100D40004A0130915B01232F2F7080914B0140E0CD
:100D50008F5F843009F4842FE82FF0E0E15DFE4FCF
:100D60009081211103C080934B0108C0932381F32C
:100D700080934B0103C08F5F80934A01DF91CF9135
:100D80001F910F9108951F920F920FB60F92112489
:100D90000F931F932F933F934F935F936F937F9383
:100DA0008F939F93AF93BF93EF93FF9394DC009146
:100DB0005701109158012091590130915A01601743
:100DC00071078207930720F4012B022B032BC1F537
:100DD000109255011092510110925201109253013C
:100DE000109254011092500110924C0110924D013A
:100DF00010924E0110924F0110924A01109246013A
:100E000010924701109248011092490110925B0123
:100E100010925701109258011092590110925A01E4
:100E200080E080D081E08ED0E4E6F0E080818068D0
:100E3000808365DC24D49DDC81E080935C0103C069
:100E40008DDD9BDEFBDEFF91EF91BF91AF919F9116
:100E50008F917F916F915F914F913F912F911F9152
:100E60000F910F900FBE0F901F90189587E391E0A0
:100E700090933F0180933E0182E0809340018093F4
:100E8000410181E080936701109243018FE18093DB
:100E9000440110924501089580E8CBDB80E8EEDB49
:100EA00080E8ECDB82E0EADB81E0E8DB81E0E6DBA6
:100EB00081E0E4DB81E0E2DB81E0E0DB81E0DEDBBE
:100EC00081E0DCDB81E0DADB81E0D8DB81E0D6DBCE
:100ED00081E0D4DB81E0D2DB81E0D0DB81E0CEDBDE
:100EE00081E0CCDB81E0CADB8FEFC8DB80E0C6DBD2
:100EF0008AEAC4DB8AEAC2DB8AEAC0DB8AEABEDBB2
:100F0000DACBCF93DF93D82FC62F80E892DB8D2FDB
:100F10008E5F8068B3DB8C2FB1DBCDDB81E0DF91AE
:100F2000CF910895CF93DF93D82F80E882DB82E8BA
:100F3000A5DBC0E18D2FA2DBC150E1F7BCDBDF9167
:100F4000CF910895CF93C82F81E873DB80E896DBBB
:100F5000A7DBCC2311F0806101C08F7E8FDBC82F0F
:100F6000AADB8C2FCF91089584B18C6284B92A9A20
:100F7000249880E58CBD8DB581608DBD52985A9ABC
:100F8000089580915D0190915E01DC01ED91FC91ED
:100F90000190F081E02D099508956EBD0DB407FE16
:100FA000FDCF8EB50895E8980895FDDF2A9808953D
:100FB000E89A08952A9AFCCF0F931F93CF93DF935B
:100FC000EC01062F142FF1DF602FCE01E6DF612F39
:100FD000CE01E3DF182FCE01EDDF812FDF91CF911E
:100FE0001F910F9108950F931F93CF93DF93EC01FF
:100FF000062F142FDADF602F6068412FCE01DCDF6F
:10100000CE01D8DFDF91CF911F910F910895CF933B
:10101000DF93EC0161110AC004C06CE5CE01E3DF8F
:101020000AC045E56AE5DFDF40E7F7CF4DE56AE551
:10103000DADF4CE7F2CFDF91CF9108951F93CF9382
:10104000DF93EC01162FB1DF612F6F7740E0CE0107
:10105000B3DF182FCE01AEDF812FDF91CF911F912B
:101060000895CF93DF93EC01662341F041E063E202
:10107000BADF63E2CE01E2DF81FFFBCF64E2CE01A3
:10108000DDDF282F30E03195219531093595279501
:10109000822F932FDF91CF9108951F93CF93DF93EA
:1010A000EC01162F80916701861709F456C0623053
:1010B00069F138F4662309F43DC0613009F04DC090
:1010C0002FC0633099F0643009F047C061E0CE0171
:1010D000B5DF837E482F4C6061E0CE0184DF8F81D5
:1010E000882381F161E0CE0192DF2CC061E0CE0166
:1010F000A5DF837E482F406161E0CE0174DF8F81E0
:10110000882301F160E0CE0182DF1CC061E0CE01E6
:1011100095DF837E482F486061E0CE0164DF12C016
:1011200061E0CE018BDF837E482F446061E0CE0119
:101130005ADF08C061E0CE0181DF482F437E61E0C5
:10114000CE0151DF80916701811105C067E2CE01B8
:1011500075DF8823BCF710936701DF91CF911F9152
:101160000895CF93DF93EC0180916701833079F488
:101170008091630181110DC060E0CE0172DF863A7B
:101180009F4F4CF461E0CE0188DF81E005C080E034
:1011900003C080E001C080E0DF91CF910895CF933C
:1011A000DF93EC01109266011092650110926401C8
:1011B000109263011092620110926101109260011D
:1011C00010925F0168E23ADF82FF08C06DE3CE0152
:1011D00035DF482F44606DE3CE0105DF40E465E272
:1011E000CE0101DF63E0CE0158DFDF91CF9108959A
:1011F000DF92EF92FF920F931F93CF93DF938C01B7
:101200007B0161E04ADFE114F10481F0C801CDDE29
:101210006EEBC801C2DEE701D12C6991C801BDDEC9
:10122000D39480E1D812F9CFC801C4DE6DE3C801C0
:1012300005DF8E7F91E0EF2809F490E0482F492BDD
:101240006DE3C801D0DEDF91CF911F910F91FF9028
:10125000EF90DF900895EF92FF920F931F93CF933B
:10126000DF93CDB7DEB7AA970FB6F894DEBF0FBEF7
:10127000CDBF8C01F42EFE0131968AE2DF011D9272
:101280008A95E9F781E0898384E08A8392E09B83F1
:1012900033E03D839E838F838AE8888785E0898752
:1012A0008A8786E08B8783EC8C8787E08D8788E050
:1012B0008F8789E0898B89E18B8B92E49C8B85E217
:1012C0008D8B80E48E8B89E28F8B8CED888F8EE204
:1012D000898F88E88A8F8FE28B8F8DE28C8F80E3F5
:1012E0008D8F37E33F8F30E938A338E339A39AA3D2
:1012F0009CE39BA39FE89CA39DE39DA392E19EA3F7
:101300009FE69FA388A78FEF89A76F3109F453C089
:101310006B3209F44CC0663509F045C050C0888B6B
:101320002E8FC80121DE4AEA6FE2C8015CDE6FE25F
:10133000C80184DE8A3AB9F745E56FE2C80153DE99
:101340006FE2C8017BDE8535B9F769816F3FF1F047
:1013500080E090E0E12CFC01EE0FFF1F21E030E087
:101360002C0F3D1FE20FF31F4181C8013CDEE394C7
:101370008E2D90E0FC01EE0FFF1FA1E0B0E0AC0F5E
:10138000BD1FEA0FFB1F60816F3F29F760E070E02F
:10139000C8012EDF61E0C80180DE67E2C8014EDED1
:1013A0008823DCF710C084EE8E8780ECB8CF8CE603
:1013B0008E8780E4B4CF8EE48E8780ECB0CF89ED49
:1013C0008E8780E0ACCFE9E6F0E080818D7F80837E
:1013D000E89A10935E0100935D01F801F48281E0C8
:1013E000AA960FB6F894DEBF0FBECDBFDF91CF91A6
:1013F0001F910F91FF90EF900895FF920F931F930D
:10140000CF93DF93EC0180916701833009F042C0F4
:1014100068E2CE0113DE82FF3DC061E0CE013DDE19
:10142000CE01C3DD60E0CE01B8DD60E0CE01B5DD08
:101430008093630180916301833418F48091630188
:1014400001C082E48093630160E0CE01A6DD809359
:1014500064018D8181112BC0809164019C8198175A
:1014600031F1809164018F3FE9F421C0F12C0F2DFF
:1014700010E060E0CE0191DDF801E859FE4F808375
:10148000F39480916601F81690F3CE0193DD63E04A
:10149000CE0103DE60E0CE01E4DD90936001809335
:1014A0005F011EC010926301CE0184DD19C08091DE
:1014B000630183508093660160E0CE016EDD80930E
:1014C000650160E0CE0169DD982F9078909361010D
:1014D000807480936201809166018111C7CFD5CF5E
:1014E000DF91CF911F910F91FF900895BF92CF92FE
:1014F000DF92EF92FF920F931F93CF93DF936C01D4
:10150000C62FF42EB52E122F61E0C7DD67E2C601AB
:1015100095DD8823DCF740E065E2C60164DD1E331B
:1015200008F01DE3C60141DD60E8C60136DD612F2C
:101530006D5FC60132DD6C2FC6012FDDF6016481BF
:10154000C6012BDDEE2031F060E8C60126DD111169
:101550000BC014C0002321F060E4C6011EDDF7CFEC
:1015600060E0C6011ADDF3CF0F2DCF2DDB2D699181
:10157000C60113DD8C2F801B8117C8F3C6011ADD4D
:10158000F89464E0C60189DD4A99FECF61E0C601A6
:1015900084DD7894DF91CF911F910F91FF90EF90B0
:1015A000DF90CF90BF900895CF93DF93EC01FBDCE9
:1015B00080916701833069F48091630181110EC0CD
:1015C00008C0CE01F5DC80E00DC0CE01E8DD80E092
:1015D00009C0809167018330C1F7F3CF61E0CE018C
:1015E0005CDD81E0DF91CF9108954F925F926F9221
:1015F0007F929F92AF92BF92CF92DF92EF92FF9233
:101600000F931F93CF93DF93EC01162F5A01922E65
:101610006DE314DD482F44606DE3CE01E4DC5BD85C
:101620002B013C0102C0CE01BFDFCE019ADD81114A
:101630000EC051D86B017C01C418D508E608F70824
:1016400088EEC81683E0D806E104F10460F3E12CCB
:10165000292DA501612FCE0149DFDF91CF911F9187
:101660000F91FF90EF90DF90CF90BF90AF909F9041
:101670007F906F905F904F900895219A0895E1E8D0
:10168000F0E08081808310928000E4E6F0E08081C9
:101690008860808329980895CF92DF92EF92FF921D
:1016A000CF93DF936B017C01E4E6F0E08081877FDC
:1016B0008083C114D104E104F10411F0411102C08E
:1016C000DEDF4DC0D42F4B3008F0DAE060E072E18D
:1016D0008AE790E0A7019601EBD0CC24CA94DC2CD9
:1016E0007601C20ED31EE41EF51EC114D10481E0A2
:1016F000E806F10458F0CD2CDE2CEF2CFF2481E01D
:10170000C81AD108E108F108C4E001C0C1E0ED2F1A
:10171000F0E0E150FF4F208130E040E050E0C701B1
:10172000B601C6D0D0928700C09286008091840016
:1017300090918500A0E0B0E0C816D906EA06FB0645
:1017400020F4D0928500C0928400C061C0938100D3
:10175000309389002093880080E880938000DF9197
:10176000CF91FF90EF90DF90CF9008951F920F924E
:101770000FB60F9211242F933F934F935F938F9344
:101780009F93EF93FF934091C0005091C600487122
:101790008091A70190E001968F7799272091A6016B
:1017A00030E02817390739F08093A701FC01E6558E
:1017B000FE4F508301C042E04093A501FF91EF919D
:1017C0009F918F915F914F913F912F910F900FBEFD
:1017D0000F901F9018951F920F920FB60F92112421
:1017E0008F939F93EF93FF939091A9018091A8010C
:1017F000981779F08091A80190E001968F7799274A
:101800008093A801FC01E65DFD4F80818093C600B6
:1018100005C0E1ECF0E080818F7D8083FF91EF9146
:101820009F918F910F900FBE0F901F90189510925F
:10183000A9011092A8011092A7011092A601992364
:1018400024F422E02093C0009F779093C5008093FA
:10185000C40088E98093C10086E08093C2000895A7
:101860006091A90170E06F5F7F4F6F777727AB01C1
:101870002091A80130E024173507D1F3FB01E65D84
:10188000FD4F80836093A901E1ECF0E080818062EC
:1018900080830895CF93DF93EC018881882329F01A
:1018A0002196DEDF89918111FCCFDF91CF910895E0
:1018B000A1E21A2EAA1BBB1BFD010DC0AA1FBB1F54
:1018C000EE1FFF1FA217B307E407F50720F0A21BC6
:1018D000B30BE40BF50B661F771F881F991F1A9433
:1018E00069F760957095809590959B01AC01BD015D
:1018F000CF010895EE0FFF1F0590F491E02D09949C
:04190000F894FFCF89
:10190400C864433228211D160B0255415254204FFE
:101914004B0D005246204F4B2100696E697469617A
:101924006C697A65642100534F4B000860101308FA
:0A19340004020100000000FD09009C
:00000001FF
