:10000000ECC20000E3C300000FC300000DC30000FA
:100010000BC3000009C3000007C30000B9C70000FC
:1000200003C3000001C30000FFC20000FDC20000C6
:10003000FBC20000F9C2000084C30000F5C200004A
:10004000F3C20000F1C200000C94A20C0C94D70C77
:10005000EBC20000E9C20000E7C20000E5C20000F8
:10006000E3C20000E1C200000C0B0A0F0E0D0708EE
:1000700009020100DC050000F4010000000000009E
:10008000C8000000B0040000F401000000000000FF
:10009000E8030000DC050000F4010000000000009F
:1000A000C8000000B0040000F401000000000000DF
:1000B000DC050000E803000028000000EE0200005C
:1000C00028000000E803000028000000EE02000005
:1000D00028000000E803000028000000EE020000F5
:1000E00028000000E803000028000000EE020000E5
:1000F00028000000E803000028000000EE020000D5
:1001000028000000E803000028000000EE020000C4
:1001100028000000E803000028000000EE020000B4
:1001200028000000E803000028000000EE020000A4
:1001300028000000E803000028000000EE02000094
:1001400028000000E803000028000000EE02000084
:1001500028000000E803000028000000EE02000074
:1001600028000000E803000028000000EE02000064
:1001700028000000E803000028000000EE02000054
:1001800028000000E803000028000000EE02000044
:1001900028000000E803000028000000EE02000034
:1001A0002800000000000000E8030000E803000051
:1001B00028000000EE02000028000000E803000014
:1001C00028000000EE02000028000000E803000004
:1001D00028000000EE02000028000000E8030000F4
:1001E00028000000EE02000028000000E8030000E4
:1001F00028000000EE02000028000000E8030000D4
:1002000028000000EE02000028000000E8030000C3
:1002100028000000EE02000028000000E8030000B3
:1002200028000000EE02000028000000E8030000A3
:1002300028000000EE02000028000000E803000093
:1002400028000000EE02000028000000E803000083
:1002500028000000EE02000028000000E803000073
:1002600028000000EE02000028000000E803000063
:1002700028000000EE02000028000000E803000053
:1002800028000000EE02000028000000E803000043
:1002900028000000EE02000028000000000000001E
:1002A000E8030000E803000028000000EE02000060
:1002B00028000000E803000028000000EE02000013
:1002C00028000000E803000028000000EE02000003
:1002D00028000000E803000028000000EE020000F3
:1002E00028000000E803000028000000EE020000E3
:1002F00028000000E803000028000000EE020000D3
:1003000028000000E803000028000000EE020000C2
:1003100028000000E803000028000000EE020000B2
:1003200028000000E803000028000000EE020000A2
:1003300028000000E803000028000000EE02000092
:1003400028000000E803000028000000EE02000082
:1003500028000000E803000028000000EE02000072
:1003600028000000E803000028000000EE02000062
:1003700028000000E803000028000000EE02000052
:1003800028000000E803000028000000EE02000042
:100390002800000000000000E8030000000000004A
:1003A000000000000000000000000000000000004D
:1003B00000000000D00700002C0100000000000039
:1003C0002C010000D00700002C01000000000000FC
:1003D0002C010000D00700002C01000000000000EC
:1003E0002C010000D00700002C01000000000000DC
:1003F0002C010000D00700002C01000000000000CC
:100400002C010000D00700002C01000000000000BB
:100410002C010000D00700002C01000000000000AB
:100420002C010000D00700002C010000000000009B
:100430002C0100001C070000C8000000A5050000FA
:10044000C80000001C070000C8000000A50500004F
:10045000C80000001C070000C8000000A50500003F
:10046000C80000001C070000C8000000A50500002F
:10047000C800000000000000E80300001C070000A6
:10048000C8000000A5050000C80000001C0700000F
:10049000C8000000A5050000C80000001C070000FF
:1004A000C8000000A5050000C80000001C070000EF
:1004B000C8000000A5050000C80000000000000002
:1004C000E80300000000000000000000FFFFFFFF45
:1004D000C800000000000000C8000000FFFFFFFF90
:1004E000C800000000000000C8000000FFFFFFFF80
:1004F000C800000000000000C8000000FFFFFFFF70
:10050000C800000000000000C800000000FF00FF5D
:1005100032000000000000003200000000FF00FF79
:1005200032000000000000003200000000FF00FF69
:10053000320000000000000032000000FF00FF0059
:10054000320000000000000032000000FF00FF0049
:10055000320000000000000032000000FF00FF0039
:1005600032000000000000003200000000FF00FF29
:1005700032000000000000003200000000FF00FF19
:1005800032000000000000003200000000FF00FF09
:10059000320000000000000032000000FF00FF00F9
:1005A000320000000000000032000000FF00FF00E9
:1005B000320000000000000032000000FF00FF00D9
:1005C0003200000000000000320000003DF5000095
:1005D000B8F5FF0000FFFF003B0811241FBECFEF5E
:1005E000D8E0DEBFCDBF11E0A0E0B1E0ECEDFAE174
:1005F00002C005900D92AC33B107D9F722E0ACE30D
:10060000B1E001C01D92AC3AB207E1F715E0CAEDC6
:10061000D5E004C02297FE010E94680DC83DD107B5
:10062000C9F7F7D00C946C0DEBCC88E48093B8003C
:100630000895ECEBF0E0108294EA90839081992386
:10064000ECF79091B900987F9830A1F48093BB00AB
:1006500084E88093BC00ECEBF0E080818823ECF729
:100660009091B900987F983139F081E0903429F465
:1006700080E0089581E0089580E008958093BB00B4
:1006800084E88093BC00ECEBF0E080818823ECF7F9
:100690009091B900987F81E0983209F480E0089544
:1006A00084EC8093BC00ECEBF0E080818823ECF7D5
:1006B0008091BB00089584E98093BC0008950C9458
:1006C000360D089582E084BD93E095BD80936E0061
:1006D0008AEF87BD08950F931F938FB7F894009109
:1006E0003C0110913D0120913E0130913F018FBFAF
:1006F000602F712F822F932F1F910F910895E4E6A1
:10070000F0E080818F7D8083EEE6F0E08081826082
:1007100080830895EEE6F0E080818D7F8083E4E6BB
:10072000F0E080818062808308958FB7F894109202
:100730003C0110923D0110923E0110923F018FBF8B
:1007400008951F920F920FB60F9211248F939F93CB
:10075000AF93BF9380913C0190913D01A0913E01E8
:10076000B0913F010196A11DB11D80933C01909372
:100770003D01A0933E01B0933F01BF91AF919F9186
:100780008F910F900FBE0F901F90189582E080936D
:10079000B00085E08093B1008DE78093B3000895A9
:1007A000E4E6F0E080818F7B8083E0E7F0E0808109
:1007B000826080830895E0E7F0E080818D7F808310
:1007C000E4E6F0E080818064808308951F920F92B8
:1007D0000FB60F9211242F933F934F935F936F9314
:1007E0007F938F939F93AF93BF93EF93FF93DBD44C
:1007F000FF91EF91BF91AF919F918F917F916F91F9
:100800005F914F913F912F910F900FBE0F901F90CE
:100810001895CF93DF9300D01F92CDB7DEB7EAE7EC
:10082000F0E080818F77808378944CDF2FEF83ED29
:1008300090E3215080409040E1F700C000000E940A
:10084000290C0E942B0CA2DFB6DF80E190E00E9411
:10085000030DEFEFF3ED20E3E150F0402040E1F72E
:1008600000C000008EE091E02ADF8FEF93EDE0E31F
:1008700081509040E040E1F700C00000D6DE11D486
:1008800013E08FEF54D4FFEF21EE84E0F1502040CD
:100890008040E1F700C0000080E049D49FEFE1EE26
:1008A000F4E09150E040F040E1F700C0000011504A
:1008B00041F72EE042E066E580E491E0DDD587E196
:1008C00091E0FDDE2FEF83ED90E3215080409040DA
:1008D000E1F700C00000EFEFF3ED20E3E150F0405E
:1008E0002040E1F700C000006FEF81E00FD48FEFF0
:1008F00097E8E3E181509040E040E1F700C000005C
:100900006FEF88E003D4FFEF27E883E1F150204048
:100910008040E1F700C000006FEF8BE0F7D39FEF5E
:10092000E7E8F3E19150E040F040E1F700C000005B
:100930006FEF8EE0EBD32FEF8FE097E221508040F6
:100940009040E1F700C0000080E0F1D381E0FFD3E8
:1009500081E080935E018EE191E0B1DEEFEFF3ED97
:1009600020E3E150F0402040E1F700C000000AE63B
:1009700011E00F2EFBE6AF2EF1E0BF2EF02D412C43
:10098000512C242C59820F2EF4E66F2E712CF02D51
:1009900080E491E018D7882309F4C3C080E491E093
:1009A000F5D3882379F040E066E171E080E491E0DE
:1009B0002BD78BE291E083DE8FE99FE00197F1F77F
:1009C00000C00000F8018081893911F7F5013080FD
:1009D000332D307134FE06C080915D0183298093F0
:1009E0005D0107C0832D809590915D0189238093DF
:1009F0005D0120915D01822F8F7009F489C0809183
:100A0000590190915A01A0915B01B0915C01892B31
:100A10008A2B8B2BB9F510925E0123FD0CC022FDB1
:100A200006C021FD06C020FF0BC083E005C081E0A9
:100A300003C082E001C080E08093580180934D01A3
:100A400074DE5DDE48DEC0900001D0900101E090D0
:100A50000201F0900301DC01CB018C0D9D1DAE1D48
:100A6000BF1D8093590190935A01A0935B01B093ED
:100A70005C01F30180818F778083D7DD80E067D3CD
:100A80008FDE86CF31116AC00F2EFDE2CF2EF1E04E
:100A9000DF2EF02D7201F60121916F012321C1F0AB
:100AA0002A82F981FB834701880C991C8E0C9F1CBC
:100AB000EA81FB81E80DF91DE859FF4F849160E060
:100AC00025D38A819B8101969B838A83039781F733
:100AD0009FEFE91AF90AE4E0EE16F104E1F658CFC7
:100AE000FADDC0900001D0900101E0900201F09089
:100AF0000301DC01CB018C0D9D1DAE1DBF1D80933C
:100B0000590190935A01A0935B01B0935C0140CFCF
:100B10001092590110925A0110925B0110925C01DF
:100B200037CF80915E01813071F483B7817F8C6013
:100B300083BF83B7816083BF85B7806685BF8F7DA4
:100B400085BF889507C083B7817F83BF83B78160E6
:100B500083BF889583B78E7F83BF1ACF832D8F7015
:100B600009F416CFBDCF0F931F938091530190913D
:100B70005401A0915501B0915601892B8A2B8B2BE2
:100B800081F0A9DD0091530110915401209155018C
:100B900030915601601771078207930708F4EFC080
:100BA0005AD68091580181112EC0E0915701F0E092
:100BB000EE0FFF1FEE0FFF1FEE0FFF1FEC58FF4F52
:100BC0006591749180E090E041E052D684DDE0913F
:100BD0005701F0E0EE0FFF1FEE0FFF1FEE0FFF1F9C
:100BE000E858FF4F25913491DC01CB01820F931F10
:100BF000A11DB11D8093530190935401A093550101
:100C0000B09356018FC0813071F5E0915701F0E04B
:100C1000EE0FFF1FEE0FFF1FEE0FFF1FEC54FF4FF5
:100C20006591749180E090E041E022D654DDE0913E
:100C30005701F0E0EE0FFF1FEE0FFF1FEE0FFF1F3B
:100C4000E854FF4F25913491DC01CB01820F931FB3
:100C5000A11DB11D8093530190935401A0935501A0
:100C6000B09356015FC0823071F5E0915701F0E01A
:100C7000EE0FFF1FEE0FFF1FEE0FFF1FEC54FC4F98
:100C80006591749180E090E041E0F2D524DDE0913F
:100C90005701F0E0EE0FFF1FEE0FFF1FEE0FFF1FDB
:100CA000E854FC4F25913491DC01CB01820F931F56
:100CB000A11DB11D8093530190935401A093550140
:100CC000B09356012FC0833069F5E0915701F0E0F1
:100CD000EE0FFF1FEE0FFF1FEE0FFF1FEC5CFB4F31
:100CE0006591749180E090E041E0C2D5F4DCE09140
:100CF0005701F0E0EE0FFF1FEE0FFF1FEE0FFF1F7B
:100D0000E85CFB4F25913491DC01CB01820F931FEE
:100D1000A11DB11D8093530190935401A0935501DF
:100D2000B09356015091570140915801252F30E062
:100D3000E42FF0E0EF5CFE4F808190E001972817F0
:100D40003907D4F020915D01922F9F7030E04F5F02
:100D5000443009F4432FE42FF0E0E35DFE4F80813F
:100D6000911103C04093580104C0822381F3409342
:100D700058011092570103C05F5F509357011F91B4
:100D80000F9108950F931F93CF93DF9380914E019E
:100D900090914F01A0915001B0915101892B8A2B64
:100DA0008B2B09F448C097DC00914E0110914F0144
:100DB000209150013091510160177107820793070C
:100DC00008F039C03BC080915201FE0198E0899F34
:100DD000E00DF11D1124E453FB4F64918C2F8D5FC6
:100DE00095D12196C430D10571F775DC409152013F
:100DF000E42FF0E0EE0FFF1FEE0FFF1FEE0FFF1FBF
:100E0000E053FB4F25913491DC01CB01820F931FFE
:100E1000A11DB11D80934E0190934F01A0935001ED
:100E2000B09351014F3119F41092520107C04F5F36
:100E30004093520103C0C0E0D0E0C5CFDF91CF9115
:100E40001F910F9108950F931F93CF93DF9380917C
:100E5000480190914901A0914A01B0914B01892B21
:100E60008A2B8B2B79F037DC0091480110914901D6
:100E700020914A0130914B01601771078207930757
:100E800008F481C020914C01222319F02B3021F568
:100E900012C021DCDC01CB0186579D4FAF4FBF4F05
:100EA0008093480190934901A0934A01B0934B016C
:100EB000CFEFD0E025C00FDCDC01CB010196A11DF6
:100EC000B11D8093480190934901A0934A01B093CA
:100ED0004B01CFEFD0E014C037EE3203E001112414
:100EE000C650DF4FF8DBDC01CB014E96A11DB11DD2
:100EF0008093480190934901A0934A01B0934B011C
:100F000000E010E080914D0190E09C01220F331F22
:100F1000820F931F800F911FFC01E453FA4F4491FD
:100F2000FC01E859FF4F84914C9F90014D9F300D7B
:100F30001124632FEBD00F5F1F4F0330110511F702
:100F400080914C018B30E1F410924C0130915D01A5
:100F5000232F2F7080914D0140E08F5F843009F482
:100F6000842FE82FF0E0E35DFE4F9081211103C054
:100F700080934D0108C0932381F380934D0103C0FA
:100F80008F5F80934C01DF91CF911F910F91089556
:100F90001F920F920FB60F9211240F931F932F934E
:100FA0003F934F935F936F937F938F939F93AF93F1
:100FB000BF93EF93FF938FDB0091590110915A017A
:100FC00020915B0130915C016017710782079307E4
:100FD00020F4012B022B032BC1F510925701109224
:100FE0005301109254011092550110925601109223
:100FF000520110924E0110924F0110925001109226
:10100000510110924C011092480110924901109226
:101010004A0110924B0110925D01109259011092F9
:101020005A0110925B0110925C0180E080D081E057
:101030008ED0E4E6F0E08081806880836BDB0BD4A7
:10104000BADB81E080935E0103C08DDD9BDEFBDEB9
:10105000FF91EF91BF91AF919F918F917F916F9190
:101060005F914F913F912F911F910F910F900FBE64
:101070000F901F90189589E391E090934101809320
:10108000400182E0809342018093430181E080939C
:101090006901109245018FE180934601109247014A
:1010A000089580E8C6DA80E8E9DA80E8E7DA82E0E5
:1010B000E5DA81E0E3DA81E0E1DA81E0DFDA81E0BC
:1010C000DDDA81E0DBDA81E0D9DA81E0D7DA81E0CC
:1010D000D5DA81E0D3DA81E0D1DA81E0CFDA81E0DC
:1010E000CDDA81E0CBDA81E0C9DA81E0C7DA81E0EC
:1010F000C5DA8FEFC3DA80E0C1DA8AEABFDA8AEABA
:10110000BDDA8AEABBDA8AEAB9DAD5CACF93DF93C5
:10111000D82FC62F80E88DDA8D2F8E5F8068AEDAEB
:101120008C2FACDAC8DA81E0DF91CF910895CF93AC
:10113000DF93D82F80E87DDA82E8A0DAC0E18D2F36
:101140009DDAC150E1F7B7DADF91CF910895CF93DF
:10115000C82F81E86EDA80E891DAA2DACC2311F0A8
:10116000806101C08F7E8ADAC82FA5DA8C2FCF91DB
:10117000089584B18C6284B92A9A249880E58CBD44
:101180008DB581608DBD52985A9A08958091640101
:10119000882339F09091660181E09F3F19F480E047
:1011A000089580E0089580915F0190916001DC01D5
:1011B000ED91FC910190F081E02D099508956EBDAF
:1011C0000DB407FEFDCF8EB50895E8980895FDDFB4
:1011D0002A980895E89A08952A9AFCCF0F931F93AE
:1011E000CF93DF93EC01062F142FF1DF602FCE0198
:1011F000E6DF612FCE01E3DF182FCE01EDDF812F77
:10120000DF91CF911F910F9108950F931F93CF936B
:10121000DF93EC01062F142FDADF602F6068412F77
:10122000CE01DCDFCE01D8DFDF91CF911F910F918E
:101230000895CF93DF93EC0161110AC004C06CE5FF
:10124000CE01E3DF0AC045E56AE5DFDF40E7F7CF1F
:101250004DE56AE5DADF4CE7F2CFDF91CF910895F3
:101260001F93CF93DF93EC01162FB1DF40E0612F86
:10127000CE01B4DF182FCE01AFDF812FDF91CF91E8
:101280001F910895CF93DF93EC01662341F041E075
:1012900063E2BBDF63E2CE01E3DF81FFFBCF64E209
:1012A000CE01DEDF282F30E03195219531093595CB
:1012B0002795822F932FDF91CF9108951F93CF937E
:1012C000DF93EC01162F80916901861709F456C04F
:1012D000623069F138F4662309F43DC0613009F0E9
:1012E0004DC02FC0633099F0643009F047C061E011
:1012F000CE01B6DF837E482F4C6061E0CE0185DFF2
:101300008F81882381F161E0CE0193DF2CC061E001
:10131000CE01A6DF837E482F406161E0CE0175DFFC
:101320008F81882301F160E0CE0183DF1CC061E082
:10133000CE0196DF837E482F486061E0CE0165DFF5
:1013400012C061E0CE018CDF837E482F446061E0F3
:10135000CE015BDF08C061E0CE0182DF482F437E13
:1013600061E0CE0152DF80916901811105C067E221
:10137000CE0176DF8823BCF710936901DF91CF910E
:101380001F910895CF93DF93EC0180916901833021
:1013900079F48091650181110DC060E0CE0172DFAA
:1013A000863A9F4F4CF461E0CE0188DF81E005C0B2
:1013B00080E003C080E001C080E0DF91CF9108951C
:1013C000CF93DF93EC0110926801109267011092A5
:1013D00066011092650110926401109263011092EF
:1013E00062011092610168E23BDF82FF08C06DE399
:1013F000CE0136DF482F44606DE3CE0106DF40E4C6
:1014000065E2CE0102DF63E0CE0158DFDF91CF91CC
:101410000895DF92EF92FF920F931F93CF93DF9384
:101420008C017B0161E04ADFE114F10481F0C80125
:10143000CEDE6EEBC801C3DEE701D12C6991C80195
:10144000BEDED39480E1D812F9CFC801C5DE6DE3CA
:10145000C80106DF8E7F91E0EF2809F490E0482F65
:10146000492B6DE3C801D1DEDF91CF911F910F9120
:10147000FF90EF90DF900895EF92FF920F931F93EC
:10148000CF93DF93CDB7DEB7AA970FB6F894DEBF40
:101490000FBECDBF8C01F42EFE0131968AE2DF0132
:1014A0001D928A95E9F781E0898384E08A8392E03E
:1014B0009B8333E03D839E838F838AE8888785E022
:1014C00089878A8786E08B8783EC8C8787E08D8786
:1014D00088E08F8789E0898B89E18B8B92E49C8BF4
:1014E00085E28D8B80E48E8B89E28F8B8CED888FEB
:1014F0008EE2898F88E88A8F8FE28B8F8DE28C8FC6
:1015000080E38D8F37E33F8F30E938A338E339A389
:101510009AA39CE39BA39FE89CA39DE39DA392E1D8
:101520009EA39FE69FA388A78FEF89A76F3109F439
:1015300053C06B3209F44CC0663509F045C050C049
:10154000888B2E8FC80115DE4AEA6FE2C8015DDE86
:101550006FE2C80185DE8A3AB9F745E56FE2C80156
:1015600054DE6FE2C8017CDE8535B9F769816F3FD3
:10157000F1F080E090E0E12CFC01EE0FFF1F21E094
:1015800030E02C0F3D1FE20FF31F4181C8013DDE0B
:10159000E3948E2D90E0FC01EE0FFF1FA1E0B0E080
:1015A000AC0FBD1FEA0FFB1F60816F3F29F760E0A2
:1015B00070E0C8012EDF61E0C80180DE67E2C8018B
:1015C0004FDE8823DCF710C084EE8E8780ECB8CF26
:1015D0008CE68E8780E4B4CF8EE48E8780ECB0CF2B
:1015E00089ED8E8780E0ACCFE9E6F0E080818D7FE9
:1015F0008083E89A1093600100935F01F801F48200
:1016000081E0AA960FB6F894DEBF0FBECDBFDF9182
:10161000CF911F910F91FF90EF900895FF920F933C
:101620001F93CF93DF93EC0180916901833009F020
:1016300042C068E2CE0114DE82FF3DC061E0CE010F
:101640003DDECE01C4DD60E0CE01B9DD60E0CE015B
:10165000B6DD8093650180916501833418F4809133
:10166000650101C082E48093650160E0CE01A7DDE1
:10167000809366018D8181112BC0809166019C81D0
:10168000981731F1809166018F3FE9F421C0F12C68
:101690000F2D10E060E0CE0192DDF801E659FE4F1B
:1016A0008083F39480916801F81690F3CE0194DD65
:1016B00063E0CE0103DE60E0CE01E4DD90936201E1
:1016C000809361011EC010926501CE0185DD19C0B5
:1016D0008091650183508093680160E0CE016FDDE9
:1016E0008093670160E0CE016ADD982F9078909337
:1016F0006301807480936401809168018111C7CF78
:10170000D5CFDF91CF911F910F91FF900895BF9298
:10171000CF92DF92EF92FF920F931F93CF93DF93BD
:101720006C01C62FF42EB52E122F61E0C7DD67E2E3
:10173000C60196DD8823DCF740E065E2C60165DD81
:101740001E3308F01DE3C60142DD60E8C60137DD47
:10175000612F6D5FC60133DD6C2FC60130DDF601F0
:101760006481C6012CDDEE2031F060E8C60127DD82
:1017700011110BC014C0002321F060E4C6011FDD6D
:10178000F7CF60E0C6011BDDF3CF0F2DCF2DDB2D92
:101790006991C60114DD8C2F801B8117C8F3C60127
:1017A0001BDD64E0C6018ADD4A99FECF61E0C60117
:1017B00085DDDF91CF911F910F91FF90EF90DF902A
:1017C000CF90BF900895CF93DF93EC01FEDC809122
:1017D0006901833069F48091650181110EC008C0F0
:1017E000CE01F8DC80E00DC0CE01EADD80E009C06A
:1017F000809169018330C1F7F3CF61E0CE015EDDF6
:1018000081E0DF91CF910895CF92DF92EF92FF9226
:101810000F931F93CF93DF93EC016B01F42E109184
:10182000670102C0CE01CFDFCE01ACDD8823D1F34A
:10183000EE24E39400E02F2DA601612FCE0167DF97
:10184000DF91CF911F910F91FF90EF90DF90CF909C
:101850000895219A0895E1E8F0E080818083109254
:101860008000E4E6F0E08081886080832998089514
:10187000CF92DF92EF92FF92CF93DF936B017C01C7
:10188000E4E6F0E08081877F8083C114D104E10425
:10189000F10411F0411102C0DEDF4DC0D42F4B30F6
:1018A00008F0DAE060E072E18AE790E0A7019601D3
:1018B000EBD0CC24CA94DC2C7601C20ED31EE41EDD
:1018C000F51EC114D10481E0E806F10458F0CD2CD6
:1018D000DE2CEF2CFF2481E0C81AD108E108F108C2
:1018E000C4E001C0C1E0ED2FF0E0ED5FFE4F2081CC
:1018F00030E040E050E0C701B601C6D0D09287008A
:10190000C09286008091840090918500A0E0B0E0B4
:10191000C816D906EA06FB0620F4D0928500C092CC
:101920008400C061C09381003093890020938800B7
:1019300080E880938000DF91CF91FF90EF90DF905F
:10194000CF9008951F920F920FB60F9211242F93EC
:101950003F934F935F938F939F93EF93FF934091A8
:10196000C0005091C60048718091A90190E0019695
:101970008F7799272091A80130E02817390739F08F
:101980008093A901FC01E455FE4F508301C042E061
:101990004093A701FF91EF919F918F915F914F919C
:1019A0003F912F910F900FBE0F901F9018951F928F
:1019B0000F920FB60F9211248F939F93EF93FF9383
:1019C0009091AB018091AA01981779F08091AA01BA
:1019D00090E001968F7799278093AA01FC01E45D3E
:1019E000FD4F80818093C60005C0E1ECF0E080816E
:1019F0008F7D8083FF91EF919F918F910F900FBE0C
:101A00000F901F9018951092AB011092AA0110929E
:101A1000A9011092A801992324F422E02093C00088
:101A20009F779093C5008093C40088E98093C1009C
:101A300086E08093C20008956091AB0170E06F5F13
:101A40007F4F6F777727AB012091AA0130E02417F1
:101A50003507D1F3FB01E45DFD4F80836093AB015B
:101A6000E1ECF0E08081806280830895CF93DF9382
:101A7000EC018881882329F02196DEDF899181118C
:101A8000FCCFDF91CF910895A1E21A2EAA1BBB1BB8
:101A9000FD010DC0AA1FBB1FEE1FFF1FA217B3073A
:101AA000E407F50720F0A21BB30BE40BF50B661F50
:101AB000771F881F991F1A9469F760957095809514
:101AC00090959B01AC01BD01CF010895EE0FFF1F62
:0C1AD0000590F491E02D0994F894FFCFEC
:101ADC0088130000C864433228211D160B0255419F
:101AEC005254204F4B0D005246204F4B2100696E33
:101AFC00697469616C697A656421002B00080402C1
:0C1B0C000108601013000000000E0B0028
:00000001FF
