S01A00004953415F4F55444552454E5F5A454E4445522E7372656395
S113000045C0000033C100005CC000005AC00000BD
S113001058C0000056C0000054C0000052C0000088
S113002050C000004EC000004CC000004AC0000098
S113003048C0000046C000004EC0000042C000009E
S113004040C000003EC000005EC3000091C3000039
S113005038C0000036C0000034C0000032C00000C8
S113006030C000002EC00000010402000302048A14
S1130070050506C30B2019421E2C25802E882F2D22
S1130080370038003C8F3D106F20000011241FBE44
S1130090CFEFD8E0DEBFCDBF11E0A0E0B1E0EAE8E9
S11300A0F8E002C005900D92A430B107D9F722E020
S11300B0A4E0B1E001C01D92A936B207E1F730D047
S11300C0E2C39ECF82E084BD93E095BD80936E0031
S11300D08AEF87BD08951F920F920FB60F921124D5
S11300E08F939F93AF93BF938091040190910501E7
S11300F0A0910601B09107010196A11DB11D809345
S1130100040190930501A0930601B0930701BF91E8
S1130110AF919F918F910F900FBE0F901F901895E4
S1130120EAE7F0E080818F7780837894CBDF2FEF4C
S113013083ED90E3215080409040E1F700C000003F
S1130140E4E6F0E080818260808320E436E04EE0E3
S113015062E082E086D2FFCFE8980895E89A089595
S11301608EBD0DB407FEFDCF8EB508951F93CF93BA
S1130170DF93182FC92FF0DF2A988C2FF1DFD82FA7
S113018080E0C82F812FECDFC82B2A9AE7DF8C2F61
S11301909D2FDF91CF911F910895809156019091E9
S11301A057018F70909357018093560180915601A7
S11301B090915701886090935701809356018091E4
S11301C0560190915701D2CFCF92DF92EF92FF92D6
S11301D0CF936B017C018FEFC816D104E104F104C5
S11301E079F070F0C0E0CF5FF694E794D794C794A9
S11301F08FEFC816D104E104F10409F0A0F701C09F
S1130200C0E0809156019091570181FF0EC080910A
S11302105601909157018D7F909357018093560119
S11302208091560190915701A1DFC114D104E104DA
S1130230F104B1F03C2F20E0D701C601906E822B6F
S1130240932B94DF80915601909157018260909393
S1130250570180935601809156019091570186DF92
S1130260CF91FF90EF90DF90CF9008951F920F925F
S11302700FB60F9211241F932F933F934F935F93C5
S11302806F937F938F939F93AF93BF93CF93DF939A
S1130290EF93FF9361DF2A9880E062DFD82F80E03C
S11302A0C82F5EDFC82BDD232CF4809158018730E2
S11302B009F40FC12A9A52DFD0935501C093540117
S11302C0209154013091550133230CF0E1C0809109
S11302D05801873009F078C080915901811104C018
S11302E080915A018111FFC080915901E82FF0E0FB
S11302F0E85FFE4F10838F5F8093590120914F0177
S1130300309150012127122F12951227012E169594
S113031016951025012E169510251770022E232FE1
S1130320169507941795302D212706941795302597
S113033021273093500120934F01E0915201E33083
S113034018F58091590190E002976091510170E095
S11303503BD2892B09F4D2C017C0F0E0E050FF4F24
S113036080818F7006C0F0E0E050FF4F808182955D
S11303708F7080935201833038F490E0880F991F76
S11303800196806A9469F2DE80915B01882359F0BA
S113039090915901981728F480915901873408F4F1
S11303A077C0FBDE75C02091590180910A0130E0CD
S11303B090E00596281739072CF480915901873469
S11303C008F466C0EADE64C08091580188230CF00A
S11303D02FC0E0910A0180915801982F9F5F90935C
S11303E05801ED5F8E0FE82FF0E0E85FFE4F80814B
S11303F020914F01309150012827922F92959227F6
S1130400092E969596959025092E96959025977088
S1130410022E232F969507949795302D292706941D
S11304209795302529273093500120934F012DC0F3
S113043080915801982F9F5F90935801833009F160
S11304402CF4882399F08130F9F415C08B3019F01D
S11304508C30D1F402C08DE218C080915A012091F1
S11304600A019EEF921B909358010FC080914F0197
S1130470909150010AC080914F0190915001892FB1
S113048004C08BDE8AEA01C08AEA90E0986B6EDED3
S1130490809154019091550196FF03C086E08093AA
S11304A05801809154019091550194FF07C060E078
S11304B070E0CB0189DE81E0809353018091540187
S11304C09091550195FF21C068DE84E08093580126
S11304D01CC08CB581608CBD80E042DE182F8CB5C9
S11304E08E7F8CBDE7CE90915901E92FF0E0E85F53
S11304F0FE4F80839F5F90935901F6CE8091540103
S11305009091550190FD29CF2ECFFF91EF91DF916E
S1130510CF91BF91AF919F918F917F916F915F9197
S11305204F913F912F911F910F900FBE0F901F90ED
S113053018958EBD0DB407FEFDCF8EB50895CF93EB
S1130540C62FE8982A98F5DF8C2FF3DF2A9AE89AC9
S1130550CF91089560E0F3CF8068F1CF660F771FE5
S1130560881F991F660F771F881F991F29E03DE395
S113057040E050E03CD1DA01C901880F991FAA1F5D
S1130580BB1F880F991FAA1FBB1F880F991FAA1F83
S1130590BB1F880F991FAA1FBB1F880F991FAA1F73
S11305A0BB1F880F991FAA1FBB1F80935F019093E5
S11305B06001A0936101B09362010895CF93DF932A
S11305C02A9A229A2A9A84B18C6284B980E58CBDD5
S11305D08DB581608DBD6AEA8FE2BEDF8FE2BADF3E
S11305E08A3AC9F765E58FE2B7DF8FE2B3DF853575
S11305F0C9F7E8E6F0E08491882351F0EF01FE01A9
S113060031966491A9DF2296FE0184918111F7CF7E
S113061060915E0180E3A0DF80915F0190916001B1
S1130620A0916101B0916201BD018827992787E0FB
S113063093DF80915F0190916001A0916101B0917D
S11306406201692F7A2F8B2F992788E085DF6091CB
S11306505F0189E081DF84E080935C01DF91CF91C9
S11306600895CF92DF92EF92FF921F93CF93DF937F
S1130670C82F162FD42FF901623031F0633031F0D6
S1130680613031F0A0E005C0A6E503C0AAE501C0D1
S1130690ABE2B0E020E836E948E950E0D6D06B019F
S11306A07C01212F30E0A4ECB9E0C3D0DF019B0131
S11306B0AC01CBD06C0D7D1D8E1D9F1D4FDFD093E3
S11306C05E018C2F8F7180935D0187E893E1019720
S11306D0F1F700C0000080915D01882339F0E89AA9
S11306E0E9E6F0E080818360808301C0E89866DFFA
S11306F0C09363018C2FDF91CF911F91FF90EF90F6
S1130700DF90CF9008951F920F920FB60F9211248D
S11307102F933F934F935F938F939F93EF93FF9305
S11307204091C0005091C60048718091660190E0EC
S113073001968F7799272091650130E028173907B2
S113074039F080936601FC01E759FE4F508301C0E4
S113075042E040936401FF91EF919F918F915F91EB
S11307604F913F912F910F900FBE0F901F901895AE
S11307701F920F920FB60F9211248F939F93EF93B2
S1130780FF939091680180916701981779F08091A7
S1130790670190E001968F77992780936701FC01A8
S11307A0E751FE4F80818093C60005C0E1ECF0E084
S11307B080818F7D8083FF91EF919F918F910F9026
S11307C00FBE0F901F90189597FB072E16F40094F8
S11307D006D077FD08D043D007FC05D03EF49095B1
S11307E081959F4F0895709561957F4F0895A1E27B
S11307F01A2EAA1BBB1BFD010DC0AA1FBB1FEE1F97
S1130800FF1FA217B307E407F50720F0A21BB30BE1
S1130810E40BF50B661F771F881F991F1A9469F75D
S113082060957095809590959B01AC01BD01CF01B9
S11308300895A29FB001B39FC001A39F01D0B29FAE
S1130840700D811D1124911D0895F3DFA59F900D56
S1130850B49F900DA49F800D911D11240895AA1B8F
S1130860BB1B51E107C0AA1FBB1FA617B70710F097
S1130870A61BB70B881F991F5A95A9F780959095C9
S10D0880BC01CD010895F894FFCFE8
S107088A34025600DA
S9030000FC
