S01A00004953415F4F55444552454E5F5A454E4445522E7372656395
S113000034C00000CDC0000061C0000053C0000037
S113001051C000004FC000004DC000009CC0000053
S113002049C0000047C0000045C0000043C00000B4
S113003041C000003FC000003DC000003BC00000C4
S113004039C0000037C0000028C500005BC50000AF
S113005031C000002FC000002DC000002BC00000E4
S113006029C0000027C00000580111241FBECFEF93
S1130070D8E0DEBFCDBF11E0A0E0B1E0EEEEFBE0E2
S113008002C005900D92AE33B107D9F722E0AEE37A
S1130090B1E001C01D92A839B207E1F710E0CAE649
S11300A0D0E003C02297FE019CD5C836D107D1F712
S11300B09AD09BC5A5CFE99808954B9906C081E0D5
S11300C08093000180933E01F6CF08951F920F9212
S11300D00FB60F9211242F933F934F935F936F9317
S11300E07F938F939F93AF93BF93EF93FF93E5DF3A
S11300F0FF91EF91BF91AF919F918F917F916F91FC
S11301005F914F913F912F910F900FBE0F901F90D1
S1130110189557C5089582E08093B00094E09093B9
S1130120B100809370008AEF8093B30008950F9319
S11301301F938FB7F89400913F01109140012091D3
S11301404101309142018FBF602F712F822F932F75
S11301501F910F9108951F920F920FB60F921124C1
S11301608F939F93AF93BF9380913F0190914001F0
S1130170A0914101B09142010196A11DB11D80934E
S11301803F0190934001A0934101B0934201BF917C
S1130190AF919F918F910F900FBE0F901F90189564
S11301A01F920F920FB60F9211242F933F934F93E8
S11301B05F936F937F938F939F93AF93BF93EF93CB
S11301C0FF9399D0FF91EF91BF91AF919F918F9140
S11301D07F916F915F914F913F912F910F900FBE3F
S11301E00F901F901895EAE7F0E080818F77808365
S11301F0789491DF2FEF83ED90E32150804090407D
S1130200E1F700C0000080E190E0A8D483E091E031
S113021080DF2FEF83ED90E3215080409040E1F7A1
S113022000C000008CE091E074DF2FEF83ED90E3D9
S1130230215080409040E1F700C000002EE043E0F0
S113024066E583E491E0EAD189E191E062DF2FEF92
S113025086E791E0215080409040E1F700C0000023
S11302600F2EF2E3EF2EF02D02E322E041E051E005
S113027062E083E491E0C3D3882369F089E291E0EA
S113028048DF2FEF86E791E0215080409040E1F76E
S113029000C00000D9CF80E391E03BDF2FEF86E779
S11302A091E0215080409040E1F700C00000CCCFA5
S11302B08BE391E0909344018093430182E0809327
S11302C045018093460181E08093550110924801D5
S11302D08FE18093490110924A01089584B18C62A0
S11302E084B92A9A249880E58CBD8DB581608DBD32
S11302F052985A9A089580914B0190914C01DC01D7
S1130300ED91FC910190F081E02D099508952A98D2
S113031008952A9A08956EBD0DB407FEFDCF8EB5DB
S113032008950F931F93CF93DF93EC01062F142F9F
S1130330EEDF602FCE01EFDF612FCE01ECDF182F4F
S1130340CE01E7DF812FDF91CF911F910F910895A7
S11303500F931F93CF93DF93EC01062F142FD7DF56
S1130360602F6068412FCE01DCDFCE01D2DFDF9148
S1130370CF911F910F910895CF93DF93EC016111F9
S11303800AC004C06CE5CE01E3DF0AC045E56AE5B6
S1130390DFDF40E7F7CF4DE56AE5DADF4CE7F2CF80
S11303A0DF91CF9108951F93CF93DF93EC01162F24
S11303B0AEDF612F6F7740E0CE01B3DF182FCE019F
S11303C0A8DF812FDF91CF911F910895CF93DF9301
S11303D0EC01662341F041E063E2BADF63E2CE015F
S11303E0E2DF81FFFBCF64E2CE01DDDF282F30E0C6
S11303F031952195310935952795822F932FDF91DA
S1130400CF9108951F93CF93DF93EC01162F809122
S11304105501861709F456C0623069F138F4662331
S113042009F43DC0613009F04DC02FC0633099F02C
S1130430643009F047C061E0CE01B5DF837E482F08
S11304404C6061E0CE0184DF8F81882381F161E01B
S1130450CE0192DF2CC061E0CE01A5DF837E482F60
S1130460406161E0CE0174DF8F81882301F160E097
S1130470CE0182DF1CC061E0CE0195DF837E482F70
S1130480486061E0CE0164DF12C061E0CE018BDF21
S1130490837E482F446061E0CE015ADF08C061E0EA
S11304A0CE0181DF482F437E61E0CE0151DF809190
S11304B05501811105C067E2CE0175DF8823BCF7C1
S11304C010935501DF91CF911F910895CF93DF933E
S11304D0EC0180915501833079F4809151018111AF
S11304E00DC060E0CE0172DF863A9F4F4CF461E0AC
S11304F0CE0188DF81E005C080E003C080E001C058
S113050080E0DF91CF910895CF93DF93EC011092B7
S11305105401109253011092520110925101109201
S1130520500110924F0110924E0110924D0168E259
S11305303ADF82FF08C06DE3CE0135DF482F446007
S11305406DE3CE0105DF40E465E2CE0101DF63E047
S1130550CE0158DFDF91CF910895209155012330CA
S113056051F42091510121110BC005C0CDDF80E071
S1130570089580E00895209155012330B9F7F9CF0B
S113058061E040DF81E00895CF93C62FE6DF882342
S113059069F0809153018C1711F0CF3F49F4909189
S11305A04F0181E0911105C080E003C080E001C0EB
S11305B080E0CF910895DF92EF92FF920F931F9303
S11305C0CF93DF938C017B0161E01CDFE114F10424
S11305D081F0C8019CDE6EEBC8019DDEE701D12CE1
S11305E06991C80198DED39480E1D812F9CFC8018B
S11305F090DE6DE3C801D7DE8E7F91E0EF2809F429
S113060090E0482F492B6DE3C801A2DEDF91CF9122
S11306101F910F91FF90EF90DF900895EF92FF925A
S11306200F931F93CF93DF93CDB7DEB7AA970FB67F
S1130630F894DEBF0FBECDBF8C01F42EFE013196BF
S11306408AE2DF011D928A95E9F781E0898384E0DB
S11306508A8392E09B8333E03D839E838F838AE881
S1130660888785E089878A8786E08B8783EC8C87F7
S113067087E08D8788E08F8789E0898B89E18B8B80
S113068092E49C8B85E28D8B80E48E8B89E28F8B48
S11306908CED888F8EE2898F88E88A8F8FE28B8F2A
S11306A08DE28C8F80E38D8F37E33F8F30E938A361
S11306B038E339A39AA39CE39BA39FE89CA39DE3FF
S11306C09DA392E19EA39FE69FA388A78FEF89A78E
S11306D06F3109F453C06B3209F44CC0663509F02C
S11306E045C050C0888B2E8FC801F8DD4AEA6FE2FE
S11306F0C8012EDE6FE2C80156DE8A3AB9F745E535
S11307006FE2C80125DE6FE2C8014DDE8535B9F719
S113071069816F3FF1F080E090E0E12CFC01EE0F85
S1130720FF1F21E030E02C0F3D1FE20FF31F41813A
S1130730C8010EDEE3948E2D90E0FC01EE0FFF1F46
S1130740A1E0B0E0AC0FBD1FEA0FFB1F60816F3F5B
S113075029F760E070E0C8012EDF61E0C80152DED5
S113076067E2C80120DE8823DCF710C084EE8E87A0
S113077080ECB8CF8CE68E8780E4B4CF8EE48E878D
S113078080ECB0CF89ED8E8780E0ACCFE9E6F0E075
S113079080818E7F8083808182608083E89A109339
S11307A04C0100934B01F801F48281E0AA960FB644
S11307B0F894DEBF0FBECDBFDF91CF911F910F9193
S11307C0FF90EF900895FF920F931F93CF93DF93C1
S11307D0EC0180915501833009F042C068E2CE01FA
S11307E0E2DD82FF3DC061E0CE010CDECE018FDD93
S11307F060E0CE0190DD60E0CE018DDD809351019B
S113080080915101833418F48091510101C082E434
S11308108093510160E0CE017EDD809352018D8191
S113082081112BC0809152019C81981731F18091E4
S113083052018F3FE9F421C0F12C0F2D10E060E04C
S1130840CE0169DDF801EA5AFE4F8083F39480916A
S11308505401F81690F3CE015CDD63E0CE01D2DDE5
S113086060E0CE01B3DD90934E0180934D011EC034
S113087010925101CE014DDD19C080915101835078
S11308808093540160E0CE0146DD8093530160E023
S1130890CE0141DD982F907890934F01807480931E
S11308A05001809154018111C7CFD5CFDF91CF91F1
S11308B01F910F91FF900895BF92CF92DF92EF9214
S11308C0FF920F931F93CF93DF936C01C62FF42EE7
S11308D0B52E122F61E096DD67E2C60164DD882340
S11308E0DCF740E065E2C60133DD1E3308F01DE3AA
S11308F0C6010DDD60E8C6010EDD612F6D5FC60126
S11309000ADD6C2FC60107DDF6016481C60103DD33
S1130910EE2031F060E8C601FEDC11110BC014C0FA
S1130920002321F060E4C601F6DCF7CF60E0C601E5
S1130930F2DCF3CF0F2DCF2DDB2D6991C601EBDC5B
S11309408C2F801B8117C8F3C601E3DC64E0C60169
S113095059DD89B161E0C60155DDDF91CF911F9169
S11309600F91FF90EF90DF90CF90BF9008954F923A
S11309705F926F927F929F92AF92BF92CF92DF92DB
S1130980EF92FF920F931F93CF93DF93EC01162FF7
S11309905A01922E6DE307DD482F44606DE3CE01CA
S11309A0D7DCC5DB2B013C0102C0CE01D6DDCE0174
S11309B08DDD81110EC0BBDB6B017C01C418D50831
S11309C0E608F70888EEC81683E0D806E104F104C7
S11309D060F3E12C292DA501612FCE016DDFDF919C
S11309E0CF911F910F91FF90EF90DF90CF90BF9028
S11309F0AF909F907F906F905F904F9008953F923B
S1130A004F925F926F927F928F929F92AF92BF921A
S1130A10CF92DF92EF92FF920F931F93CF93DF93C6
S1130A20EC01162F5A01922E302E812C4E2C512C73
S1130A30612C712C01E0292DA501612FCE0197DFD6
S1130A4076DB6B017C0105C0612FCE019DDD811138
S1130A5011C06DDBDC01CB018C199D09AE09BF0906
S1130A6084159505A605B70578F38394381410F713
S1130A7080E001C081E0DF91CF911F910F91FF9041
S1130A80EF90DF90CF90BF90AF909F908F907F902A
S1130A906F905F904F903F9008951F920F920FB602
S1130AA00F9211242F933F934F935F938F939F93B0
S1130AB0EF93FF934091C0005091C600487180911C
S1130AC0950190E001968F7799272091940130E069
S1130AD02817390739F080939501FC01E856FE4F39
S1130AE0508301C042E040939301FF91EF919F91A5
S1130AF08F915F914F913F912F910F900FBE0F9067
S1130B001F9018951F920F920FB60F9211248F9376
S1130B109F93EF93FF93909197018091960198177B
S1130B2079F08091960190E001968F7799278093D0
S1130B309601FC01E85EFD4F80818093C60005C0EC
S1130B40E1ECF0E080818F7D8083FF91EF919F91B4
S1130B508F910F900FBE0F901F90189510929701D0
S1130B60109296011092950110929401992324F405
S1130B7022E02093C0009F779093C5008093C40027
S1130B8088E98093C10086E08093C2000895609153
S1130B90970170E06F5F7F4F6F777727AB012091EC
S1130BA0960130E024173507D1F3FB01E85EFD4FD1
S1130BB0808360939701E1ECF0E080818062808320
S1130BC00895CF93DF93EC018881882329F021963F
S1130BD0DEDF89918111FCCFDF91CF910895EE0F73
S1110BE0FF1F0590F491E02D0994F894FFCFC7
S1130BEE01991855415254204F4B0D005246313243
S1130BFE20494E49542E2E2E0053656E64205061AA
S1130C0E636B6167652E2E2E0041434B204F4B00C4
S1110C1E4E4F2041434B0000000000E3030052
S9030000FC
