:10000000ECC20000E3C300000FC300000DC30000FA
:100010000BC3000009C3000007C30000C3C70000F2
:1000200003C3000001C30000FFC20000FDC20000C6
:10003000FBC20000F9C2000084C30000F5C200004A
:10004000F3C20000F1C200000C94D50B0C940A0C12
:10005000EBC20000E9C20000E7C20000E5C20000F8
:10006000E3C20000E1C200000C0B0A0F0E0D0708EE
:1000700009020100DC050000F4010000000000009E
:10008000C8000000B0040000F401000000000000FF
:10009000E8030000DC050000F4010000000000009F
:1000A000C8000000B0040000F401000000000000DF
:1000B000DC050000E803000028000000EE0200005C
:1000C00028000000E803000028000000EE02000005
:1000D00028000000E803000028000000EE020000F5
:1000E00028000000E803000028000000EE020000E5
:1000F00028000000E803000028000000EE020000D5
:1001000028000000E803000028000000EE020000C4
:1001100028000000E803000028000000EE020000B4
:1001200028000000E803000028000000EE020000A4
:1001300028000000E803000028000000EE02000094
:1001400028000000E803000028000000EE02000084
:1001500028000000E803000028000000EE02000074
:1001600028000000E803000028000000EE02000064
:1001700028000000E803000028000000EE02000054
:1001800028000000E803000028000000EE02000044
:1001900028000000E803000028000000EE02000034
:1001A0002800000000000000E8030000E803000051
:1001B00028000000EE02000028000000E803000014
:1001C00028000000EE02000028000000E803000004
:1001D00028000000EE02000028000000E8030000F4
:1001E00028000000EE02000028000000E8030000E4
:1001F00028000000EE02000028000000E8030000D4
:1002000028000000EE02000028000000E8030000C3
:1002100028000000EE02000028000000E8030000B3
:1002200028000000EE02000028000000E8030000A3
:1002300028000000EE02000028000000E803000093
:1002400028000000EE02000028000000E803000083
:1002500028000000EE02000028000000E803000073
:1002600028000000EE02000028000000E803000063
:1002700028000000EE02000028000000E803000053
:1002800028000000EE02000028000000E803000043
:1002900028000000EE02000028000000000000001E
:1002A000E8030000E803000028000000EE02000060
:1002B00028000000E803000028000000EE02000013
:1002C00028000000E803000028000000EE02000003
:1002D00028000000E803000028000000EE020000F3
:1002E00028000000E803000028000000EE020000E3
:1002F00028000000E803000028000000EE020000D3
:1003000028000000E803000028000000EE020000C2
:1003100028000000E803000028000000EE020000B2
:1003200028000000E803000028000000EE020000A2
:1003300028000000E803000028000000EE02000092
:1003400028000000E803000028000000EE02000082
:1003500028000000E803000028000000EE02000072
:1003600028000000E803000028000000EE02000062
:1003700028000000E803000028000000EE02000052
:1003800028000000E803000028000000EE02000042
:100390002800000000000000E8030000000000004A
:1003A000000000000000000000000000000000004D
:1003B00000000000D00700002C0100000000000039
:1003C0002C010000D00700002C01000000000000FC
:1003D0002C010000D00700002C01000000000000EC
:1003E0002C010000D00700002C01000000000000DC
:1003F0002C010000D00700002C01000000000000CC
:100400002C010000D00700002C01000000000000BB
:100410002C010000D00700002C01000000000000AB
:100420002C010000D00700002C010000000000009B
:100430002C0100001C070000C8000000A5050000FA
:10044000C80000001C070000C8000000A50500004F
:10045000C80000001C070000C8000000A50500003F
:10046000C80000001C070000C8000000A50500002F
:10047000C800000000000000E80300001C070000A6
:10048000C8000000A5050000C80000001C0700000F
:10049000C8000000A5050000C80000001C070000FF
:1004A000C8000000A5050000C80000001C070000EF
:1004B000C8000000A5050000C80000000000000002
:1004C000E80300000000000000000000FFFFFFFF45
:1004D000C800000000000000C8000000FFFFFFFF90
:1004E000C800000000000000C8000000FFFFFFFF80
:1004F000C800000000000000C8000000FFFFFFFF70
:10050000C800000000000000C800000000FF00FF5D
:1005100032000000000000003200000000FF00FF79
:1005200032000000000000003200000000FF00FF69
:10053000320000000000000032000000FF00FF0059
:10054000320000000000000032000000FF00FF0049
:10055000320000000000000032000000FF00FF0039
:1005600032000000000000003200000000FF00FF29
:1005700032000000000000003200000000FF00FF19
:1005800032000000000000003200000000FF00FF09
:10059000320000000000000032000000FF00FF00F9
:1005A000320000000000000032000000FF00FF00E9
:1005B000320000000000000032000000FF00FF00D9
:1005C0003200000000000000320000003DF5000095
:1005D000B8F5FF0000FFFF00450811241FBECFEF54
:1005E000D8E0DEBFCDBF11E0A0E0B1E0E4E5F9E185
:1005F00002C005900D92A434B107D9F722E0A4E41B
:10060000B1E001C01D92AA3FB207E1F715E0CAEDC3
:10061000D5E004C02297FE010E949B0CC83DD10783
:10062000C9F7F7D00C94A80CEBCC88E48093B80001
:100630000895ECEBF0E0108294EA90839081992386
:10064000ECF79091B900987F9830A1F48093BB00AB
:1006500084E88093BC00ECEBF0E080818823ECF729
:100660009091B900987F983139F081E0903429F465
:1006700080E0089581E0089580E008958093BB00B4
:1006800084E88093BC00ECEBF0E080818823ECF7F9
:100690009091B900987F81E0983209F480E0089544
:1006A00084EC8093BC00ECEBF0E080818823ECF7D5
:1006B0008091BB00089584E98093BC0008950C9458
:1006C000690C089582E084BD93E095BD80936E002F
:1006D0008AEF87BD08950F931F938FB7F894009109
:1006E00044011091450120914601309147018FBF8F
:1006F000602F712F822F932F1F910F910895E4E6A1
:10070000F0E080818F7D8083EEE6F0E08081826082
:1007100080830895EEE6F0E080818D7F8083E4E6BB
:10072000F0E080818062808308958FB7F894109202
:1007300044011092450110924601109247018FBF6B
:1007400008951F920F920FB60F9211248F939F93CB
:10075000AF93BF938091440190914501A0914601D0
:10076000B09147010196A11DB11D80934401909362
:100770004501A0934601B0934701BF91AF919F916E
:100780008F910F900FBE0F901F90189582E080936D
:10079000B00085E08093B1008DE78093B3000895A9
:1007A000E4E6F0E080818F7B8083E0E7F0E0808109
:1007B000826080830895E0E7F0E080818D7F808310
:1007C000E4E6F0E080818064808308951F920F92B8
:1007D0000FB60F9211242F933F934F935F936F9314
:1007E0007F938F939F93AF93BF93EF93FF936BD5BB
:1007F000FF91EF91BF91AF919F918F917F916F91F9
:100800005F914F913F912F910F900FBE0F901F90CE
:100810001895EAE7F0E080818F778083789452DF43
:100820002FEF83ED90E3215080409040E1F700C02E
:10083000000042D743D7AADFBEDF80E190E00E94EC
:10084000360CEFEFF3ED20E3E150F0402040E1F70C
:1008500000C000008EE091E032DF8FEF93EDE0E327
:1008600081509040E040E1F700C00000DEDE1AD485
:10087000C3E08FEF5DD4FFEF21EE84E0F150204024
:100880008040E1F700C0000080E052D49FEFE1EE2D
:10089000F4E09150E040F040E1F700C00000C150AA
:1008A00041F70F2EF5E0CF2EF02D0F2EF6E0EF2EB4
:1008B000F02D00E02EE042E062E088E491E098D480
:1008C00044EF51E060E070E088E491E0DFD687E13A
:1008D00091E0F5DE2FEF83ED90E3215080409040D2
:1008E000E1F700C000006FEF81E011D4EFEFF7E80F
:1008F00023E1E150F0402040E1F700C000006FEF3D
:1009000088E005D48FEF97E8E3E181509040E04024
:10091000E1F700C000006FEF8BE0F9D3FFEF27E8AD
:1009200083E1F15020408040E1F700C000006FEF0C
:100930008EE0EDD39FEFEFE0F7E29150E040F04022
:10094000E1F700C0000080E0F3D381E001D481E052
:10095000809364018EE191E0B2DE2FEF83ED90E3AE
:10096000215080409040E1F700C000000F2EFCE3D2
:100970002F2EF1E03F2EF02D812C912C482C592C5C
:100980000F2EF4E6AF2EB12CF02D6624639488E48C
:1009900091E06FD5882309F4CEC08091EB0190914E
:1009A000EC018F309D4121F48BE291E088DE03C0A1
:1009B00082E391E084DE8091EB019091EC018F3035
:1009C0009D4129F788E491E054D6882359F020E02E
:1009D00040E066E171E088E491E022D6662D88E48B
:1009E00091E0D9D588E491E041D6FC018081893934
:1009F00071F688E491E03AD6FC017180372D3071B0
:100A000074FE06C08091630187298093630107C04B
:100A1000872D8095909163018923809363012091B4
:100A20006301822F8F7009F47DC080915F019091E6
:100A30006001A0916101B0916201892B8A2B8B2BFF
:100A4000B9F51092640123FD0CC022FD06C021FD02
:100A500006C020FF0BC083E005C0862D03C082E0E6
:100A600001C080E080935E01809353015EDE47DE2B
:100A700032DE0091000110910101209102013091BC
:100A80000301DC01CB01800F911FA21FB31F8093D4
:100A90005F0190936001A0936101B0936201F50141
:100AA00080818F778083C1DD80E052D379DE6FCF84
:100AB00031115EC071018401F70121917F0127216D
:100AC00099F0C42DD52D6801CC0CDD1CC00ED11EB3
:100AD000F601EC0FFD1FE859FF4F849160E017D33A
:100AE0002196C330D105A1F70F5F1F4F04301105C8
:100AF00019F74DCFF0DD0091000110910101209117
:100B0000020130910301DC01CB01800F911FA21F74
:100B1000B31F80935F0190936001A0936101B09334
:100B2000620135CF10925F01109260011092610155
:100B3000109262012CCF80916401813071F483B7EF
:100B4000817F8C6083BF83B7816083BF85B78066F8
:100B500085BF8F7D85BF889507C083B7817F83BFA1
:100B600083B7816083BF889583B78E7F83BF0FCFA4
:100B7000872D8F7009F40BCFBDCF0F931F938091FA
:100B8000590190915A01A0915B01B0915C01892BB0
:100B90008A2B8B2B81F09FDD0091590110915A0116
:100BA00020915B0130915C01601771078207930708
:100BB00008F4EFC083D580915E0181112EC0E091D1
:100BC0005D01F0E0EE0FFF1FEE0FFF1FEE0FFF1FA6
:100BD000EC58FF4F6591749180E090E041E07BD547
:100BE0007ADDE0915D01F0E0EE0FFF1FEE0FFF1FD9
:100BF000EE0FFF1FE858FF4F25913491DC01CB0128
:100C0000820F931FA11DB11D8093590190935A012A
:100C1000A0935B01B0935C018FC0813071F5E091CE
:100C20005D01F0E0EE0FFF1FEE0FFF1FEE0FFF1F45
:100C3000EC54FF4F6591749180E090E041E04BD51A
:100C40004ADDE0915D01F0E0EE0FFF1FEE0FFF1FA8
:100C5000EE0FFF1FE854FF4F25913491DC01CB01CB
:100C6000820F931FA11DB11D8093590190935A01CA
:100C7000A0935B01B0935C015FC0823071F5E0919D
:100C80005D01F0E0EE0FFF1FEE0FFF1FEE0FFF1FE5
:100C9000EC54FC4F6591749180E090E041E01BD5ED
:100CA0001ADDE0915D01F0E0EE0FFF1FEE0FFF1F78
:100CB000EE0FFF1FE854FC4F25913491DC01CB016E
:100CC000820F931FA11DB11D8093590190935A016A
:100CD000A0935B01B0935C012FC0833069F5E09174
:100CE0005D01F0E0EE0FFF1FEE0FFF1FEE0FFF1F85
:100CF000EC5CFB4F6591749180E090E041E0EBD4B7
:100D0000EADCE0915D01F0E0EE0FFF1FEE0FFF1F48
:100D1000EE0FFF1FE85CFB4F25913491DC01CB0106
:100D2000820F931FA11DB11D8093590190935A0109
:100D3000A0935B01B0935C0150915D0140915E0115
:100D4000252F30E0E42FF0E0E05CFE4F808190E062
:100D5000019728173907D4F020916301922F9F70D3
:100D600030E04F5F443009F4432FE42FF0E0E45CBF
:100D7000FE4F8081911103C040935E0104C0822325
:100D800081F340935E0110925D0103C05F5F509359
:100D90005D011F910F9108950F931F93CF93DF93E0
:100DA0008091540190915501A0915601B091570145
:100DB000892B8A2B8B2B09F448C08DDC00915401C0
:100DC000109155012091560130915701601771071C
:100DD0008207930708F039C03BC080915801FE019B
:100DE00098E0899FE00DF11D1124E453FB4F6491BD
:100DF0008C2F8D5F8CD12196C430D10571F76BDCBF
:100E000040915801E42FF0E0EE0FFF1FEE0FFF1F9F
:100E1000EE0FFF1FE053FB4F25913491DC01CB0116
:100E2000820F931FA11DB11D809354019093550112
:100E3000A0935601B09357014F3119F41092580105
:100E400007C04F5F4093580103C0C0E0D0E0C5CF5A
:100E5000DF91CF911F910F9108950F931F93CF931F
:100E6000DF9380914E0190914F01A0915001B0917C
:100E70005101892B8A2B8B2B79F02DDC00914E01AF
:100E800010914F012091500130915101601771076D
:100E90008207930708F481C020915201222319F0A0
:100EA0002B3021F512C017DCDC01CB0186579D4F9A
:100EB000AF4FBF4F80934E0190934F01A0935001CD
:100EC000B0935101CFEFD0E025C005DCDC01CB01B0
:100ED0000196A11DB11D80934E0190934F01A093E7
:100EE0005001B0935101CFEFD0E014C037EE320380
:100EF000E0011124C650DF4FEEDBDC01CB014E9642
:100F0000A11DB11D80934E0190934F01A0935001FC
:100F1000B093510100E010E08091530190E09C01FA
:100F2000220F331F820F931F800F911FFC01E45388
:100F3000FA4F4491FC01E859FF4F84914C9F900176
:100F40004D9F300D1124632FE2D00F5F1F4F0330F0
:100F5000110511F7809152018B30E1F4109252018A
:100F600030916301232F2F708091530140E08F5FF8
:100F7000843009F4842FE82FF0E0E45CFE4F908188
:100F8000211103C08093530108C0932381F3809300
:100F9000530103C08F5F80935201DF91CF911F9166
:100FA0000F9108951F920F920FB60F9211240F9375
:100FB0001F932F933F934F935F936F937F938F93E1
:100FC0009F93AF93BF93EF93FF9385DB00915F01F6
:100FD00010916001209161013091620160177107E9
:100FE0008207930720F4012B022B032BC1F51092EB
:100FF0005D011092590110925A0110925B011092FA
:101000005C011092580110925401109255011092F7
:101010005601109257011092520110924E011092F7
:101020004F011092500110925101109263011092E1
:101030005F0110926001109261011092620180E0E4
:1010400077D081E085D0E4E6F0E08081806880831D
:1010500061DB34D3B0DB81E08093640103C08DDDBC
:101060009BDEFBDEFF91EF91BF91AF919F918F913E
:101070007F916F915F914F913F912F911F910F91B0
:101080000F900FBE0F901F9018958AE691E09093F5
:101090004B0180934A0188E691E090934D01809343
:1010A0004C01089580E8C5DA80E8E8DA80E8E6DAFD
:1010B00082E0E4DA81E0E2DA81E0E0DA81E0DEDABF
:1010C00081E0DCDA81E0DADA81E0D8DA81E0D6DAD0
:1010D00081E0D4DA81E0D2DA81E0D0DA81E0CEDAE0
:1010E00081E0CCDA81E0CADA81E0C8DA81E0C6DAF0
:1010F00081E0C4DA8FEFC2DA80E0C0DA8AEABEDAD1
:101100008AEABCDA8AEABADA8AEAB8DAD4CACF93C7
:10111000DF93D82FC62F80E88CDA8D2F8E5F806802
:10112000ADDA8C2FABDAC7DA81E0DF91CF91089589
:10113000CF93DF93D82F80E87CDA82E89FDAC0E192
:101140008D2F9CDAC150E1F7B6DADF91CF91089587
:10115000CF93C82F81E86DDA80E890DAA1DACC234A
:1011600011F0806101C08F7E89DAC82FA4DA8C2F3C
:10117000CF91089584B18C6284B92A9A249880E52D
:101180008CBD8DB581608DBD52985A9A08958EBDE3
:101190000DB407FEFDCF8EB508951F93CF93DF9357
:1011A000182F8CB581608CBD2A98892FF0DFD82F3D
:1011B00080E0C82F812FEBDF2A9A9CB59E7F9CBDD3
:1011C000C82B8C2F9D2FDF91CF911F910895CF9326
:1011D000C82F2A98892FDBDF8C2FD9DF2A9ACF914D
:1011E0000895E9E6F0E080818D7F8083E89A089594
:1011F000EF920F931F93CF93DF93EC01142F609323
:10120000F4012093F301B6DF80E090E0E0DF85E0B9
:1012100092E8DDDF80E098EBDADF4A9905C080E0F4
:1012200090E0D5DF4A9BFBCF20E1129FC001112443
:10123000876C9068CCDF80E496EAC9DF8E2D90E061
:10124000966CC5DF82EA94E9C2DF8CEA92ECBFDFDC
:101250008091F301882349F083E89AECB8DF80910C
:10126000F30190E09E6CB3DF06C08BE89AECAFDF31
:101270008DE29EECACDF83E894ECA9DF083028F423
:10128000802F90E08065986902C087E598E99FDF2C
:1012900087E79CEC9CDF80E090EE99DF80E098ECA3
:1012A00096DF83E490EC93DF84E08093ED018091FE
:1012B000F401882311F0CE0194DFDF91CF911F91CB
:1012C0000F91EF90089580E090E081DF8091ED0133
:1012D000853009F048C080E090EB5FDF9091EE012F
:1012E000911104C09091F3019111A7C09091EE016A
:1012F000E92FF0E0EB59FE4F80839F5F9093EE0162
:101300002091EB013091EC013827032E0294802DBF
:101310008F708327932F9025990F907E8927902D8A
:101320009327907F9695032E000C991F369536953E
:1013300036953F7139273227282F3093EC012093BF
:10134000EB012091EE018091660130E090E004967F
:10135000281739072CF48091EE01863808F478C0FC
:101360008DE092E834CF8091ED0188230CF031C0FC
:10137000E09166018091ED01982F9F5F9093ED01C0
:10138000EE5F8E0FE82FF0E0EB59FE4F8081209149
:10139000EB013091EC013827032E0294902D9F70C1
:1013A0009327432F4025440F407E9427402D432709
:1013B000407F4695032E000C441F36953695369592
:1013C0003F7134273227292F3093EC012093EB0112
:1013D00031C08091ED01982F9F5F9093ED01833094
:1013E00019F12CF4882391F0813019F517C0893058
:1013F00019F08A30F1F402C08DE21CC08091F30133
:101400009091660190959093ED0114C08091EB014D
:101410009091EC0180959095892F0CC08091EB0103
:101420009091EC01809506C08DE092E8D0DE8AEACA
:1014300001C08AEA90E09854CACE2091EE01E22FD2
:10144000F0E0EB59FE4F90832F5F2093EE014ECFDB
:101450000895109266011092EE018FE09DE1909345
:10146000EC018093EB0185E08093ED018DED92E836
:10147000AECE2091ED01253069F54091EE0120912D
:10148000660150E030E02C5F3F4F421753075CF598
:101490002091EE01263838F51DC021E030E0309370
:1014A000EC012093EB01209167012F7739F0309107
:1014B00067013F772091F40132130CC02091EB01BA
:1014C0003091EC01232BD9F4DC01ED91FC913097A4
:1014D00091F415C02091ED01243019F4BADF80E0B9
:1014E000089580E0089524E02093ED0120916601A5
:1014F000213898F6D8CF80E0099581E008958FEFE4
:101500009FEFDC018093EF019093F001A093F10134
:10151000B093F20181E008958091ED01853079F476
:101520008091EE0181110DC032DE80FD0CC08DE096
:1015300092E84DDE84E08093ED0181E0089580E043
:10154000089580E0089580E00895609367013091E8
:10155000F40130936801222311F020E801C020E05B
:10156000442311F030E401C030E0232B20936901C3
:10157000DC01ED91FC91309711F081E009958FE04D
:101580009DE19093EC018093EB0186E08093ED0167
:101590008DE392E81CCE34E020E04CE016C06623D8
:1015A000A1F083B7817F633021F0623021F4942F62
:1015B00003C0932F01C0922F892B83BF83B7816013
:1015C00083BF889583B78E7F83BF8091ED01843080
:1015D00031F70895CF92EF920F931F93CF93DF933C
:1015E000EC01162F642F752FE6E6F1E02083908141
:1015F0009D5F9083EAE6F1E0422F50E08E2F9F2F0F
:101600009ED12E2D402F612FCE019FDF6C2DCE015C
:10161000C2DFDF91CF911F910F91EF90CF9008958E
:10162000AF92BF92CF92EF920F931F93CF93DF931E
:10163000EC015B01142FC22E02C0CE011ADFCE01D5
:101640006BDF8823D1F3609168016F77EE24E39418
:1016500000E0212FA501CE01BDDFDF91CF911F91C9
:101660000F91EF90CF90BF90AF9008958AE691E0F0
:1016700008958091690186FF07C080916701809578
:10168000881F8827881F089580E008954F3F5105DF
:101690006105710559F050F0769567955795479516
:1016A0004F3F51056105710509F0B0F78AEF91EEE2
:1016B0008EDD83E398EC8BCD219A0895E1E8F0E08C
:1016C0008081808310928000E4E6F0E08081886071
:1016D000808329980895CF92DF92EF92FF92CF9363
:1016E000DF936B017C01E4E6F0E08081877F8083FB
:1016F000C114D104E104F10411F0411102C0DEDF94
:101700004DC0D42F4B3008F0DAE060E072E18AE798
:1017100090E0A7019601EBD0CC24CA94DC2C760192
:10172000C20ED31EE41EF51EC114D10481E0E806EA
:10173000F10458F0CD2CDE2CEF2CFF2481E0C81AE8
:10174000D108E108F108C4E001C0C1E0ED2FF0E0EC
:10175000ED5FFE4F208130E040E050E0C701B60170
:10176000C6D0D0928700C09286008091840090916C
:101770008500A0E0B0E0C816D906EA06FB0620F412
:10178000D0928500C0928400C061C09381003093E4
:1017900089002093880080E880938000DF91CF91BA
:1017A000FF90EF90DF90CF9008951F920F920FB6A9
:1017B0000F9211242F933F934F935F938F939F9397
:1017C000EF93FF934091C0005091C6004871809103
:1017D000F70190E001968F7799272091F60130E08C
:1017E0002817390739F08093F701FC01E650FE4FC6
:1017F000508301C042E04093F501FF91EF919F912A
:101800008F915F914F913F912F910F900FBE0F904D
:101810001F9018951F920F920FB60F9211248F935D
:101820009F93EF93FF939091F9018091F80198179E
:1018300079F08091F80190E001968F779927809355
:10184000F801FC01E658FD4F80818093C60005C079
:10185000E1ECF0E080818F7D8083FF91EF919F919B
:101860008F910F900FBE0F901F9018951092F90155
:101870001092F8011092F7011092F601992324F4C6
:1018800022E02093C0009F779093C5008093C4000E
:1018900088E98093C10086E08093C200089560913A
:1018A000F90170E06F5F7F4F6F777727AB01209171
:1018B000F80130E024173507D1F3FB01E658FD4F5E
:1018C00080836093F901E1ECF0E0808180628083A5
:1018D0000895CF93DF93EC018881882329F0219626
:1018E000DEDF89918111FCCFDF91CF910895A1E2D4
:1018F0001A2EAA1BBB1BFD010DC0AA1FBB1FEE1F8A
:10190000FF1FA217B307E407F50720F0A21BB30BD4
:10191000E40BF50B661F771F881F991F1A9469F750
:1019200060957095809590959B01AC01BD01CF01AC
:101930000895EE0FFF1F0590F491E02D0994FB012F
:10194000DC0102C001900D9241505040D8F708953B
:04195000F894FFCF39
:1019540088130000C864433228211D160B02554128
:101964005254204F4B0D005246204F4B2100696EBC
:10197400697469616C697A656421004352434F4B11
:101984000D00435243204E4F4F4B0D0008040201FB
:0419940008601013C4
:00000001FF
